:020000041000EA
:10000000002008205B0100101B0100101D010010E2
:100010001101001011010010110100101101001058
:100020001901001019010010190100101F01001022
:10003000110100101901001021010010230100100E
:100040001101001011010010110100101101001028
:100050001101001011010010110100101101001018
:100060001101001011010010110100101101001008
:1000700011010010110100101101001011010010F8
:1000800011010010110100101101001011010010E8
:1000900011010010110100101101001011010010D8
:1000A00011010010110100101101001011010010C8
:1000B00011010010110100101101001011010010B8
:1000C00011010010110100101101001011010010A8
:1000D0001101001011010010110100101101001098
:1000E0001101001011010010110100101101001088
:1000F0001101001011010010110100101101001078
:100100001101001011010010110100101101001067
:10011000EFF30580103800BE00BE00BE00BE00BE7A
:1001200000BE00BEF2EB8871100301103003011015
:100130009C01001090A31AE7D3DEFFFF42012110BB
:10014000FF010000F40D0100793512AB00201E49BB
:10015000086006C881F3088810474FF050400068D7
:1001600008B10020F3E70DA40ECC002902D000F066
:1001700012F8F9E71549164A002000E001C1914242
:10018000FCD114498847144988471449884700BE60
:10019000FDE701C901C29A42FBD370473003011049
:1001A000100100200C0D00202C0F01100000082071
:1001B000000008202C0F011000100820001008205B
:1001C000000000007047000008ED00E00C0D00206A
:1001D000E41200202D350010D9020010F134001077
:1001E0000E234FF00102F0B542EC40302F488369F6
:1001F000D90622D42E492F4D2F4F304EDFF8D0C0D4
:10020000DFF8D0E00368DA05DCB202D53A680132E3
:100210003A601A0502D53368013333600B882A88A7
:100220000133DBB292B29A422DD00A8892B20EF814
:1002300002400B808369DB06E4D51C48204A8369B1
:10024000204C990613D4204D0BE013889BB2EB5C35
:10025000DBB2036013880133DBB2138083699B0632
:1002600005D41188238889B29BB29942EDD11288B6
:10027000238892B29BB29A420ED00E234FF0000216
:1002800042EC4030F0BDDCF800300133CCF80030F7
:100290008369DC06B6D5D0E75021044B0B4A99633D
:1002A0005B6B03F038035363E7E700BF00000740D0
:1002B000D8120020DA1200205C100020A8100020C4
:1002C000DE120020DC120020CC11002000100740BC
:1002D0004C100020CC1000202DE9F04F1020C7B0AA
:1002E00000F032FB4FF00105102345EC44304FF095
:1002F000000444EC40300E2000F026FB0E2345ECB9
:10030000443044EC40300D2000F01EFB0D2345EC42
:10031000443044EC4030B04D0221002000F0F6FAA9
:100320000221012000F0F2FA4FF4E131284600F0FA
:10033000A1FF0023012204460821284601F01CF8F1
:100340000121284601F050F82120A44900F0BAFB11
:100350000121212000F0A0FB5022AA636B6BA04F6B
:10036000A04803F03803A4F5E1314FF4E1327B6398
:1003700081FB0001002308F097FE8021CDE90040B9
:100380004FF4E133984A06A803F046F89DF8181098
:10039000002900F085824FF0700C944C944EDFF8E9
:1003A000948206A8238832880133DBB292B293424A
:1003B00000F07082228892B208F802102380C5F8FB
:1003C00038C06B6B03F038037B636B6B03F0070380
:1003D0007B6310F8011F0029E4D1864B864A9B6A93
:1003E000DFF830921360854A854DDFF84CB2DFF8B4
:1003F0004CA213600D234FF0010242EC40307D4BC4
:10040000D3F828C02A88BBF8003092B29BB29A4237
:1004100000F088807B4B704F1978CDF80CC010E04D
:100420000A2A32D03E2905D8764B09F8012001313D
:10043000C9B219702A88BBF8003092B29BB29A42B6
:100440006ED02B889BB21AF803202B88D2B20133CE
:10045000DBB22B80238830880133DBB280B2834249
:1004600011D04FF0700C208880B208F80020238053
:10047000C7F838C07B6B5A4803F0380343637B6B83
:1004800003F0070343630D2ACAD1002309F80130A2
:1004900019B900215B4B1970CCE7D9F800305A4AE2
:1004A000934200F0DD80D9F80030584A934200F0C2
:1004B0002381D9F80030554A934200F07B8154499A
:1004C00054480DF1170326AA03F032FE012800F06C
:1004D000B08120215048DFF800C1DFF804E1238813
:1004E00032880133DBB292B2934200F0B3802288AB
:1004F00092B208F8021023807023CCF83830DCF870
:10050000343003F03803CEF83430DCF8343003F004
:100510000703CEF8343010F8011F0029DFD1B8E707
:10052000DDF80CC0354B1B68ACEB03013B4B1B7873
:10053000002B00F02A814FF47A73394A2E4F10684D
:100540003A6800FB03F3ACEB02029A42C0F0288148
:10055000344AC7F800C0137883F0010313701022E7
:1005600043EC4020304B994230D9244BC3F800C0B3
:100570002E4BCDE90030802163462D4A26A802F09B
:100580004BFF9DF8981009B34FF0700E124FDFF833
:1005900050C026A8238832880133DBB292B293423E
:1005A0004ED0228892B208F802102380C7F838E0B3
:1005B0007B6B03F03803CCF834307B6B03F007031C
:1005C000CCF8343010F8011F0029E3D10D234FF08F
:1005D000000242EC40300DE700000740E10100104E
:1005E0000010074040420F0018910010DC1200205C
:1005F000DE12002000000B40D0120020D412002098
:10060000DA120020E21200206765742073657420FE
:10061000A491001068100020F89000103806002007
:100620003C060020E01200203F420F009491001091
:10063000B8910010CC110020D8120020CC1000205E
:1006400010F8011F0029A5D10D234FF0000242EC44
:100650004030CFE610F8011F00297FF440AF18E7C3
:10066000924B934A1B6893427FF41DAF914B1B88BA
:10067000732B7FF418AFEFF3108072B68E4B8F4A56
:100680008F491B681268096880F31088CDE9002142
:1006900026A880218B4A02F0BFFE9DF89810002901
:1006A0003FF4F7AEDFF858C2DFF858E226A82388F7
:1006B00032880133DBB292B2934218D0228892B2D0
:1006C00008F8021023807023CCF83830DCF834307E
:1006D00003F03803CEF83430DCF8343003F007038D
:1006E000CEF8343010F8011F0029E0D1D1E610F81F
:1006F000011F0029DBD1CCE66C4B734A1B68934287
:100700007FF4D7AE46F66F636A4A12889A427FF446
:10071000D0AE6E4B1B78002B7FF4CBAE01236C491F
:1007200010220B706B490B7043EC402020216A4B68
:100730006A4A9B6A6A48DFF8C8C1DFF8C8E11360FB
:10074000238832880133DBB292B2934218D02288D8
:1007500092B208F8021023807023CCF83830DCF80D
:10076000343003F03803CEF83430DCF8343003F0A2
:100770000703CEF8343010F8011F0029E0D188E6D5
:1007800010F8011F0029DBD183E6564B99427FF612
:100790001DAF554BC3F800C0544B1868544BE8E6E6
:1007A000504B99423FF6E1AE0D234FF0000242EC70
:1007B00040301FE63D4B444A1B6893427FF47FAEB6
:1007C0003C4B4C4A1B6893427FF479AE002340496E
:1007D00010220B703F490B7043EC40202021404811
:1007E000DFF81CC1DFF81CE1238832880133DBB25B
:1007F00092B2934218D0228892B208F80210238055
:100800007023CCF83830DCF8343003F03803CEF8FD
:100810003430DCF8343003F00703CEF8343010F80D
:10082000011F0029E0D134E610F8011F0029DBD1B7
:100830002FE6269B002B3FF44CAE20212B4A284864
:10084000DFF8BCC0DFF8BCE01360238832880133D6
:10085000DBB292B2934218D0228892B208F802100A
:1008600023807023CCF83830DCF8343003F03803C0
:10087000CEF83430DCF8343003F00703CEF83430EF
:1008800010F8011F0029E0D103E610F8011F00292C
:10089000DBD1FEE510F8011F00297FF483AD9CE554
:1008A000154C164EDFF8608097E500BF6C100020F5
:1008B0007374617470100020A81000205C10002078
:1008C0004C100020589100106C65642072100020BC
:1008D00038060020E012002000000B40D01200205B
:1008E000F09000103F420F00D41200203C06002080
:1008F000A09100106F666600DC120020DE1200205E
:100900000000074000100740CC11002010B44FF445
:1009100080740C4B53F8202003EB8003C00082F05E
:10092000400200F1804003F5805C02F0C00200F557
:10093000203003F54053CCF8002041601C605DF886
:10094000044B70470480034030B44FF0000343EC85
:10095000440043EC400005254FF480740B4BC2006B
:1009600053F8201003EB800081F0400102F1804336
:1009700003F5203301F0C00200F5805100F540502E
:100980000A605D60046030BC704700BF04800340B3
:100990000FB400B583B0049C074802F0EDFE3CB1F3
:1009A00005A92046019102F071FD044802F0E4FE21
:1009B000012002F083FD00BFE49100104891001077
:1009C00070B58646EFF3108572B6124CD4E8CF6F3F
:1009D0000120002EFAD1C4E8460F002EF6D1BFF355
:1009E0005F8F4FF0010CC80801F007030CFA03F306
:1009F0001EF800C01CEA030608D14CEA030C0EF8EE
:100A000000C0C4E88F6F85F3108870BD1046FFF7F3
:100A1000BFFF00BF0B100020044A1078431CDBB25C
:100A2000182B28BF10231370704700BF400600200A
:100A30004FF0E022936843F000539360704700BF8B
:100A40000021044B03F12002C3E88F1F01339342BE
:100A5000FAD17047001000204FF0E0234FF08032B1
:100A6000C3F80024C3F80424C3F80824C3F80C24F2
:100A7000C3F81024C3F81424C3F81824C3F81C24A2
:100A8000C3F82024C3F82424C3F82824C3F82C2452
:100A9000C3F8302462B67047012300F01F02934070
:100AA000400941B1800000F1604000F56140C0F8AC
:100AB000803103607047024A203042F8203070478E
:100AC00000E100E010B5EFF3108C72B6114BD3E8E3
:100AD000CF4F0122002CFAD1C3E8442F002CF6D1CD
:100AE000BFF35F8F0C4A103092680C4C52F82020F4
:100AF000A24201D091420BD1074A926842F82010DD
:100B0000BFF35F8F0022C3E88F2F8CF3108810BDD6
:100B100000F094FD0910002000ED00E0110100102C
:100B2000014B0B44036070470010002070B5104C5F
:100B3000104DAC420ED2FF26236863B1FFF76CFF65
:100B400001462046FFF7ECFFA680BFF35F8F083415
:100B5000AC42F1D370BDFFF75FFF01462046FFF7BF
:100B6000DFFF2671BFF35F8F0834AC42E4D370BD62
:100B7000040D00200C0D002040BF00200021704714
:100B80002DE9F04F87B0EFF30583DBB2103B9A08F5
:100B900016BF8E498E4901220D460591012103F0B1
:100BA000030301FA03F8C3468A4803EB820250F8B4
:100BB000224005F541529800039004F1080AC2F85A
:100BC00004800194019BB3F90860C5F83CB0002E85
:100BD00076DA9B881B0400F12881019C2369EFF3DE
:100BE000108272B6D3E8CF0F01210028FAD1C3E8F2
:100BF000401F0028F6D1BFF35F8F4FF6FF76A08825
:100C00000021236900B2A680C3E88F1F82F31088F9
:100C100088422BDBA6466769A8460446BEF9083021
:100C200004EB440607EBC602002BD446D2E902507F
:100C300013DBF146029404E037F93E309446002B72
:100C400009DB03EB430E07EBCE02D2E90241A542DA
:100C500070EB0101F0DACE46029CACF8004037F9A7
:100C6000364027F83630002CD8DA4546019BB3F9D8
:100C70000830002BC0F2D980019A03EB430352697C
:100C8000A96A02EBC303039A9E68A8180269A6EB3F
:100C9000010C521A9445DF6803D32B6A13EA0B0F39
:100CA00000D10661019B9B79002B4DD1284600F0B5
:100CB0009DFAB042B94185DA40BF07B0BDE8F08F78
:100CC000D3F8148006EB460908EBC907BB68284631
:100CD000FC68029300F08AFA029B9842A1412DDB46
:100CE000D7E90431022B77D001987A88B0F908004F
:100CF00092B242EA0040984702460B4652EA03018C
:100D000070D0002B80F2B0800299B1EB020E64EB40
:100D1000030C38F93930C7E902EC002B0EDB019ADD
:100D2000506903EB430200EBC202D2E90271BE45F7
:100D30007CEB01044FEA430280F2A280019B9B8876
:100D400018047FF54AAF91E74FF0000E019880F844
:100D500006E0B0F90830D446591CA7D0CDF808B049
:100D6000049502E05A1CAC462CD0426903EB4301C7
:100D700002EBC105B5F802801C4618F4004F32F9A9
:100D80003130EFD00569ACF80030EFF3108872B65F
:100D9000D5E8CFBF5FF00109BBF1000FF8D1C5E87E
:100DA0004B9FBBF1000FF3D1BFF35F8FB0F8029000
:100DB000056922F831904480C5E88FEF88F31088E8
:100DC0005A1CD2D1DDF808B0049D6FE700800B40BB
:100DD00000000B40AC10002008460B6904919847B6
:100DE000002836D138F83930019C23812369EFF38C
:100DF000108272B6D3E8CF0F01210028FAD1C3E8E0
:100E0000401F0028F6D1BFF35F8F6388216928F85F
:100E1000393000236680C1E88F3F82F31088019B40
:100E20009B8818047FF5D9AE20E7059DD846284653
:100E300000F0DCF9039CAB6A2C44216900F100400E
:100E4000C91AC31A8B4208D2206140BF07B0BDE85F
:100E5000F08F0499D1E9002350E72B6A13EA080FB9
:100E60007FF42AAF2061F0E728460493029200F055
:100E7000BDF9029A049B10EB020E43EB010C48E70C
:100E8000019C029524F8083F25460BE030F93230EA
:100E90002546002B0DDB03EB430200EBC202D2E937
:100EA00002715A00BE451A447CEB010100EBC204FA
:100EB000ECDA2A4628F83930019B16809B88029D7F
:100EC00018047FF58AAED1E62DE9F84F324C25693A
:100ED0000DB1BDE8F88FDFF8D8800321404600F05F
:100EE00073F90326C4F80C80FFF796FD4FF0504CC1
:100EF0002A4B267003442361DCF800300F21637015
:100F0000636961801D834FF00405A3F878504FF0AA
:100F10000505A3F890504FF00605A3F8A8504FF030
:100F200007050E214FF6FF72A3F8C05008274FF0B7
:100F30000A0E4FF00C0C4FF001090D204FF0020B80
:100F40004FF0090A4FF00B05A3F868111449A2806D
:100F5000A3F808E1A3F838C1A3F85001A160A3F8F1
:100F600048B01A80A3F8F0A0A3F82051A3F830905D
:100F7000A3F86060A3F8D8700A4B30460A49C8F855
:100F80002070DC60FFF79EFD49463046FFF784FD88
:100F9000064B1F64BDE8F88F4406002000100020B7
:100FA000FFFF1000AC100020810B001000200B4050
:100FB00000000B400146F0B50069EFF3108772B6F0
:100FC000D0E8CF5F0124002DFAD1C0E8454F002DB5
:100FD000F6D1BFF35F8FB1F902E04C690EEB4E0C16
:100FE000BEF1000F4FEACC0504EBCC0C3DDB605B9F
:100FF000002648800869C0E88F6F87F31088BCF826
:101000000200CCE902230130C0F30E00012838BFF2
:101010000120059BACF80200CCF81030069B40EA9A
:101020000E40CCF814300B69EFF3108272B6D3E89F
:10103000CFCF0127BCF1000FF9D1C3E84C7FBCF141
:10104000000FF4D1BFF35F8F8B886353A1F804E0E6
:101050000B69C3E88F6F82F310880122CB6809788F
:1010600003F501538A405A60F0BD00230A69C2E8C3
:101070008F3F87F310884FF0FF30F0BD0346408963
:10108000B0EB214F37DD58690A1402EB420210B56C
:1010900000EBC2001C69EFF3108C72B6D4E8CFEFFE
:1010A0000122BEF1000FF9D1C4E84E2FBEF1000FAE
:1010B000F4D1BFF35F8F428889B292B28A4207D0DF
:1010C00000221B69C3E88F2F8CF31088002010BD0D
:1010D00042F4004242800121002218699971C0E85F
:1010E0008F2F8CF310881C78DA68084602F50153BC
:1010F000A140596010BD0020704700BF2DE9F043AA
:1011000005460C4683B0EFF30586F6B266B12B4B6D
:10111000586AA04225D39B6AAB422BD2001B18BF52
:10112000012003B0BDE8F083254FD7F80C9097F865
:101130000080484600F05AF808F1040859F82830B1
:101140001B1A281A64EB0101984271F1000115DBAA
:101150001A4B5A6AA24208D220BF184B586AA042C2
:10116000D9D2002003B0BDE8F0839B6AAB4201D224
:10117000A242F1D0012003B0BDE8F08300F03EF8B8
:10118000854264EB01010029C1DB0E4B3846CDE9F5
:1011900000362A462346FFF70DFF011EB7DD074B39
:1011A0005A6AA24204D39B6AAB4202D2A24200D145
:1011B00020BF0348FFF762FFA9E700BF00000B4014
:1011C00044060020790B001010B4054B054C064A6C
:1011D000A04214BF1846581C5DF8044BFFF7F0BB43
:1011E0002010002000800B40F49100100346416A5B
:1011F0000A46986A596A8A42FAD17047034B596A7B
:101200000A46986A596A9142FAD1704700000B4029
:1012100010B4174A536A9C46946A536A6345FAD1DC
:10122000001959414FF0000228BF01220346CAB1FC
:101230000F4B596A4B1C08BF0B4608D04FF0FF31CB
:101240000B460B48426A8A42FCD38A4207D1084ABD
:1012500002E0506A884202D1906A9842F9D35DF860
:10126000044B7047024A526A9142EAD8EDE700BF48
:1012700000000B40F8B5054606200E4600F048F980
:10128000002842D0354A3648954214BF4FF080625C
:101290004FF00062334B344902601A608C6832EAC6
:1012A0000404FBD12D4B4FF48071EB1AB3FA83F396
:1012B0002E4A5B09062022F8131000F029F9C3001A
:1012C000B3FBF6F30133DA0920D14026012169622C
:1012D000AA622F6BFB0722D42B46002253F82C1F47
:1012E000062003F5805422602F6300F011F940F2CC
:1012F000013103228000B0FBF6F0EB6A83F070034B
:1013000003F07E0323602963AA64F8BD4FF6FE71E3
:101310008A421BD922464FF6FF71154ED7E740F29D
:10132000013205F540531A636B6AAC6A062004EB80
:10133000831400F0EDF80F4BA402A3FB0023DB0A9B
:101340000021B4FBF3F0FFF763FFC5E7C3F34503E8
:10135000114603EB82161A46B9E700BF008007402A
:10136000002002400030024000000240CC12002069
:10137000C0FF3F00757B2B8F013A0539D200F8B5CD
:10138000054642EA411443B1A3F10103B3FA83F3E2
:101390005B0944EA830343F002042E6BF3070AD48B
:1013A0002B4653F82C2F624002F06E0203F5805357
:1013B0001A602E63F8BD40F2013205F540531A63FE
:1013C0006B6AAF6A062007EB831700F0A1F8054BA4
:1013D000BF02A3FB0030C00A0021B7FBF0F0FFF70B
:1013E00017FFDDE7757B2B8FF8B5066B0546F30716
:1013F0004FEA01140AD42B4653F82C2F544004F022
:10140000100403F580531C602E63F8BD40F20132D6
:1014100000F540531A636B6AAF6A062007EB831727
:1014200000F076F8054BBF02A3FB0030C00A002194
:10143000B7FBF0F0FFF7ECFEDDE700BF757B2B8F0D
:1014400000EB400C4FEA8C0C0CF1804C0CF5803C0E
:10145000F0B51646DCF80420051FB2F5803F38BF12
:101460004FF48032EDB238BFCCF80420012D2AD9D8
:101470004FF40067254C0CF54052176054F82020BB
:10148000B2B9DCF80020012D82EA461202F0E00237
:101490000CF5805632602AD94FF4006144F82030B0
:1014A0004FF480330CF500521160CCF80430F0BDDD
:1014B0006769B7FBF2FE0EF1010E0EEB4E0EBEF1A8
:1014C000030EFCD2DDE70129D2D103240CF54052F2
:1014D0001460DCF80820D207FBD5DCF800200B4CA8
:1014E00082EA461202F0E0020CF5805632600122D8
:1014F000DCF800504D4005F00305356002FA01F1BB
:10150000DCF808200A42FBD0C6E700BF2410002008
:10151000014B53F8200070472410002070B4039D45
:1015200004682D0345EA03451B4B002CB3FBF1F384
:10153000B2FBF3F61FDB194A194B904214BF4FF46C
:1015400080424FF40042174C1A6003F580531A6032
:10155000A36832EA0303FBD1212200F54053043390
:10156000016086601A600268002AFCDA0822C56001
:101570001A6070BC7047036803F03F038B42DAD1F6
:101580008368C3F30B03B342D5D1C36803F4EE23DE
:10159000AB42D0D1EDE700BF001BB7000080054093
:1015A0000020024000000240012300EB40008000C8
:1015B00000F1804000F5841041600360704700BF77
:1015C0000023DB8A002242E800F2520201D41021FB
:1015D00018470421184700BF034AD2F82838002BC7
:1015E000FBD0BFF35F8F704700000E400021044B1B
:1015F000044ABFF35F8F43F8041B9342F9D170474D
:101600000C080E402C080E4010B44FF48D704FF4AF
:101610002A64064A064B07491460D0601960536873
:10162000002BFCDA5DF8044B704700BF00800440DB
:1016300000A0044000B0FA00704700BF08B50148A0
:10164000FFF7A6F91892001038B5054C054DAC42CD
:1016500004D254F8043B9847AC42FAD338BD00BFDB
:10166000B0900010F090001010B40748074C084BE1
:10167000084A094904601A608B6832EA0303FBD107
:101680005DF8044B704700BF002002407F3BEFEF46
:1016900000300240F6FFF30300000240044BDB6C15
:1016A000B3F5004F03D14FF48022024BDA64704748
:1016B00000001150002011504FF0E022044BD2F8EE
:1016C000881D0B43C2F8883D10EE3004704700BF00
:1016D000030330006FF06041044B054A19609368C2
:1016E000DB4333F06043FAD1704700BF0030024063
:1016F0000000024010B545F25320FFF761FFBDE83E
:10170000104003460420184710B545F25320FFF758
:1017100057FFBDE81040034601201847FFF790B976
:1017200038B51349134C144D641AA408442C2246AE
:1017300028BF44222846920002F000FF432C14D810
:101740000E4AC4F144000ED005EB8403410803EBBC
:10175000C101C3E9002208339942FAD1C30704D575
:1017600020F00100044445F82420054B9D6038BD5D
:1017700000000010100100100000002011010010F6
:1017800000ED00E0002370B52B4C82B0C4F884302B
:10179000FFF73AFF0122294BDA63636C012BFCD17E
:1017A0000321264A244B11639C6B012CFCD1022699
:1017B000052521460523224A22480096FFF7AEFE62
:1017C00021462B46204A21480095FFF7A7FE00221C
:1017D000042031461E4BFFF733FE214628460022E7
:1017E0001C4BFFF72DFE0022082011461A4BFFF775
:1017F00027FE002209201146174BFFF721FE002289
:1018000006201146134BFFF71BFE0022114B072049
:101810001146FFF715FE0420FFF77AFE00240F4B58
:10182000A3FB0035AD0CE0B229460134FFF7BCFE46
:10183000062CF8D102B070BD00000140003001401C
:10184000002F685900000540008C86470080054045
:10185000001BB70080D1F008006CDC0283DE1B4364
:1018600086B003B451FC0804CDE9020151FC09041F
:10187000CDE9040151EC0A04CDE9060103BCF047AF
:10188000BDE800504EEC00C4BDE800504EEC01C471
:10189000BDE800504EEC02C400BD000000B5FFF7EB
:1018A000DFFF02E010FE30F4F8D441EC100443EC0A
:1018B000112400EE010410EE010480EE200451EC2E
:1018C0001004704700B5FFF7CBFF02E010FE30F4C4
:1018D000F8D441EC100443EC112400EE010410EEA6
:1018E000210480EE200451EC3004704700B5FFF76E
:1018F000B7FF02E010FE30F4F8D410B541EC10044C
:1019000043EC112451EC040453EC0524A0FB024CDD
:101910005FF0000EE0FB03CEE1FB02CE4CEC204476
:101920000024E1FB03E444EC30E480EE200451ECBD
:10193000500410BD00B5FFF793FF02E010FE30F435
:10194000F8D441EC100443EC112451EC2104A0FB29
:1019500001126FEA820252FB100052FB12F252FB9C
:101960001000A0EBD07C53EC04245CFB13F153EC8F
:101970001524A1FB022001FB030053EC4424A2EB3D
:10198000000050FB1CF24FEA111312EB017043EB05
:10199000E27140EA515020EA915020F0070053ECE8
:1019A0007524A0FB023C53EC752400FB03CC01FB27
:1019B00002CC53EC0424ACEB824C40EA5C70A0F106
:1019C000010041EC400480EE200451EC70047047AB
:1019D00000B5FFF745FF02E010FE30F4F8D441EC0B
:1019E000100480EE220410EEB204704700B5FFF739
:1019F00037FF02E010FE30F4F8D440EC700400EE43
:101A0000010410EE210480EE200451EC30047047F4
:101A100000B5FFF725FF02E010FE30F4F8D440ECEB
:101A2000600400EE010410EE210480EE200451EC6D
:101A30003004704700B5FFF713FF02E010FE30F4EA
:101A4000F8D441EC800400EE010410EE010480EEB5
:101A5000400410EE1304704700B5FFF701FF02E0E9
:101A600010FE30F4F8D441EC800400EE010410EED6
:101A7000010480EE400410EE3304704700B5FFF718
:101A8000EFFE02E010FE30F4F8D441EC100443EC19
:101A9000112400EE010410EE3004C0F30070704712
:101AA00000B5FFF7DDFE02E010FE30F4F8D441ECA3
:101AB000100443EC112400EE010410EE3004C0F3D6
:101AC0008070704700B5FFF7CBFE02E010FE30F4E7
:101AD000F8D443EC102441EC110400EE010410EEA4
:101AE00030F48CBF01200020704700BF00B5FFF725
:101AF000B7FE02E010FE30F4F8D443EC102441ECC1
:101B0000110400EE010410EE30F42CBF012000207F
:101B1000704700BF00B5FFF7A3FE02E010FE30F4EF
:101B2000F8D441EC100443EC112400EE010410EE53
:101B300030F42CBF01200020704700BF00B5FFF734
:101B40008FFE02E010FE30F4F8D441EC100443ECB8
:101B5000112400EE010410EE30F48CBF01200020AF
:101B6000704700BF0022002950DA404261EB41017A
:101B7000C9B1B1FA81F30B3B17D4D3F1200C30FA81
:101B80000CFC9840994051EA0C011A44524202F26E
:101B9000324201EB025141F0004140F2FE739A42A1
:101BA00038BF704721E011467EE003F1210310FAAF
:101BB00003FCA3F1010301FA03FCC3F1200320FAA3
:101BC00003F021FA03F140EA0C00A3EB020202F257
:101BD000324214D050F1000041EB025141F000417B
:101BE00040F2FE739A4238BF70474FF00001A8BF21
:101BF000C7F6F0714FF00000704700217047EBD33B
:101C000050F1000020F00100E6E70022B9B1B1FA7E
:101C100081F30B3B16D4D3F1200C30FA0CFC984026
:101C2000994051EA0C011A44524202F2324201EB4D
:101C3000025140F2FE739A4238BF704720E01146CD
:101C400000F066B803F1210310FA03FCA3F10103CD
:101C500001FA03FCC3F1200320FA03F021FA03F197
:101C600040EA0C00A3EB020202F2324212D050F121
:101C7000000041EB025140F2FE739A4238BF7047B8
:101C80004FF00001A8BFC7F6F0714FF00000704799
:101C900000217047EDD350F1000020F00100E8E78B
:101CA000002880F235804042B0FA80F30B3B11D41B
:101CB000984001EB0302524202F2124200EB025141
:101CC00041F000414FF0000040F2FE739A4238BFED
:101CD000704713E0C3F1000330FA03FCC3F12002A4
:101CE0009040A3EB010202F212420CEB025141F0D0
:101CF000004140F2FE739A4238BF70474FF00041F6
:101D0000A8BFCFF6F0714FF0000070470021704778
:101D100060B3B0FA80F30B3B0FD4984001EB0302A1
:101D2000524202F2124200EB02514FF0000040F228
:101D3000FE739A4238BF704710E05B4230FA03FCF2
:101D4000C3F120029040A3EB010202F212420CEB1D
:101D5000025140F2FE739A4238BF70474FF00001C3
:101D6000A8BFC7F6F0714FF0000070470021704720
:101D70000022A2F232425FEA215CACF10103A1EB46
:101D800003515B0513F5800F32D212EB535210D47E
:101D90000B2A36DA9140D2F1200330FA03F31943CB
:101DA0009040BCF1000FA8BF7047404261EB410179
:101DB000704720320EDD01FA02F3D2F12002D14049
:101DC000D0401843BCF1000FA8BF7047404261EB00
:101DD00041017047524282F3050231FA02F00021BC
:101DE000BCF1000FA8BF7047404261EB4101704752
:101DF00002D000200021704750EA013118BF4FF097
:101E0000000C6FF0004101EBDC716FEAEC70704781
:101E100010B5044601F006FD28B10346034A2344E9
:101E2000934200D810BD0248FEF7B2FD0000082022
:101E30002492001010B50C4601F0BAFF28B10346F9
:101E4000034A2344934200D810BD0248FEF7A0FD88
:101E5000000008202492001001F0ECBC9A4238BF28
:101E600088547047704700BF2DE9F04F83B0994602
:101E7000DDE90DAB0F9B884611469A07074616D140
:101E8000DA453AD20C460D46ABEB0A060E44224622
:101E90004B46414620200134B847B442F7D1294689
:101EA000BAF1000F08D1204603B0BDE8F08F0C4610
:101EB000BAF1000F10D00E4655460C9B2E449A44A2
:101EC0000191721B4B46013D41461AF8010D344603
:101ED000B847002DF5D101990F9B9B07E3D5651AF3
:101EE000AB45E0D922464B46414620200135B84754
:101EF0005D4504F10104F5D3D5E7BAF1000FDAD15D
:101F00000C46D0E72DE9F04F0F9FDDF824E017F0E5
:101F1000020F0A9C9DF82C900E9DDDE90C8629D1BC
:101F2000002D6FD1B44225D2202C07F0010B00F018
:101F3000128104F1FF3C4FF0300AF44401E0202C00
:101F40007AD00134A6420CF801AFF8D8BBF1000FEB
:101F500010D0AC420ED2202C74D004F1FF3C4FF0D4
:101F6000300AF44401E0202C29D00134AC420CF8B2
:101F700001AFF8D117F0100F3AD017F4806F28D1C5
:101F80001CBBB8F1100F00F0CA80B8F1020F00F0CE
:101F9000D48030248EF800400124B9F1000F67D1BD
:101FA0007E0740F1AA802B260EF804600134CDE9AB
:101FB0000B57CDE909E4BDE8F04FFFF755BFFC062C
:101FC00040F189807C0535D42024A6426AD0AC42F9
:101FD00068D0B8F1100F00F08780B8F1020F5AD026
:101FE000202CE4D0264601344FF0300C0EF806C009
:101FF000202CD2D1CDE90B57CDE909E4BDE8F04F53
:10200000FFF732BF17F0010B3ED0B9F1000F47D1F7
:1020100017F00C0F44D1B4429BD2202C89D1202D33
:1020200010D8FC0657D57C0555D4202E00F0B98079
:10203000202D10D02024CCE7BBF1000F00F0A580AC
:10204000202DBCD9FC0646D57C0544D4202E00F0BA
:10205000A880202D3FD12C461F26B8F1100F7FD02D
:10206000B8F1020FC0D14FF0620C0EF806C0B7E70E
:102070002D260EF804600134CDE90B57CDE909E4B3
:10208000BDE8F04FFFF7F0BEB442BFF473AF202CB1
:102090007FF44FAFD6E7202C89D026460134E2E703
:1020A000013DB8E7661ED8D1B8F1100F64D0B8F181
:1020B000020F7FF46EAF62268EF800603026444631
:1020C0008EF80160B9F1000F3FF46AAFD0E7B8F1C4
:1020D000100F7FF46CAF2024CDE90B57CDE909E454
:1020E000BDE8F04FFFF7C0BEBE060ED4202CF2D0E4
:1020F00078260EF80460013472E73E077FF557AF8B
:1021000020260EF80460013451E7202CE3D04FF074
:10211000580C0EEB040686F800C0013460E7BE06DA
:1021200017D558248EF8004030248EF80140022440
:10213000B9F1000F3FF434AF9AE762248EF8004003
:1021400030248EF801400224B9F1000F3FF428AF8B
:102150008EE77824F2E7BBF1000F7FF462AF71E7FE
:1021600017F0200F0CBF4FF0780C4FF0580CA61E44
:102170000EF806C0013C35E7BC06EAD558248EF8B7
:10218000004030248EF80140DDE717F0100F3FF4D7
:102190000EAF17F4806F9AD1202E7FF418AF1F2650
:1021A0005BE734461F2658E700B9704701F0A2BA32
:1021B0002DE9F04F9FB09DED287BDDE92AA558EC75
:1021C000177B83461E460D91109243463A46384689
:1021D00041468DED087B2C9CFFF754FC002840F015
:1021E000D880384641464FF0FF32754BFFF7AAFCC6
:1021F000002840F0CE80384641464FF0FF326FF461
:102200008013FFF763FC002840F0C380DDE9087805
:102210000022384641460023FFF758FC002840F0D2
:10222000C081CDE90A78DDE90A2390461F4614F4FF
:10223000806308BF4FF0060A139304F4006258EA63
:102240000703119240F0C080002A00F0A2819FEDA8
:102250005A7B00278DED0E7B4FF00009BA45CCBFAD
:10226000AAEB070A4FF0000A4F46C8BF0AF1FF3A2F
:1022700044F480644D4594BF4FF00008A5EB090875
:1022800014F00203119304D0B9F1000F18BF4FF0FE
:1022900000083FB1DDE90A01DDE90E23FFF74EFB3F
:1022A000CDE90A01DDE9080100220023FFF70EFC59
:1022B00030B1DDE90A01024601F10043CDE90A230C
:1022C0009DED0A7BCDE902A8DDF834A024F400637B
:1022D00004938DED007B334651465846109A00F02A
:1022E00097F98046B9F1000F4FD014F0200F024645
:1022F00000F1010433460CBF652045205146D84704
:1023000009F1FF3087EAE77C0DF1580900224B46BE
:10231000DFF8B080ACEBE77C4FEAD77E01E0202A03
:1023200010D0E246A8FB0C71C90801EB8107ACEBA9
:1023300047073037BAF1090F8C4602F1010203F862
:10234000017BECD805230590069300200A230D9FFE
:10235000CDE90330CDE9012E3346224639465846B1
:10236000CDF80090FFF7CEFD119B80466BB1109B1E
:10237000C41AA54209D942463346394620200134C1
:10238000D847A54208F10108F5D840461FB0BDE87E
:10239000F08F9DED087B33465846109A0D998DEDD0
:1023A000287BCDE92B54CDF8A8A01FB0BDE8F04F95
:1023B00000F02EB9AFF30080000000000000000024
:1023C000FFFFEF7FCDCCCCCCC7F30A50A0F2FF309B
:1023D000FFF710FB8AA3D3E90023FFF78BFA8AA348
:1023E000D3E90023FFF75EFAC7F31307CDE90E0127
:1023F00047F07F51404600227B4B41F44011FFF7EC
:1024000065FA6BA3D3E90023FFF774FA02460B4683
:10241000DDE90E01FFF746FAFFF710FB0746FFF76D
:10242000E9FA65A3D3E9002380468946FFF762FAFB
:1024300000226E4BFFF736FAFFF700FB03464946D2
:10244000404612935EA3D3E90023FFF753FA804678
:1024500012988946FFF7CEFA5BA3D3E90023FFF772
:1024600049FA02460B4640464946FFF72FFA024614
:102470000B4680468946FFF73DFA42464B46CDE97A
:102480000E0140464946FFF70DFA0022CDE914013E
:10249000DDE90E01564BFFF751FA0022554BFFF7CD
:1024A00001FA02460B46DDE90E01FFF747FA00226A
:1024B000514BFFF7F7F902460B46DDE90E01FFF736
:1024C0003DFA42464B468046894600204FF0804107
:1024D000FFF7FCF902460B4640464946FFF7E2F992
:1024E00002460B46DDE91401FFF728FA0022434BB0
:1024F000FFF7D8F9129B002203F2FF3C4FEA0C537E
:10250000FFF7F8F980468946DDE90A0142464B4665
:10251000CDE90E89FFF7DAFA68BB4346494607F171
:102520006302C62A119A8CBF4FF005094FF00409C7
:10253000002A3FF49FAE0B433FF48EAEDDE90A0163
:1025400023A3D3E90023FFF7E9FA48B1DDE90A0143
:1025500021A3D3E90023FFF7B9FA00287FF47CAE6A
:10256000BAF1000F3FF486AE139B002B3FF482AE0E
:102570000AF1FF3A7EE600221E4B40464946FFF72D
:10258000DDF90A4601460346CDE90E12013F114628
:10259000C5E79FED137B17464FF004098DED0E7BC9
:1025A00068E608F100430A970B933CE6AFF300801E
:1025B00061436F63A787D23F71A379094F930A40A4
:1025C0001655B5BBB16B0240EF39FAFE422EE63F1D
:1025D0002D431CEBE2361A3F0000000080842E41A0
:1025E00000000000000000000000F83F0000E03F95
:1025F00000002C4000002440000018400000F03F84
:10260000FB799F501344D33FB3C8608B288AC63FE1
:102610002DE9F04F97B0DDE92089CDE90401DDE92E
:10262000224BCDE90623404642464B464946DDF85B
:1026300090A0FFF727FA002840F0C58140464946A0
:102640004FF0FF326FF48013FFF740FA002840F09C
:102650001D81404649464FF0FF32C14BFFF772FAE9
:10266000002840F0E380B8A3D3E900234046494660
:10267000FFF768FA002840F0CB80B5A3D3E9002328
:1026800040464946FFF722FA002840F0C180404604
:10269000494600220023FFF719FA002840F0E080A5
:1026A0001AF480650D9000F0E980092C40F29681C3
:1026B0000EAB1A460C9330210023A4F10905013317
:1026C000202B02F8011BA4EB030600F03A81AB4279
:1026D000F5D19FED9D7B8DED087B49464046FFF788
:1026E000ADF90446FFF786F902460B4640464946D7
:1026F000FFF7ECF8DDE90823FFF7FCF802460B468C
:10270000CDE90A23FFF7ACF90746FFF785F9024642
:102710000B46DDE90A01FFF7D9F802460B46CDE981
:102720000A2300228F4BFFF70DFA002800F0DB8010
:1027300001373846FFF770F9DDE90823FFF7EEF9B6
:1027400008B100270134002E40F0B1802046FFF789
:1027500051F902460B4640464946FFF7B7F80022BA
:10276000804B06460F46FFF7B1F940B9304639466F
:1027700000227C4BFFF7E6F9002800F015810C9B46
:10278000691E7948194410E080FB0462C3EBA20380
:1027900003EB8302A4EB420404F1300201351C4632
:1027A00001F8012F002B00F0AB80202D4FEAE473DD
:1027B000EAD10AF00303012B1CD1BBF1000F19D0A1
:1027C0000D9B002B40F0F9801AF00C0F40F0F580C3
:1027D000AB4540F2D380202D0BD030220C996B1EDC
:1027E0000B4401355D4503F8012F00F08D80202D4D
:1027F000F7D12025DDE90623DDE904010C9CCDE9B4
:1028000002BA01950094FFF72FFB17B0BDE8F08FD7
:10281000CDE92089DDE90623DDE90401CDE923BA0C
:10282000229417B0BDE8F04FFFF7C2BC4F4DCDF872
:102830008CA00AF0040ABAF1000F4D4C18BF2C46C8
:10284000DDE90623DDE9040120940CBF0324042400
:10285000CDF888B0219417B0BDE8F04FFFF704BB66
:102860004B46424600200021FFF730F801231AF4BE
:102870008065804689460D937FF417AF9FED367BC8
:102880000EAB06268DED087B0C9326E70424DDE9CC
:102890000623DDE90401374DCDF88CA0CDF888B0D2
:1028A0002095219417B0BDE8F04FFFF7DDBA0C9BDF
:1028B000681EDFF8C4C018440DE0ACFB0721C9084E
:1028C00001EB8102A7EB42023032092F00F8012F01
:1028D00027D90F461D46202D05F1010306F1FF36CD
:1028E000EBD120254BE70022DDE90A011D4BFFF764
:1028F000EDF800287FF427AF002F5AD1013722E7E7
:102900000AF00303012B75D0202D3FF473AF0D9B0C
:10291000BBB32D2205F158036B4403F8202C01357D
:1029200068E7202BDDD0AEB30C9A1E44154430224C
:1029300001E0B3422ED00133202B05F8012FF8D14E
:10294000CFE71D46C5E600BF0000000065CDCD41C4
:102950000000000065CDCDC10000000080842E4144
:10296000FFFFEF7F0000E03F676666667C92001025
:10297000849200108C920010CDCCCCCC202D3FF452
:1029800039AF1AF0040F0DD11AF0080F3FF432AF2F
:102990002022BFE72E2103F158026A4402F8201CCE
:1029A0005D1CECE62B22B5E7E3077FF5E8AE0134CA
:1029B000E5E6FA077FF5C7AEA0E70BF1FF3BAB45B5
:1029C0003FF609AFA0E70324DDE90623DDE90401B2
:1029D0000A4DCDF88CA0CDF888B061E7084B2646AB
:1029E00003EBC40393ED007B0EAB8DED087B00255C
:1029F0000C9372E6BBF1000F86D0E1E688920010DE
:102A0000909400102DE9F04F9A469BB0249C964D6F
:102A10000B94964C0B1E18BF834625609AF8000055
:102A2000934C0A9308BFA3460992002800F0BC8289
:102A30004FF000090AE04A46099B0A9909F1010989
:102A4000D8479AF80000002800F0CE8025280AF127
:102A5000010AF0D10023524612F8010BA0F1200127
:102A600010290AD8DFE801F04009093C09090909E1
:102A700009090938093409093000A0F13001092990
:102A800040F28C802A2800F0F58000210C912E283D
:102A900000F099800027A0F1680112292DD8DFE805
:102AA00011F057012C0051012C0045012C002C0085
:102AB0002C002C002C002C002C0027002C002C00BB
:102AC0002C002C002C002700924643F00103C2E7A3
:102AD000924643F00203BEE7924643F00403BAE78E
:102AE000924643F01003B6E7924643F00803B2E77C
:102AF0009AF8010043F4807301326728924600F28D
:102B00008280242840F2C680A0F12502422A00F2E9
:102B1000C180DFE812F05F01BF00BF00BF00BF004F
:102B2000BF00BF00BF00BF00BF00BF00BF00BF00AD
:102B3000BF00BF00BF00BF00BF00BF00BF00BF009D
:102B4000BF00BF00BF00BF00BF00BF00BF00BF008D
:102B5000BF00BF00BF00260145012601BF00BF0026
:102B6000BF00BF00BF00BF00BF00BF00BF00BF006D
:102B7000BF00BF00BF00BF00BF00BF00D301BF0048
:102B8000BF00BF00BF00BF00BF00BF00BF00BF004D
:102B9000D3016701D301260145012601002100E090
:102BA000013201EB810100EB410110789246A0F166
:102BB0003004092CA1F13001F2D92E280C9102F138
:102BC00001027FF467AF9AF801001146A0F13006C8
:102BD000092E43F4806340F231812A2800F03E81BF
:102BE00092460027013256E74C46099B994501D38E
:102BF00003F1FF394A460020099B0A99D84720462D
:102C00001BB0BDE8F08FA0F16902D2B20F2A41D803
:102C1000012649F2410196400E4040F001810A2A06
:102C20003FD0072A36D10B9C54F8042B002A00F021
:102C3000288143F021010DF1480E704603E0202E5B
:102C400000F029811A4602F00F052B46092D94BF8A
:102C5000303337330F2A00F8013B06F101064FEA03
:102C60001213ECD817E100BF052A001064100020F1
:102C7000651E00100B9C9AF8010054F8045B924604
:102C8000002DBDBF694243F002030C910C950B94DB
:102C90000132FCE64A46099B0A9909F10109D84725
:102CA000CFE60B9951F8048B98F800201046002FBE
:102CB00040F0E18072B16FF0010C0CF1010C46465E
:102CC000C44401E0664503D016F8014F002CF9D149
:102CD000A6EB080613F4806C02D0BE4228BF3E4625
:102CE00013F0020400F08781002A00F02B81BCF170
:102CF000000F00F041810B940D964A46DDE909541E
:102D00000E464F4408E02B462146D84718F8010FDD
:102D100009F1010910B14A464F45F4D131460B9CE7
:102D20000D9E002C40F00E810B918AE69AF801006E
:102D30006C287FF4DFAE9AF8020043F440730AF186
:102D40000302DAE69AF8010043F400730132D4E694
:102D50009AF80100682800F0208143F080030132D6
:102D6000CBE6672800F0E780472800F0008145287F
:102D700000F0FF800B9C04930C9B0734CDE9027399
:102D800024F007031C46DDE90931F4E802674A46EE
:102D90005846CDE900670B94FFF70AFA814650E6E2
:102DA00046280B9C08BF43F0200304930C9B073478
:102DB000CDE9027324F007031C46DDE90931F4E88C
:102DC00002674A465846CDE900670B94FFF720FC9E
:102DD000814636E64A462520099B0A9909F10109F0
:102DE000D8472EE60B9A9C0702F1040709F1010669
:102DF00040F1E6801078099B4A460A99D8470C9B17
:102E0000012B40F22C81DDE90954994432462B46CE
:102E1000214620200136D8474E45F7D10B9710E6C2
:102E20006F2800F08B8040F26581782800F00881DF
:102E30004FF00A0823F01003C44647E0002707EBD1
:102E4000870700EB4700A0F1300711F8010FA0F150
:102E50003002092AF3D98A464A1C1CE60B9C9AF8D0
:102E6000020054F8047B0AF1020A0AF101020B94F1
:102E700027EAE7770FE6002A3FF42CAF07F1FF3C83
:102E80001BE723F0100113F4806241F021013FF4AD
:102E9000D2AE0DF1480E08231020059300234A46B8
:102EA000CDE9023006915846DDE90931CDE900E669
:102EB0000497FFF727F80B948146C2E5582879D08C
:102EC000622840F051824FF00208C44613F480603B
:102ED0006DD123F00C0313F4007240F0C2800B9903
:102EE00004310D9113F4807140F02E825E060B9A2E
:102EF00040F1AA801278002A40F0DA8023F0100313
:102F0000002800F0D58011460DF1480E06930C9B69
:102F1000CDF80CC0CDE90473019100234A46029319
:102F20005846DDE90931CDF800E0FEF7EBFF0D9BD7
:102F300081460B9385E543F400631BE74FF00808D7
:102F4000C446C3E70C9B4C46B3427FF6EDAE0F463A
:102F50004B44A3EB0609DDE90965224633462946C1
:102F600020200134D8474C45F7D13946DCE643F4FC
:102F7000006343F02003FDE60F460B94DDE909549E
:102F80004A462B462146D84718F8010F09F1010996
:102F90000028F5D139460B9CC3E69AF8020043F0AD
:102FA000C0030AF10302A8E5044681461DE623F0AA
:102FB0000D0390E74FF0100843F02003C44685E767
:102FC0000C9B012B45D9DDE909544E4609F1FF3828
:102FD000984432462B46214620200136D8474645A4
:102FE000F7D10C9B324699440B9B1878DDE90931E7
:102FF000D8470B9725E50C9BB34240F2EE81CDE913
:103000000D48DDE9095488464B449E1BCDF82CC081
:103010004A462B462146202009F10109D847B145EF
:10302000F6D14146DDF838800C9BDDF82CC00D9CB4
:1030300098F800205E1C1046002A7FF458AE73E614
:103040004FF01008C44641E71D064CBF12881268B5
:1030500051E713464A461878DDE90931D847B146A9
:10306000DCE60B9C073424F007042246656852F81E
:10307000084B0B9254EA050240F02C8123F0100318
:10308000002800F0278100260DF1480E06930C9BC6
:103090004A46CDE904730023CDE900E6CDF80CC023
:1030A00002935846DDE90931FEF72CFF8146C8E45A
:1030B00013F0200F14BF412061200DF1480E764619
:1030C000A0F10A0803E020293FF420AF2246B2FB1A
:1030D000FCF40CFB1425E8B2092D00F130058ABF81
:1030E0004044E8B2C0B2624506F8010B01F10101AB
:1030F000E9D20BE723F0100269280D9240F06F81AE
:1031000013F4806204D04FF4806223F011030D9316
:103110000D9B13F4007640D10B9B03F104080D9B2B
:1031200013F4807040F09880590640F1C6800B9BE4
:1031300019780C46CB0F002900F0B98022460DF11A
:10314000480E74461646DFF8A0C201E020280FD0D2
:103150003546ACFB0621C90801EB8102A6EB420211
:103160003032092D0E4600F1010004F8012BEDD894
:103170000D9ACDE9010306920C9ACDE904720A2357
:103180004A4603935846DDE90931CDF800E0FEF7E1
:10319000B9FECDF82C80814653E40B9C073424F013
:1031A000070421460846636850F8081BDC0F0B90A3
:1031B00051EA030000F0C3800A46191E48DB13469B
:1031C0000DF1480EF4460026CDE90E94DFF8188282
:1031D00001E0202E2DD05A1842F10002A8FB02591E
:1031E00029F0030505EB9905521B1C469B1A61F15A
:1031F000000508464FF0CC3101FB03F108FB051137
:10320000A3FB08531944052305F00109A9FB033961
:103210009B180A2C03F130034FEA550570F10000AA
:103220000CF8013B06F1010645EAC1734FEA510172
:10323000CFD2DDE90E940D9B4A4606930C9BCDE957
:103240000164CDE904730A23CDF800E0039328E775
:10325000524261EB4101B2E70B9B1968CB0F002989
:1032600000F0AB8081EAE172A2EBE1720DF1480E51
:103270007046DFF874C101E0202E10D01546ACFB7B
:103280000241C90801EB8104A2EB440404F13002BD
:10329000092D00F8012B06F101060A46ECD80D9A1B
:1032A000CDE9016306920C9ACDE9047267E7002A22
:1032B0003FF445AF0DF1480E5AE713F0800F0B9B1A
:1032C00000F08180B3F9001081EAE174A4EBE174AD
:1032D000A4B22FE713F0200F14BF412261220DF199
:1032E000480E0A3ACDE90D97CDF844B0002677464E
:1032F000F3469146CDE90F3C03E0202E17D004465B
:103300000D46294642460023204605F0C9FED2B2AA
:10331000092A02F1300388BF02EB09034445DBB2FE
:1033200075F1000507F8013B06F10106E5D2DE461E
:10333000DDE90D97DDE90F3CDDF844B0A6E6002A93
:1033400047D1134611463BE70B990968A1B923F011
:10335000100388B10DF1480E06930C9BCDF80CC0FC
:10336000CDE904730192D8E513F480627FF4CBAE0B
:1033700023F010030D93CBE613F0200F14BF412070
:1033800061200DF1480E7646A0F10A0802E0202ADD
:10339000E2D02146B1FBFCF40CFB1415E8B2092D78
:1033A00000F130058ABF4044E8B2C0B2614506F87A
:1033B000010B02F10102EAD2CEE7002A3FF456AF38
:1033C0000DF1480E6BE7196881EAE174A4EBE17432
:1033D000B0E600260DF1480E2DE701362BE64FF042
:1033E0000A081346C44671E5CDCCCCCC0EB410B55A
:1033F00085B007AC54F8043B01464FF0FF3200940F
:1034000004480394FFF7FEFA05B0BDE8104003B08E
:10341000704700BF5D1E001084460CB410B584B028
:1034200006AC54F8043B0A460094614604480394F1
:10343000FFF7E8FA04B0BDE8104002B0704700BFE3
:103440005D1E00100FB410B50E4B84B006A91C68A9
:1034500051F8043B03915CB100914FF0FF3202A997
:103460000948A047012004B0BDE8104004B07047EF
:10347000184600F081F9204604B0BDE8104004B0C1
:10348000704700BF64100020A921001010B5094B3F
:1034900084B01C684CB1034600914FF0FF3203A981
:1034A0000548A047012004B010BD00F065F9204692
:1034B00004B010BD64100020A921001000BEFDE77B
:1034C000704700BF074A0346106838B106490344F5
:1034D0008B428CBF4FF0FF301360704703490846A2
:1034E0001160F3E76010002000000820E4120020C3
:1034F00008B5FFF7E3FF00BF9C46144600B50B4636
:103500000246614683B044B1054D064801940095DA
:10351000FFF798FF0120FFF7D1FF034D2C46F4E79A
:1035200094920010A49200104891001038B5064CF7
:10353000064DFEF789F8AC4204D254F8043B984794
:10354000AC42FAD338BD00BFF0900010F0900010EC
:103550000368084611461847437D2DE9F047814628
:103560000F461646002B43D0002A3BDD037D00208A
:103570004D1E014615F8012FDFF884800A2A01F15B
:1035800001040ED0A6421CD02B782146A3F10D03D6
:10359000B3FA83F315F8012F5B090A2A01F101043C
:1035A000F0D1002BEED18142A1EB000138441BDCAD
:1035B00002214046D9F800309847A64208D020465C
:1035C000E2E7864204DD311AD9F8003038449847E2
:1035D000374417F8013CA3F10D03B3FA83F35B09F9
:1035E00089F81430BDE8F087D9F800309847DFE754
:1035F0003846D9F800301146BDE8F047184700BFFB
:10360000E09400102DE9F04782B00D4692469946AD
:103610000746FDF7F3FD4FF0FF366FF000442F4AE9
:10362000821841F10003964274EB03013CBF32461D
:1036300023462B4805F030FD6B1C804603D13846ED
:1036400000F0F2FF0546274B274E1C68274BB9F1C7
:10365000000F18BF1E46B4B1BAF1000F1AD1DFF83F
:10366000909001E0246974B12368002BFAD0D9F856
:1036700000300BB19C42F5D120462A463946B0476E
:103680002469002CF0D1B8F1000F1FD1284602B0F8
:10369000BDE8F0874FF00A0ADFF8549002E0246991
:1036A000002CF0D02368002BF9D0D9F800300BB1F2
:1036B000A342F4D12A4639462046B047012220468B
:1036C0000DF107018DF807A0B047E8E7044805F0C1
:1036D000DFFC284602B0BDE8F08700BF40420F0083
:1036E000040D0020501000205135001059350010F5
:1036F00058100020F0B583B006468DF80700FDF79E
:103700007DFD4FF0FF356FF00044174A821841F1FC
:103710000003954274EB03013CBF23462A4613483D
:1037200005F0BAFC124B07461C689CB1114D01E034
:1037300024697CB12368002BFAD02B680BB19C4222
:10374000F6D1204601220DF10701FFF705FF24699C
:10375000002CEFD117B9304603B0F0BD034805F097
:1037600097FC304603B0F0BD40420F00040D00202E
:10377000501000205810002038B5044600F054FFC7
:10378000012305461A4620462946FFF73BFF084B12
:103790001C682CB163682BB198472469002CF9D1BF
:1037A000284638BD2469002CF4D1284638BD00BF16
:1037B0005010002038B5A1FB021434BB00F042F8D1
:1037C000054630B350F8042C22F00302043A242AB0
:1037D0000CD8132A0FD91B2AC0E9004412D9242A75
:1037E000C0E9024418D000F1100205E0214600F0C3
:1037F0004BFD284638BD024600232846C2E9003367
:10380000936038BD00F10802F6E700F0A1FD0C233B
:1038100003600025284638BD00F11802C0E90444C1
:10382000EAE700BF024B0146186800F00BB800BF82
:10383000700A0020024B0146186800F07FBF00BFED
:10384000700A002001F10B03162B2DE9F04F0746FB
:1038500083B023D8102900F2AF8000F09DFA102524
:1038600018230220BC4E33445C68A3F10802944242
:1038700000F080816368384623F00303D4E9021224
:103880002344CA6091605A68083442F001025A60C9
:1038900000F088FA204603B0BDE8F08F002B23F03B
:1038A0000705C0F28980A94200F2868000F074FA10
:1038B000B5F5FC7FC0F0B4816B0A00F08180042B69
:1038C00000F27E81AB0903F1390003F1380EC30029
:1038D000A14E3344A3F1080C5C68A44507D10DE068
:1038E000002AE16880F232818C450C4606D063687C
:1038F00023F003035A1B0F2AF2DD7046DFF87082B3
:103900003469444500F0E780636823F0030CACEBB6
:1039100005030F2B00F39481002BC6E9048880F285
:103920008381BCF5007FD6F804E080F029814FEA5E
:10393000DC0301224FEA5C1C013302FA0CF256F858
:1039400033104EEA020E06EBC302083AC6F804E052
:10395000C4E9021246F83340CC6083104FF0010CEA
:103960000CFA03FCF44531D81CEA0E0F07D120F005
:1039700003004FEA4C0C04301CEA0E0FF9D006EBA2
:10398000C00A8146D646DEF80C300BE05A681C4669
:10399000DB6822F00302511B0F2900F31D8100296F
:1039A00080F231819E45F1D109F101090EF1080E35
:1039B00019F0030FE7D167E10C233B60002469E7AE
:1039C0004FF4007340204FF03F0E81E7B468636806
:1039D00023F00309A9EB05030F2B02DDA94580F0B5
:1039E000A4805E4B08201B6803F1100804EB090358
:1039F000009300F0B3FC5A4AA8448346136801338D
:103A000005D008F1FF384342804403EA08084146E4
:103A1000384600F08BFCB0F1FF3F8246504A79D027
:103A2000009B83425AD9B44274D14E4B0BF1FF3CF8
:103A3000186800EB080EC3F800E01168013100F0CF
:103A40007381009AAAEB020272441A601AF007020C
:103A5000CDE9002300F04281C2F1080238469244C9
:103A60005A44D04408EA0C01521A02EA0C0B594697
:103A700000F05CFC421C019B00F06E81A0EB0A0090
:103A800000EB0B08196848F00102B442C6F808A020
:103A90005944CAF80420196032D0B9F10F0F40F22E
:103AA0000C816068A9F10C024FF0050C22F00702AE
:103AB00000F0010010430F2A606004EB0200C0E92F
:103AC00001CC1DD904F108013846009300F036FE00
:103AD000009B196814E0D6F804E03EE7214B0BF197
:103AE000FF3C196841448E461960A6D1009810EA3F
:103AF0000C0FA2D109EB0803B26843F00103536035
:103B0000194B1A688A4238BF1960184B1A688A42E2
:103B100038BF1960B468626822F00302531B0F2B90
:103B200040F3CE80954200F2CB80621945F001054A
:103B300043F00103083444F8045C3846B260536033
:103B400000F030F9204603B0BDE8F08FA2682344AE
:103B50003846D1608A6096E668060020C40E0020D0
:103B60005C060020940E0020BC0E0020C00E002039
:103B700070060020DC68A3427FF47CAE0230BDE614
:103B8000BCF5206F4FEA5C226CD3142A00F2B98096
:103B900002F15C035B32DB00F118F35808399942FB
:103BA00003D191E09B68994204D05A6822F0030245
:103BB0006245F7D8D968C4E902318C60DC60CCE694
:103BC000142B56D9542B00F2A5802B0B03F16F0058
:103BD00003F16E0EC3007BE6D4F808C038466719BF
:103BE00045F001056560CCF80C30C3F808C041F021
:103BF0000103C6E90477C7E902887B60A150083455
:103C000000F0D0F846E622443846516841F0010100
:103C1000516054F8082FD3609A6000F0C3F839E679
:103C2000E80805F108031DE6A44438460834DCF82A
:103C3000043043F00103CCF8043000F0B3F829E677
:103C4000621943F0010145F0010538466560C6E997
:103C50000422C2E90288516044F80C30083400F0B4
:103C6000A1F817E64FEA9C1202F139033832DB0063
:103C700092E703F15C0003F15B0EC30028E65AF8FB
:103C80000839534540F0858010F0030F00F1FF30F4
:103C9000F5D1736823EA0C0373604FEA4C0C0CF106
:103CA000FF329A4204D391E64FEA4C0C09F1040921
:103CB0001CEA030FF8D0484661E60123CAF8043035
:103CC000384600F06FF879E692104FF0010C0CFACC
:103CD00002F24EEA020EC6F804E06CE70AEB0802B4
:103CE000384602EA0C02ABEB020B0BEA0C0B59460E
:103CF00000F01CFB431C019B7FF4C0AEDDF800B05C
:103D0000C0E6542A13D84FEA1C3202F16F036E3218
:103D1000DB0041E7B3F5AA7F13D8EB0B03F1780082
:103D200003F1770EC300D3E5C2F800A08EE6B2F52A
:103D3000AA7F19D84FEADC3202F178037732DB0030
:103D40002AE740F25452934219D8AB0C03F17D009C
:103D500003F17C0EC300BBE5009A4FF0000B083A5C
:103D60009044A8EB0A088DE640F254539A420CD8CE
:103D70004FEA9C4202F17D037C32DB000CE74FF4FA
:103D80007E737F204FF07E0EA2E54FF47E737E227D
:103D900002E7736881E700BF014800F0CBBB00BFBA
:103DA000900E0020014800F0C7BB00BF900E00201D
:103DB000024B0A460146186800F002B8700A00205B
:103DC0002DE9F04F164683B0002900F09E800C4686
:103DD00006F10B058046FFF7DFFF54F8040C162DA3
:103DE000A4F1080920F0030762D810220023154629
:103DF000B542C0F0A280002B40F09F80974261DA6C
:103E0000DFF828B309EB0701DBF80830D1F804C06C
:103E10008B4200F097802CF001030B445B68DB07BA
:103E200068D42CF0030C07EB0C03934245DAC3076C
:103E300012D454F8083CA9EB030ADAF8043023F052
:103E4000030084440CEB070B5A4540F3FE8007EB5C
:103E5000000B5A4540F3D48031464046FFF7F2FC50
:103E60000646002800F0298154F8043CA0F108021D
:103E700023F001034B44934200F0B1803A1F242AFF
:103E800000F2DF80132A00F2B08003462246116858
:103E900019605168596092689A602146404600F066
:103EA0004DFC4046FFF77EFF304603B0BDE8F08F83
:103EB00025F007052A46EB0F9AE71F46D1E90223B2
:103EC000D3609A60781BD9F8043009EB07020F28F9
:103ED00003F001031FD83B43C9F80430536843F093
:103EE0000103536026464046FFF75CFF304603B0AF
:103EF000BDE8F08FC307AFD454F8083CA9EB030A20
:103F0000DAF8043023F00300A1E7114603B0BDE85E
:103F1000F04FFFF797BC2B4309EB050140F0010080
:103F2000C9F80430083141F8040C4046536843F0A6
:103F30000103536000F002FCD4E70C23C8F8003002
:103F40000026D3E72CF0030C05F110010CEB07035E
:103F50008B4280F29280C0073FF57EAF54F8083C58
:103F6000A9EB030ADAF8043023F0030084440CEBD5
:103F7000070399423FF76BAF3A1F5646DAF80C1029
:103F800056F8080F242AC160886000F2B080132A16
:103F900040F2AB8021681B2ACAF808106168CAF891
:103FA0000C1000F2AB8008340AF110022168116095
:103FB00061685160A16891605B1B0AEB0502404695
:103FC00043F00103CBF808205360DAF8043003F023
:103FD00001032B43CAF80430FFF7E4FE86E750F8EC
:103FE000043C23F003031F446CE723681B2A03608F
:103FF0006368436036D804F1080200F1080346E71D
:104000003A1F5646DAF80C30242A56F8081FCB60BF
:10401000996022D8132A1ED923681B2ACAF80830AF
:104020006368CAF80C303CD808340AF110032268DF
:104030001A6062685A60A2689A6034465F46D14648
:1040400040E7214600F0A0F827E7D1E902133A1F24
:10405000CB609960D5E73346E9E72146304600F06A
:1040600093F8EAE7A368242A8360E368C36028D052
:1040700004F1100200F1100309E75B1B09EB0502D4
:104080004046264643F00103CBF80820536054F81D
:10409000043C03F001032B4344F8043CFFF782FE89
:1040A00024E7A368242ACAF81030E368CAF8143059
:1040B00010D010340AF11803B9E74046FFF772FE3A
:1040C0003EE7236904F1180203616369436100F16B
:1040D0001803DCE623691834CAF8183054F8043C95
:1040E000CAF81C300AF12003A1E732465EE72146F8
:1040F0003046019300F048F8019B5DE7A168242A4F
:10410000CAF81010E168CAF8141003D010340AF18C
:1041100018024BE722691834CAF8182054F8042C06
:10412000CAF81C200AF1200240E700BF6806002000
:104130000EB430B59CB04FF401721FACADF8142032
:10414000029054F8045B069000F06EFA0B490023CD
:1041500003902A460A914FF6FF71079008480E9384
:1041600013932346ADF8161002A90068019400F0DD
:104170008DFC1CB0BDE8304003B070478541001095
:10418000700A00200020704788420ED98B188342A5
:104190000BD900EB020C002A6ED0624613F801CD59
:1041A000994202F801CDF9D170470F2A0FD8034682
:1041B00002F1FF3C002A5FD00CF1010C013B8C4462
:1041C00011F8012B614503F8012FF9D1704740EA3E
:1041D00001039B0751D1A2F1100301F1200C70B52E
:1041E00023F00F0501F1100E00F110041B09AC447F
:1041F0005EF8105C0EF1100E103444F8205C5EF88E
:104200001C5C44F81C5C5EF8185C44F8185C5EF8B2
:10421000145CE64544F8145CEAD1013312F00C0F4B
:1042200002F00F0C01EB031100EB031329D0ACF1EA
:10423000040C1C1F8E462CF003064FEA9C0C1E44F7
:104240005EF8045B44F8045FB442F9D10CF1010458
:1042500002F0030203EB840301EB840102F1FF3C53
:104260004AB10CF1010C013B8C4411F8012B614562
:1042700003F8012FF9D170BD704702F1FF3C0346EE
:104280009AE76246EAE700BF70B5860747D0541E3A
:10429000002A3ED0CAB2034601E0013C39D303F8FC
:1042A000012B9D07F9D1032C2CD9CDB20F2C05EB96
:1042B000052505EB054535D9A4F1100C03F1100EC9
:1042C0001A462CF00F064FEA1C1CB644C2E90055F2
:1042D000C2E9025510327245F8D10CF1010214F016
:1042E0000C0F04F00F0C03EB021213D0ACF104031B
:1042F00023F003030433134442F8045B9342FBD1DD
:104300000CF003042CB1C9B21C4403F8011BA342F6
:10431000FBD170BD64461346002CF4D1F9E7034687
:104320001446C0E71A46A446E0E700BF38B50022AD
:10433000064D044608462A60FFF7C4F8431C00D027
:1043400038BD2B68002BFBD0236038BD54100020F3
:10435000014B1868704700BF700A0020082802D17E
:104360004FF48050704708B5FFF7F2FF162203465E
:104370004FF0FF301A6008BD80EA010C1CF0030FFB
:1043800037D110F0030C20F0030021F0030150F8A6
:10439000042B08BF51F8043B0ED08CF0030C6FF0D7
:1043A0007F434FEACC0C23FA0CFC51F8043B42EA61
:1043B0000C0243EA0C0300BFA2F1013C9A4201BF88
:1043C0002CEA020C1CF0803F50F8042B51F8043BFF
:1043D000F2D04FEA02604FEA1222012828BFB0EB68
:1043E000036F08BF1B0AF4D003F0FF03000EC01ACE
:1043F000704710F0030F0AD010F8012B11F8013BA1
:10440000012A28BF9A42F4D0A2EB030070474DF86E
:10441000045D50F8042B01F0030521F0030151F86D
:10442000043B022D26D04DD822F07F45B5EB132F4B
:10443000A2F1013C2CEA020C0DD11CF0803C08BF1B
:1044400051F8043B0AD185EA0205B5EB036F0CD1A4
:1044500050F8042BE8E74FEA13235BE03CF07F4C75
:1044600054D10B784FEA126554E04FEA126503F01D
:10447000FF034FE04FEA0245A2F1013C4FEA154528
:104480002CEA020CB5EB134F18D11CF0803C08BF8E
:1044900051F8043B07D185EA0205B5EB034F09D17A
:1044A00050F8042BE6E75FEA0C4C2FD10B884FEA5B
:1044B00012452FE04FEA03434FEA12454FEA1343F8
:1044C00028E000BF02F0FF05B5EB136FA2F1013C3D
:1044D0002CEA020C0DD11CF0803C08BF51F8043BC3
:1044E0000AD185EA0205B5EB032F0AD150F8042B57
:1044F000E8E74FEA13630DE012F0FF0F06D051F822
:10450000043B4FEA122523F07F4303E04FF0000005
:1045100020BC704705F0FF0203F0FF00012828BF10
:10452000904204BF2D0A1B0AF4D0A2EB000020BC6D
:10453000704700BF704700BF704700BF844641EA24
:10454000000313F0030349D1403A23D30B680360FF
:104550004B6843608B688360CB68C3600B69036101
:104560004B6943618B698361CB69C3610B6A0362E9
:104570004B6A43628B6A8362CB6AC3620B6B0363D1
:104580004B6B43638B6B8363CB6BC36340304031B6
:10459000403ADBD230320BD30B6803604B68436088
:1045A0008B688360CB68C36010301031103AF3D24F
:1045B0000C3205D351F8043B40F8043B043AF9D2DD
:1045C000043208D0D2071CBF11F8013B00F8013BB0
:1045D00001D30B8803806046704700BF082A13D3BD
:1045E0008B07B1D010F00303AED0C3F10403D21A8D
:1045F000DB071CBF11F8013B00F8013BA4D331F8E5
:10460000023B20F8023B9FE7043AD9D3013A11F864
:10461000013B00F8013BF9D20B7803704B784370F3
:104620008B7883706046704720F0030110F0030020
:10463000C0F1000051F8043B00F1040C4FEACC0C2F
:104640006FF000021CBF22FA0CF213434FF0010C72
:104650004CEA0C2C4CEA0C4CA3EB0C0222EA0302B1
:1046600012EACC1204BF51F8043B0430F4D0C2F17A
:10467000000102EA0102B2FA82F2C2F11F0200EB6B
:10468000D20070472DE9F8430646DFF8AC800820D9
:104690008946FFF763FE05463046FFF77DFBD8F8F5
:1046A00008305F6827F00307A7F11104A4EB0904A1
:1046B0002C44B4FBF5F4013C05FB04F4A54208DCF2
:1046C00000213046FFF732FED8F808303B449842CC
:1046D00005D03046FFF766FB0020BDE8F883614255
:1046E0003046FFF723FE01300FD03F1B104AD8F8A9
:1046F0000830304647F001075F6013681B1B1360EA
:10470000FFF750FB0120BDE8F88300213046FFF79A
:104710000DFED8F80820831A0F2BDADD43F00103D1
:1047200003495360034B1B68C01A0860D1E700BF00
:10473000940E00205C0600206806002000297CD032
:104740002DE9F0410C468046FFF726FB764F54F8E2
:10475000043CA4F10805BE6823F001016818426812
:10476000864222F0030200F08380DE0700EB020C99
:10477000426033D454F8084CDCF8043007F1080CDC
:104780002D1B214403F00103AC68644564D0D5F8C7
:104790000CE0C4F80CE0CEF80840002B00F081805B
:1047A00041F001036B600160B1F5007F22D2CB08BC
:1047B0000122490901338A4079680A4357F83310C6
:1047C0007A6007EBC302083AC5E9021247F8335092
:1047D000CD604046BDE8F041FFF7E4BADCF80430B4
:1047E000DB072BD541F00103B1F5007F44F8043C11
:1047F0000160DCD3B1F5206F4FEA512353D28B090E
:1048000003F1390003F13802C300F818FB580838E7
:10481000984203D161E09B68984204D05A6822F024
:1048200003028A42F7D8D868C5E90230856040465D
:10483000DD60BDE8F041FFF7B5BA7047114407F1FC
:10484000080C836863453FD0C268DA60936041F02A
:1048500001036B606950A7E7002B5FD10A44D0E9E0
:104860000213CB60996042F001036B60AA50B0E77D
:10487000DB070A4407D454F8083CED1A1A44D5E97A
:104880000213CB60996042F001036B60274BBD605F
:104890001B6893429DD8264B40461968FFF7F2FEED
:1048A00097E71144CDE7142B08D9542B1DD80B0BD7
:1048B00003F16F0003F16E02C300A6E703F15C0091
:1048C00003F15B02C300A0E741F00103C7E904550F
:1048D000C5E902CC6B6069507BE70121921001FAB7
:1048E00002F279680A437A609EE7B3F5AA7F06D898
:1048F000CB0B03F1780003F17702C30085E740F2A8
:104900005452934206D88B0C03F17D0003F17C02D4
:10491000C3007AE74FF47E737E2276E741F001030D
:104920006B60016055E700BF68060020600600204C
:10493000C40E002038B54B1C1AD093891446526817
:10494000CDB223F02003A381236BA3B1636B934209
:1049500009DD23685A1E226003F8015C6368013395
:104960006360284638BD214602F08EFE0028F0D054
:104970004FF0FF35F5E7236921682BB18B4203D255
:1049800011F8013CAB420ED0234604F14000C4E9CB
:104990000E120321012220632846616303F8425F5F
:1049A000C4E9003238BD01390132C4E90012D8E748
:1049B00010B50C46096B69B104F14003994201D06E
:1049C000FFF7BCFE0020E36B2063636013B1A36BB1
:1049D000236010BDA289002123694FF0FF3042F00F
:1049E00020026160A281F3E72DE9F04F834685B094
:1049F00002FB03F00E9C0193A0B388460646D4E95F
:104A00000015A84223D94FF0000904F1400ACDE96E
:104A1000020240462A46FFF791FD2168236B584663
:104A20004F19A8441946C4F8049027603746761BEE
:104A3000DBB1534501D0FFF781FEE06BC4F8309045
:104A4000606090B1A16BB04205462160E1D332466F
:104A50004046FFF773FD0198D4E90032921B3344BE
:104A6000C4E9003205B0BDE8F08FDDE90202A38998
:104A7000284443F02003C01BA3810023B0FBF2F0C5
:104A80002269C4E9002305B0BDE8F08F2DE9F04F9D
:104A9000ADF5377D8A4602AFFB62B1F90C309D045B
:104AA000C7E9120206D44A6E43F4005322F40052BE
:104AB0008B814A660822002107F15800FFF7E4FBCA
:104AC0004FF0000EF146C7F838E0C7F81CE0C7F811
:104AD00034E0C7F840E0C7F828E09A4BD3F8E44048
:104AE00002F08CFE07F15802034607F154010092D0
:104AF000FA6CB86CA04700284BDBFB6C0246034401
:104B0000FB647B6DA3B3012852D0252B59D000281C
:104B1000E3D0FB6C01389E1ADAF804301A463418D8
:104B2000751E002A15DDDAF80030691C6A781878DD
:104B3000013390421CD1DAF804208C42CAF80030CC
:104B400002F1FF32CAF8042000F0F680002A0D4678
:104B5000E9DC5146B86CFFF72BFF0028E3D03B6C33
:104B6000002B01F01482BAF80C305A0601F10F82C2
:104B7000BB6B43B1BB6B18683B6C013300F03381F6
:104B800008B1FDF769F9386C07F53577BD46BDE822
:104B9000F08F4FF6FD730822002107F158007B6566
:104BA000FFF772FBFB6C0133FB647B6D002BDFD0E6
:104BB000654AD25C140700F1A6850122252B104618
:104BC000A7D10024FE6C25463178A1F1250306F11A
:104BD000010B552BCCD80FF2080C5CF823F000BF6A
:104BE000F35B0010714B0010714B0010714B001003
:104BF000714B0010CF5B0010714B0010714B001017
:104C0000714B0010714B0010714B00108159001056
:104C100081590010815900108159001081590010EC
:104C200081590010815900108159001081590010DC
:104C300081590010714B0010714B0010714B001026
:104C4000714B0010714B0010714B0010714B001034
:104C50009B590010714B0010F1550010394E001097
:104C60009B5900109B5900109B590010714B00106C
:104C7000714B0010714B0010714B0010294E001049
:104C8000714B0010714B00100F560010714B00104B
:104C9000714B0010714B00109D560010714B0010AD
:104CA000714B0010714B0010714B0010BD5900107A
:104CB000714B0010714B0010BB5B0010714B00106A
:104CC000714B0010714B0010714B0010714B0010B4
:104CD0009B590010714B0010F55500103D4E00100F
:104CE0009B5900109B5900109B590010A35B0010AA
:104CF000FB5B0010294E0010714B00108B5B001005
:104D00004F5B00106B5B001013560010ED5B001042
:104D1000714B0010714B0010A15600101D4E001079
:104D2000DF5B0010714B0010714B0010BD5900107B
:104D3000714B00101D4E001002354D44A5EB0609C5
:104D4000CBE600BF980B002059950010012D04F010
:104D5000100238BF012514F001037A6441F0AF81DD
:104D60007A6C002A41F07B82D7F82C80240658F810
:104D7000046B41F18B82002E3FF4FAAE2846FDF71A
:104D800047F80246002801F00281BB6B3060B3F89F
:104D900006B09C88A345C1F0C6824FF6F6737864CE
:104DA0009C4220D80834BB6BA1001868FDF742F87C
:104DB000C8B1BB6B7A6C9C801860B96B0BF10103B6
:104DC00040F82B60CB801146CDF800A02B46012285
:104DD000B86CFFF709FE0446002841F0A7823B6C3F
:104DE000002B41F0AD82BB6BDE8818687EB10024D9
:104DF000051F8146A04655F8043F01341868FDF7A9
:104E00002BF82B68A642C3F80080F4D148464FF037
:104E1000FF333B6400287FF4B4AEB4E623077FF48D
:104E2000A7AE71785E46D0E621077FF4A1AE717817
:104E300044F002045E46C8E644F00104A44B032695
:104E4000BB620A237B63DAF80430002B00F3EB83A8
:104E50005146B86CFFF7ACFD00287FF480AEC7F870
:104E60004CB0600641F1F181731E032B3FF66EAF2B
:104E7000DFE813F02902DA0130010400B86C44F4D1
:104E8000F06802F0C1FC03683B626B1EB3F5AE7FB5
:104E900040F23E876FF4AE7405EB040C40F25D15F2
:104EA00007F5B87B0023C7F80CC05C467B64FB6346
:104EB0003B63BB61C7F824B0C7E90433DAF80010DC
:104EC0000A78A2F12B034E2B50D8DFE813F03C03F5
:104ED0004F003C034F004F0080039D009D009D004C
:104EE0009D009D009D009D009D009D004F004F0076
:104EF0004F004F004F004F004F002A039A009A00C6
:104F00009A00630358034F004F0043034F004F00C4
:104F10004F004F0011034F00F1024F004F004F00B0
:104F2000EA024F004F004F00D50235034F004F00FB
:104F30004F004F004F004F004F002A039A009A0085
:104F40009A00630358034F004F0043034F004F0084
:104F50004F004F0011034F00F1024F004F004F0070
:104F6000EA024F004F004F00D502350318F4007FCE
:104F700067D0386A0378934263D183460026C7E935
:104F800001545546C24606E029609BF8000091F89E
:104F900000E086451BD11BF8010F3446C84601319D
:104FA000013609F10109002800F09D866868013882
:104FB00000286860E8DC2946B86CFFF7F9FC30B9D6
:104FC00029689BF8000091F800E08645E3D043464D
:104FD000D046AA462246BC689146D7E9085B7C6267
:104FE0002E443B623446BE6C14F8011D52463046D6
:104FF000FFF7A0FCA542F7D13B6A7C6AA3EB090945
:1050000021E018F4006F1CD0FB6B796C5B1818D191
:1050100028F4C0787B64FB6304F8012B013DDAF8C7
:10502000043009F10109013B002BCAF8043040F3B8
:105030005F83DAF800300133CAF80030002D7FF4C6
:105040003DAFD7F824B03B6B0BB128F48078FB6BF5
:10505000013B012B41F2C1807B6C013B062B40F2EE
:105060005E8618F4807F00F06E8418F4806F41F043
:10507000C78014F8011C01F0DF03452B40F05C856C
:10508000651E09F1FF395246B86CFFF753FC18F062
:1050900010037FF422AD2B707B69002B40F09487C6
:1050A00000225946B86C02F0BFF9FB6A18F0010FF4
:1050B000024605460E4603F1040400F066861B68AE
:1050C000C3E900563B6CFC6201333B6405E500BF5D
:1050D000417500106B1E44F45864B3F5AE7F40F286
:1050E000AA836FF4AE72A91840F25D1507F5B87B7C
:1050F0004FF000087A6B5E46CB46D146C246B046BA
:10510000F963D9F8000090F800C0ACF12B034D2BE7
:1051100062D8DFE813F04F0261004F0261006100C6
:10512000C802AB01AB01AB01AB01AB01AB01AB0101
:10513000550255026100610061006100610061007B
:1051400061004E004E004E004E004E004E006100C9
:105150006100610061006100610061006100610047
:105160006100610061006100610061006100610037
:105170004302610061006100610061006100610043
:1051800061004E004E004E004E004E004E00610089
:105190006100610061006100610061006100610007
:1051A00061006100610061006100610061006100F7
:1051B00043020A2A10DD24F4386406F801CBD9F83A
:1051C0000430013B002BC9F8043040F387820130E2
:1051D000C9F80000013D94D14346E105D0467A6309
:1051E000CA46D9469B4605D59E4200F213845E45C9
:1051F0003FF4BEAC14F0100211D17B6B5946BD6A6E
:105200003270B86CA847FB6AA20603F1040540F1AE
:10521000E2831B6818603B6CFD6201333B64A6EBC4
:105220000B064644B14458E4002D04F0100208BFB8
:105230004FF0FF35E00740F10083002A40F01D8564
:10524000FE6A210656F804BB40F1CC867A64BBF1B5
:10525000000F3FF48DAC8020FCF7DAFD7A6C03463A
:10526000002800F08D87B96BCBF80000CC88B1F82E
:105270000480444580F0AF850868B96B9E4640F8CD
:1052800024B04FF0200C0134FE62CC80DAF800101C
:10529000DFF8BC83097818F8016016F0080600F002
:1052A000C283002A7FF419AC1A60A3EB0E03991095
:1052B00001318C4503D9BBF1000F40F01F863B6CD8
:1052C00001333B6409E4002D04F0100308BF4FF0E4
:1052D000FF35E0073B6340F13682D7F82CB0002B56
:1052E00040F0D3845BF8043B21063B6240F18186A9
:1052F000002B3FF43DAC8020FCF78AFD804600285F
:1053000000F03E873B6A1860BB6BDC889A88944249
:1053100080F07B8518683B6AC7F82C8040F8243001
:105320000134BB6BDC8020237B62C7F818B00024FB
:10533000FE69CB467D6402F061FAA0423FF40FACF7
:10534000032E07F16009DAE9003202F1FF3213F8A7
:10535000011BCAF8042007F5B872CAF800301155CD
:1053600004F1010403D1D9F80030042B04D0082241
:1053700000214846FEF788FFCDF8009007F5B87287
:1053800023464146B86C02F0C1FB421C06463FF47E
:10539000E6AB002840F082840346C8F800000822EB
:1053A000002107F16800FB63FEF76EFFFB6BB86C32
:1053B00007F150011A46A34BD3F8E0301D4607F120
:1053C0006803A84701280CBF97F85030002307F165
:1053D0007002D35C002B00F01486032EA34400F06F
:1053E00066847B6C013B7B643B6BBBB908F10408B2
:1053F000F86A7D6AA8EB0004B5EBA40F0ED83B6AEF
:1054000063B1E900FCF716FDF862002800F0B886E9
:1054100069003B6A00EB040879621860DAF804302E
:105420000024002B40F34F847B6C002B83D1D946A2
:10543000D7F818B0FE613B6BA3B9C8F80030FB6A1F
:105440007A6AA8EB03018B1001339A4207D93C6AB0
:105450002CB104312068FCF7EDFC00B120603B6CFE
:1054600001333B64C7F82CB0FFF737BB764B24F40D
:10547000386433F91220A0E608F41863B3F5807F8E
:105480007FF4DFAD3B6B012B7FF4DBAD302328F4E1
:105490008078013D04F8013B002348F400683B6339
:1054A000BAE57B6C062B7FF4CCAD07237B64B3E5B8
:1054B00018F4006F3FF4C5AD08F4A063B3F5806F36
:1054C00007D018F4806F3FF4BCAD3B6B002B00F0AD
:1054D000938618F4007F04D13B6BB9695B1AC7E966
:1054E000044328F47868002348F4C0783B6393E5CC
:1054F000FB6B002B40F07F823B6B002B40F07B82EC
:1055000008F4E063B3F5E06F00F092857B6C012B4B
:1055100002D0042B7FF495AD7B6C0133DBB27B644E
:105520007AE518F4006F40F03B82FB6B012B7FF4AF
:1055300088AD0223FB636FE57B6C072B7FF481ADA5
:1055400008237B6468E518F0800F3FF47AAD28F0FB
:10555000800861E57B6C002B40F044823B6B002BA4
:1055600040F0408208F4E063B3F5E06F00F0688536
:105570000023D7F824B07B6400233B6367E518F46D
:10558000006F40F014827B6C022B7FF45AAD032332
:105590007B6441E518F4006F8ED035E504F4C063F8
:1055A000B3F5007F7FF418AE24F40074102244F4A5
:1055B000A06402E623067FF50FAE24F08004FCE52C
:1055C000214B33F91220082A3FF7F5AD04E618F411
:1055D000807F3FF419AD3B6B28F0800801333B63BB
:1055E000FB68002B3FF41AADFB68013BFB6016E53E
:1055F00044F0010444F040040026C7F84CB0DAF847
:105600000430002B3FF72DACD7F84CB020E444F029
:1056100001040E4B0326BB6208237B63DAF80430D7
:10562000002B7FF715ACDAF80020DFF82480137820
:1056300018F80330190740F115854346D0469A46BD
:105640000FE000BF980B0020E49400108576001056
:1056500059950010C8F8002013781AF803301B077A
:1056600017D5D8F8043009F101090132013B002BAC
:10567000C8F80430EEDC4146B86CFFF799F9002811
:1056800040F04A83D8F8002013781AF803301B073B
:10569000E7D4C246C7F84CB0FFF7E6BB44F00104BC
:1056A0000226FFF7D0BB23057FF587AD12B944F47E
:1056B00000740822610500F18A81FB6B24F4607498
:1056C00013B1013B0135FB63D9F804300AF1010A3B
:1056D000013B002BC9F804303FF779AD4946B86C5F
:1056E0007A64FFF765F97A6C00283FF473AD73E5CF
:1056F0005146B86CFFF75CF900287FF4A2AC002D8E
:105700007FF4DCAB9DE4DAF80420BC6C11E0DAF83D
:105710000030BD491A7801338A5C10077FF5DDA996
:10572000DAF8042009F10109CAF80030013ACAF890
:105730000420002AEBDC51462046FFF739F9002807
:10574000E5D0FFF7CAB93B6B002B40F05E82FB6AE5
:1057500053F8042B3B6314F080031646FA6300F001
:105760003D84002A3FF404AA2020FCF751FB0446A4
:10577000002800F00C84BB6B3060B3F80480DE8836
:10578000464580F056831868FB6B40F8263001369A
:10579000BB6BDE802023DAF8000007F1700201788D
:1057A000515C00293FF4E4A9F96B2646C7F82C9018
:1057B0009046B1F1000B994618BF4FF0010B07E07E
:1057C000DAF80000027818F80220002A00F0C682F9
:1057D000DAF80420411C013ACAE90012027804F800
:1057E000012BA21B4A457A6410D33046BBF1000F4F
:1057F0000CD04FEA49094946FCF71CFB0646002835
:1058000000F0C5837A6CFB6B84181860013D00F0D2
:10581000A582DAF80420002AD2DC5146B86CFFF7E2
:10582000C7F80028CCD0B4424B46D7F82C903FF4B0
:1058300096A9A61B98E2002158E4002A40F06A834A
:10584000FA6A14F0800452F8043B7B64FA6300F0B7
:10585000B0831C46002B3FF48BA92020FCF7D8FA1C
:105860000646002800F09383BB6B2060B3F80480E9
:10587000DC88444580F0988218687B6C4FF0010BFF
:1058800040F824300134BB6BDC802023DAF80000C0
:10589000DFF87481017818F80110090700F1998286
:1058A00042463446314698462E464B469146DAF8F3
:1058B00004200D46013ACAF80420421CCAF8002010
:1058C000027805F8012B2A1B42453A6312D3204681
:1058D000BBF1000F0ED04FEA4808FB624146FCF7CF
:1058E000A9FA0446002800F052837B6C3A6B1860DA
:1058F0008518FB6A013E0CD0DAF80420002A40F338
:10590000A783DAF800002946027819F80220120766
:10591000CDD59946291B43462E46894401310020A6
:105920008B42307008D9BBF1000F05D07C6C206829
:10593000FCF780FA00B120603B6C01333B64FB6BE9
:10594000FB62FFF7CAB818F010037FF4C6A82370F3
:1059500008F4C063B3F5806F7FF49EABBB693A6B0C
:1059600093423FF49DAB9A1A07F2C32327499C4206
:1059700028BF07F2C2242046FDF738FDFFF790BB91
:1059800014F08F0F7FF4F4A805EB850501EB4505B6
:1059900071785E46303DFFF718B90426FFF753BA19
:1059A000FB6B796C5B187FF4C0ADFFF731BBFB6B11
:1059B000796C5B187FF4E7ADFFF72ABB44F4007401
:1059C000134B0326BB6210237B63FFF73CBA24F41E
:1059D000B064FFF7F2BB210740F14C82FB6A1B6801
:1059E000187018E47B6C032B3FF496AD052B3FF445
:1059F00093ADFFF726BBFB6B022B7FF487AD032330
:105A0000FB63FFF709BB00BF59950010D49200104B
:105A10008576001016F8011C5246B86C013EFEF760
:105A200089FFFFF7E4BBC7F824B0C7F82080A84679
:105A3000D7F81CB01D46C7F830E0C7F83CC07A6400
:105A400001F0DCFEB0423FF48AA8BBF1030F07F17E
:105A50006804DAE9003202F1FF3213F8011BCAF8D8
:105A6000042007F5B872CAF80030915506F1010616
:105A700002D12368042B04D0082200212046FEF71F
:105A800003FC0094334607F5B8722946B86C02F05F
:105A90003DF8B0F1FF3F83463FF461A8002800F0D5
:105AA000118210F1020F2CD0286802F059F800285A
:105AB00040F06B83BBF1030FB14402D12368042B88
:105AC00001D008F1FF387E6C002E40F07082043562
:105AD000386BFB6B2C1AB3EBA40F00F268827A6A66
