:020000041000EA
:10000000002008205B0100101B0100101D010010E2
:100010001101001011010010110100101101001058
:100020001901001019010010190100101F01001022
:10003000110100101901001021010010230100100E
:100040001101001011010010110100101101001028
:100050001101001011010010110100101101001018
:100060001101001011010010110100101101001008
:1000700011010010110100101101001011010010F8
:1000800011010010110100101101001011010010E8
:1000900011010010110100101101001011010010D8
:1000A00011010010110100101101001011010010C8
:1000B00011010010110100101101001011010010B8
:1000C00011010010110100101101001011010010A8
:1000D0001101001011010010110100101101001098
:1000E0001101001011010010110100101101001088
:1000F0001101001011010010110100101101001078
:100100001101001011010010110100101101001067
:10011000EFF30580103800BE00BE00BE00BE00BE7A
:1001200000BE00BEF2EB8871B41D0010D41D00109B
:100130009C01001090A31AE7D3DEFFFF42012110BB
:10014000FF010000601E0000793512AB00201E493F
:10015000086006C881F3088810474FF050400068D7
:1001600008B10020F3E70DA40ECC002902D000F066
:1001700012F8F9E71549164A002000E001C1914242
:10018000FCD114498847144988471449884700BE60
:10019000FDE701C901C29A42FBD37047D41D00108C
:1001A00010010020D4020020981F00100000082039
:1001B00000000820981F00100010082000100820E0
:1001C000000000007047000008ED00E0D4020020AD
:1001D000E40400209D180010C902001095180010BA
:1001E0000F234FF0000242EC403000200021704706
:1001F0004FF0504330B55B6885B0DB0308D5012272
:100200000421102000F076F90020002105B030BD57
:100210000F234FF0010242EC403000F06BFF044628
:1002200001F0FEF84FF0FF3E6FF0004C0A4A012546
:10023000821841F1000396457CEB03014FF0000169
:100240002046064C3CBF72466346CDE9011500943A
:1002500000F054FFD3E700BFA0860100E1010010C9
:1002600030B50E2385B04FF0010242EC4030002241
:100270000421102000F03EF900F03CFF054601F09B
:10028000CFF844F620634FF0FF3C6FF00044C218F3
:1002900041F10003944574EB030138BF23464FF04E
:1002A00001014FF000042846064D38BF6246CDE9F3
:1002B0000141009500F022FF0E2344EC403005B0D0
:1002C00030BD00BFF101001008B501F0CBFB0E20DE
:1002D00000F0A2F94FF001040E2344EC44304FF03B
:1002E000000545EC40300F2000F096F90F2344EC58
:1002F000443045EC4030102000F08EF9102445ECDD
:10030000444000220121204600F0E0F801220421AF
:100310002046024B00F014F9FEE700BF6102001016
:100320004FF050412DE9F84F644AD1F800A0644BDA
:1003300052F82A700AEBCA0203EBC2084FB3002638
:10034000DFF880B1DFF88091F3080C3358F82340D0
:1003500035460836CCB114F00F0110D05BF82A20D6
:1003600005F00703EA40E8089B00D20701FA03F30F
:1003700000F18C0C03D4284649F82C30B8472409E6
:1003800005F1010501D0B542E5D3202EDCD1BDE851
:10039000F88F4C48F90801F10C0358F823303A461D
:1003A0000837002B71D013F00F0508D050F82A4001
:1003B000D440E40703D4444C8C3144F8215019094B
:1003C00063D011F00F010BD050F82A40551CEC40BF
:1003D000E60705D4EC083C4D09018C3445F824109F
:1003E000190A52D011F00F010BD050F82A40951C79
:1003F000EC40E40705D4EC08334D09028C3445F891
:100400002410190B41D011F00F0105D050F82A40EB
:10041000D51CEC40E6073CD5190C36D011F00F0185
:1004200006D0284C54F82A50141DE540ED0737D566
:10043000190D2AD011F00F0106D0224C54F82A5081
:10044000541DE540EE0732D5190E1ED011F00F01F4
:100450000CD01C4C54F82A50941DE540ED0705D4EF
:10046000194DE40809068C3445F824101B0F02F1DD
:1004700007020AD050F82A10D140C90705D4124902
:10048000D2081B078C3241F82230202F82D1BDE8E0
:10049000F88FEC080C4D09038C3445F82410BBE7A9
:1004A000094DE40809048C3445F82410C0E7064DD2
:1004B000E40809058C3445F82410C5E778040020C9
:1004C00048820240D80400200080024010B4084C4A
:1004D000C90041EA820154F8202004EB8003514016
:1004E00003F5805301F00C015DF8044B196070476F
:1004F0000480034030B44FF050444FEAD00C2468DD
:1005000000F00700800081400B4D4FEA8C000B4B40
:1005100004EBC40400EBC4000CF18C0C034445F85C
:100520002C1022B130BC03F500531960704703F55D
:100530004053196030BC704700800240488202403E
:100540002DE9F0474FF050481F4600F00703C4085C
:100550009B00D8F8005001FA03F64FEA8409B2B9BB
:10056000284B294905EBC5058C3409EBC50941F831
:10057000246043F80960D8F80040DFF898A05AF8E2
:10058000243003B3A7B34AF82470BDE8F087DFF83E
:1005900084A05AF8252002B37FB34FF050434AF8A5
:1005A00025701D68194B05EBC50509EBC505164AF5
:1005B0008C342B4442F8246001211E601520BDE8D4
:1005C000F04700F0D1B8002FDFD04AF82470152092
:1005D000BDE8F0470E4900F00BB9002FE2D015201E
:1005E0000B494AF8257000F003F9D8F80050D9E714
:1005F0001520074900F0DCF9C5E71520044900F093
:10060000D7F9CAE748B202400080024048A202403F
:10061000210300107804002030B44FF0000343ECB5
:10062000440043EC400005254FF480740B4BC2009E
:1006300053F8201003EB800081F0400102F1804369
:1006400003F5203301F0C00200F5805100F5405061
:100650000A605D60046030BC704700BF04800340E6
:100660000FB400B583B0049C074801F03FFA3CB1D9
:1006700005A92046019101F0F1F8044801F036FA8D
:10068000012001F003F900BFC01C0010381D00104C
:1006900070B58646EFF3108572B6124CD4E8CF6F72
:1006A0000120002EFAD1C4E8460F002EF6D1BFF388
:1006B0005F8F4FF0010CC80801F007030CFA03F339
:1006C0001EF800C01CEA030608D14CEA030C0EF821
:1006D00000C0C4E88F6F85F3108870BD1046FFF727
:1006E000BFFF00BF63040020044A1078431CDBB244
:1006F000182B28BF10231370704700BF680200201A
:100700004FF0E022936843F000539360704700BFBE
:100710000021044B03F12002C3E88F1F01339342F1
:10072000FAD17047580400204FF0E0234FF0803298
:10073000C3F80024C3F80424C3F80824C3F80C2425
:10074000C3F81024C3F81424C3F81824C3F81C24D5
:10075000C3F82024C3F82424C3F82824C3F82C2485
:10076000C3F8302462B67047012300F01F029340A3
:10077000400941B1800000F1604000F56140C0F8DF
:10078000803103607047024A203042F820307047C1
:1007900000E100E010B5EFF3108C72B6114BD3E816
:1007A000CF4F0122002CFAD1C3E8442F002CF6D100
:1007B000BFF35F8F0C4A103092680C4C52F8202027
:1007C000A24201D091420BD1074A926842F8201010
:1007D000BFF35F8F0022C3E88F2F8CF3108810BD0A
:1007E00000F026FF6104002000ED00E01101001080
:1007F0002DE9F04F0B4683B0EFF3108A72B6DFF8A5
:10080000AC91D9E8CF4F0121002CFAD1C9E8441F9F
:10081000002CF6D1BFF35F8F5D4991F90080B8F1EC
:10082000000FC0F2B2805B4C08EB480704EB870571
:10083000AE7910300E7058494FEA48068968009624
:1008400051F82010BF000E1B2F2E34D821F0010EBE
:100850009EF80760964209D871E00CEB4C0604EB59
:10086000860696F807B093454ED9B6469EF906C05F
:10087000BCF1000FF1DA4BF601560EF1040B043D0A
:10088000A5EB0B05C5F34A056FEAC545009F6FEA66
:10089000D5454744BB468EF80680DFF80C8104EB53
:1008A0008707AEF8045044F82B80BE8087F806C056
:1008B000FA71BB601AE0394EB14266D1AB60384B79
:1008C000EA71BA1C2244043B9B1AC3F34A036FEA41
:1008D000C3434FF421426FEAD343E2536B80FF22BC
:1008E0004BF60153AA71AB8045F001012A4B9B687E
:1008F00043F82010BFF35F8F0023C9E88F3F8AF3CE
:10090000108803B0BDE8F08FF3463BF8046F76051E
:100910000FD4761502360BEB460601966FF00706EC
:10092000F61B019F361B3E44C6F34A0646F460465A
:10093000A5E706F5FF1606F5FF561F36E9E7AB609B
:100940006FF00703EA714FF42142DB1B1B1B73445A
:10095000E253C3F34A02124B124E02372744043BC0
:100960003243DB1BAA80C3F34A030F4A33436B8035
:100970004AF6AA2173461B1B5B415943090DA97115
:10098000CEF8002045F00101B0E700F051FE00BFB5
:10099000E00400206C02002000ED00E011010010D6
:1009A0009C02002000E0FFFF014880476104002016
:1009B0002DE9F84FEFF3108772B6734CD4E8CF2FC0
:1009C0000123002AFAD1C4E8423F002AF6D1BFF33E
:1009D0005F8F6E4B00F1100E9B68DFF8C0B153F8CB
:1009E0002E205A453CD08A4247D0694D531B2F2BAD
:1009F00036D84FF0010C4609B60006F1604606F500
:100A0000614600F01F030CFA03F03368C6F880005B
:100A100000EA0308BFF35F8FEFF30583DBB299466B
:100A20006BB39E4540F0AD8022F0010CDCF808A0CD
:100A3000514509D18FE003EB430305EB8303D3F862
:100A400008A051452CD09C469CF90630002BF2DAC8
:100A5000514563D0B8F1000F1FD0C6F88001306057
:100A60004A4B9B6843F82E20BFF35F8F0023C4E8F6
:100A70008F3F87F31088BDE8F88F5A46F0E722F0E1
:100A8000010CDCF808A05145DED19CF906A06346B4
:100A9000BAF1000F09DA5A464BE0C6F88000DFE7EA
:100AA00093F906A0BAF1000F39DB0AEB4A0905EB0E
:100AB0008909D9F808104FEA4A0C996099F807108B
:100AC000D97199F906100029997141DBB9F8041020
:100AD000490504D501F5FF1101F5FF511F314915F5
:100AE00001F102094FF0040B0C2111FB0AB101EBDB
:100AF00049016FF007092944A9EB03094944C1F3EF
:100B00004A0141F460419980224BD444197805EBA5
:100B10008C0C83F800A08CF806109BE76346B9F1B3
:100B2000000F1ED1FF218CF806104BF60151ACF8D6
:100B30000410DFF860904AF6AA2199F800A083F823
:100B400006A05B1B5B415943090D89F8001081E742
:100B50004BF60151D7E79CF906A06346BAF1000FA6
:100B6000A3DA0D49DFF838C0C91A0839C1F30A35CC
:100B70006FEA05556FEA15554CEA5101D9809D8001
:100B800068E700F055FD00BF6104002000ED00E0C3
:100B90006C020020E0040020A602002011010010D9
:100BA00000F8FFFFF0B5EFF30585EDB2EFF3108C21
:100BB00072B62649D1E8CF2F0123002AFAD1C1E825
:100BC000423F002AF6D1BFF35F8F214E40F0010E65
:100BD000B4684AF6AA2354F825701E4A0446A41A9B
:100BE000644163431B0D77455BB21BD092F906400D
:100BF0009C421CD092F912409C4223D092F91E4094
:100C00009C4221D092F92A409C4208BF03240FD075
:100C1000114A0024157813708571C1E88F4F8CF349
:100C20001088F0BDB2680D4C42F82540F0E7002472
:100C300004EB440402EB8402FF2494714BF601544C
:100C40009480E5E70124F3E70224F1E76104002042
:100C500000ED00E06C020020E00400201101001013
:100C6000014B0B44036070475804002070B5104CD2
:100C7000104DAC420ED2FF26236863B1FFF734FD5E
:100C800001462046FFF7ECFFA680BFF35F8F0834D4
:100C9000AC42F1D370BDFFF727FD01462046FFF7B8
:100CA000DFFF2671BFF35F8F0834AC42E4D370BD21
:100CB000CC020020D402002040BF00200021704759
:100CC0002DE9F04F87B0EFF30583DBB2103B9A08B4
:100CD00016BF8E498E4901220D460591012103F070
:100CE000030301FA03F8C3468A4803EB820250F873
:100CF000224005F541529800039004F1080AC2F819
:100D000004800194019BB3F90860C5F83CB0002E43
:100D100076DA9B881B0400F12881019C2369EFF39C
:100D2000108272B6D3E8CF0F01210028FAD1C3E8B0
:100D3000401F0028F6D1BFF35F8F4FF6FF76A088E3
:100D40000021236900B2A680C3E88F1F82F31088B8
:100D500088422BDBA6466769A8460446BEF90830E0
:100D600004EB440607EBC602002BD446D2E902503E
:100D700013DBF146029404E037F93E309446002B31
:100D800009DB03EB430E07EBCE02D2E90241A54299
:100D900070EB0101F0DACE46029CACF8004037F966
:100DA000364027F83630002CD8DA4546019BB3F997
:100DB0000830002BC0F2D980019A03EB430352693B
:100DC000A96A02EBC303039A9E68A8180269A6EBFE
:100DD000010C521A9445DF6803D32B6A13EA0B0FF8
:100DE00000D10661019B9B79002B4DD1284600F074
:100DF0000FFBB042B94185DA40BF07B0BDE8F08FC4
:100E0000D3F8148006EB460908EBC907BB682846EF
:100E1000FC68029300F0FCFA029B9842A1412DDB92
:100E2000D7E90431022B77D001987A88B0F908000D
:100E300092B242EA0040984702460B4652EA03014A
:100E400070D0002B80F2B0800299B1EB020E64EBFF
:100E5000030C38F93930C7E902EC002B0EDB019A9C
:100E6000506903EB430200EBC202D2E90271BE45B6
:100E70007CEB01044FEA430280F2A280019B9B8835
:100E800018047FF54AAF91E74FF0000E019880F803
:100E900006E0B0F90830D446591CA7D0CDF808B008
:100EA000049502E05A1CAC462CD0426903EB430186
:100EB00002EBC105B5F802801C4618F4004F32F968
:100EC0003130EFD00569ACF80030EFF3108872B61E
:100ED000D5E8CFBF5FF00109BBF1000FF8D1C5E83D
:100EE0004B9FBBF1000FF3D1BFF35F8FB0F80290BF
:100EF000056922F831904480C5E88FEF88F31088A7
:100F00005A1CD2D1DDF808B0049D6FE700800B4079
:100F100000000B40B804002008460B690491984774
:100F2000002836D138F83930019C23812369EFF34A
:100F3000108272B6D3E8CF0F01210028FAD1C3E89E
:100F4000401F0028F6D1BFF35F8F6388216928F81E
:100F5000393000236680C1E88F3F82F31088019BFF
:100F60009B8818047FF5D9AE20E7059DD846284612
:100F700000F04EFA039CAB6A2C44216900F100405A
:100F8000C91AC31A8B4208D2206140BF07B0BDE81E
:100F9000F08F0499D1E9002350E72B6A13EA080F78
:100FA0007FF42AAF2061F0E728460493029200F014
:100FB0002FFA029A049B10EB020E43EB010C48E758
:100FC000019C029524F8083F25460BE030F93230A9
:100FD0002546002B0DDB03EB430200EBC202D2E9F6
:100FE00002715A00BE451A447CEB010100EBC204B9
:100FF000ECDA2A4628F83930019B16809B88029D3E
:1010000018047FF58AAED1E62DE9F84F324C2569F8
:101010000DB1BDE8F88FDFF8D8800321404600F01D
:10102000E5F90326C4F80C80FFF75EFB4FF0504C47
:101030002A4B267003442361DCF800300F216370D3
:10104000636961801D834FF00405A3F878504FF069
:101050000505A3F890504FF00605A3F8A8504FF0EF
:1010600007050E214FF6FF72A3F8C05008274FF076
:101070000A0E4FF00C0C4FF001090D204FF0020B3F
:101080004FF0090A4FF00B05A3F868111449A2802C
:10109000A3F808E1A3F838C1A3F85001A160A3F8B0
:1010A00048B01A80A3F8F0A0A3F82051A3F830901C
:1010B000A3F86060A3F8D8700A4B30460A49C8F814
:1010C0002070DC60FFF766FB49463046FFF74CFBBB
:1010D000064B1F64BDE8F88FB402002058040020BE
:1010E000FFFF1000B8040020C10C001000200B40CE
:1010F00000000B4000487047B4020020F8B59DF88E
:101100002070044616461D4637B900F089F986421C
:1011100065EB010100295CDB2369EFF3108772B6F0
:10112000D3E8CF1F01220029FAD1C3E8412F0029BB
:10113000F6D1BFF35F8FB4F902C063690CEB4C01C9
:10114000BCF1000F4FEAC10203EBC10138DB985A32
:101150004FF0000E60802069C0E88FEF87F31088A1
:101160000698C1E90265086107984861488801301E
:10117000C0F30E00012838BF0120488040EA0C402F
:101180002169EFF3108572B6D1E8CF7F0126002FD9
:10119000FAD1C1E8476F002FF6D1BFF35F8FA18866
:1011A0009952A4F804C02369C3E88FEF85F310882F
:1011B0000122E368217803F501538A405A60F8BDA3
:1011C00000232269C2E88F3F87F310884FF0FF3079
:1011D000F8BD3846F8BD00BF0146F0B50069EFF331
:1011E000108772B6D0E8CF5F0124002DFAD1C0E895
:1011F000454F002DF6D1BFF35F8FB1F902E04C6986
:101200000EEB4E0CBEF1000F4FEACC0504EBCC0CFC
:101210003DDB605B002648800869C0E88F6F87F37C
:101220001088BCF80200CCE902230130C0F30E00A4
:10123000012838BF0120059BACF80200CCF8103023
:10124000069B40EA0E40CCF814300B69EFF3108295
:1012500072B6D3E8CFCF0127BCF1000FF9D1C3E8B4
:101260004C7FBCF1000FF4D1BFF35F8F8B886353C9
:10127000A1F804E00B69C3E88F6F82F310880122A4
:10128000CB68097803F501538A405A60F0BD00230A
:101290000A69C2E88F3F87F310884FF0FF30F0BD36
:1012A00003464089B0EB214F37DD58690A1402EB41
:1012B000420210B500EBC2001C69EFF3108C72B64D
:1012C000D4E8CFEF0122BEF1000FF9D1C4E84E2FD0
:1012D000BEF1000FF4D1BFF35F8F428889B292B2A2
:1012E0008A4207D000221B69C3E88F2F8CF3108835
:1012F000002010BD42F40042428001210022186902
:101300009971C0E88F2F8CF310881C78DA68084632
:1013100002F50153A140596010BD0020704700BF85
:101320002DE9F04305460C4683B0EFF30586F6B28F
:1013300066B12B4B586AA04225D39B6AAB422BD295
:10134000001B18BF012003B0BDE8F083254FD7F87C
:101350000C9097F80080484600F05AF808F104080D
:1013600059F828301B1A281A64EB0101984271F1D0
:10137000000115DB1A4B5A6AA24208D220BF184B53
:10138000586AA042D9D2002003B0BDE8F0839B6A1E
:10139000AB4201D2A242F1D0012003B0BDE8F083FC
:1013A00000F03EF8854264EB01010029C1DB0E4BE1
:1013B0003846CDE900362A462346FFF70DFF011EC9
:1013C000B7DD074B5A6AA24204D39B6AAB4202D2F2
:1013D000A24200D120BF0348FFF762FFA9E700BF88
:1013E00000000B40B4020020B90C001010B4054BF3
:1013F000054C064AA04214BF1846581C5DF8044B21
:10140000FFF746B98004002000800B40D01C00107C
:101410000346416A0A46986A596A8A42FAD1704775
:10142000034B596A0A46986A596A9142FAD1704741
:1014300000000B4000EB400C4FEA8C0C0CF1804C90
:101440000CF5803CF0B51646DCF80420051FB2F51B
:10145000803F38BF4FF48032EDB238BFCCF8042063
:10146000012D2AD94FF40067254C0CF54052176026
:1014700054F82020B2B9DCF80020012D82EA46128F
:1014800002F0E0020CF5805632602AD94FF4006178
:1014900044F820304FF480330CF500521160CCF842
:1014A0000430F0BD6769B7FBF2FE0EF1010E0EEBE2
:1014B0004E0EBEF1030EFCD2DDE70129D2D103248A
:1014C0000CF540521460DCF80820D207FBD5DCF89C
:1014D00000200B4C82EA461202F0E0020CF5805626
:1014E00032600122DCF800504D4005F00305356004
:1014F00002FA01F1DCF808200A42FBD0C6E700BF7F
:1015000084040020014B53F820007047840400201D
:1015100070B4039D04682D0345EA03451B4B002C62
:10152000B3FBF1F3B2FBF3F61FDB194A194B904200
:1015300014BF4FF480424FF40042174C1A6003F579
:1015400080531A60A36832EA0303FBD1212200F51D
:1015500040530433016086601A600268002AFCDA96
:101560000822C5601A6070BC7047036803F03F032F
:101570008B42DAD18368C3F30B03B342D5D1C3687E
:1015800003F4EE23AB42D0D1EDE700BF001BB70060
:10159000008005400020024000000240012300EBD3
:1015A0004000800000F1804000F58410416003603D
:1015B000704700BF0023DB8A002242E800F252029B
:1015C00001D4102118470421184700BF034AD2F85C
:1015D0002838002BFBD0BFF35F8F704700000E4010
:1015E0000021044B044ABFF35F8F43F8041B93426E
:1015F000F9D170470C080E402C080E4010B44FF47F
:101600008D704FF42A64064A064B07491460D06077
:1016100019605368002BFCDA5DF8044B704700BF7B
:101620000080044000A0044000B0FA00704700BFF2
:1016300008B50148FFF714F8F41C001038B5054C44
:10164000054DAC4204D254F8043B9847AC42FAD35F
:1016500038BD00BF801C0010C01C001010B407482B
:10166000074C084B084A094904601A608B6832EA43
:101670000303FBD15DF8044B704700BF002002401C
:101680007F3BEFEF00300240F6FFF3030000024023
:10169000044BDB6CB3F5004F03D14FF48022024BB7
:1016A000DA64704700001150002011504FF0E02222
:1016B000044BD2F8881D0B43C2F8883D10EE30046D
:1016C000704700BF030330006FF06041044B054AD0
:1016D00019609368DB4333F06043FAD1704700BF71
:1016E000003002400000024010B545F25320FFF7E1
:1016F00061FFBDE8104003460420184710B545F2CD
:101700005320FFF757FFBDE810400346012018475C
:10171000FEF7FEBF38B51349134C144D641AA408E4
:10172000442C224628BF44222846920000F0FCF9AF
:10173000432C14D80E4AC4F144000ED005EB8403A8
:10174000410803EBC101C3E9002208339942FAD1F1
:10175000C30704D520F00100044445F82420054BBC
:101760009D6038BD00000010100100100000002036
:101770001101001000ED00E0002370B52B4C82B089
:10178000C4F88430FFF73AFF0122294BDA63636C17
:10179000012BFCD10321264A244B11639C6B012CA5
:1017A000FCD10226052521460523224A224800961F
:1017B000FFF7AEFE21462B46204A21480095FFF751
:1017C000A7FE0022042031461E4BFFF733FE2146C0
:1017D000284600221C4BFFF72DFE00220820114650
:1017E0001A4BFFF727FE002209201146174BFFF77F
:1017F00021FE002206201146134BFFF71BFE00229C
:10180000114B07201146FFF715FE0420FFF77AFE63
:1018100000240F4BA3FB0035AD0CE0B22946013488
:10182000FFF7BCFE062CF8D102B070BD00000140ED
:1018300000300140002F685900000540008C8647A9
:1018400000800540001BB70080D1F008006CDC026E
:1018500083DE1B4300B9704700F006B910B5094B91
:1018600084B01C684CB1034600914FF0FF3203A9CD
:101870000548A047012004B010BD00F037F920460C
:1018800004B010BDB40400205518001000BEFDE7E0
:10189000704700BF08B5FFF7F9FF00BF38B5064C29
:1018A000064DFFF7CBFEAC4204D254F8043B9847F8
:1018B000AC42FAD338BD00BFC01C0010C01C0010E1
:1018C0000368084611461847437D2DE9F0478146D5
:1018D0000F461646002B43D0002A3BDD037D002037
:1018E0004D1E014615F8012FDFF884800A2A01F108
:1018F00001040ED0A6421CD02B782146A3F10D0383
:10190000B3FA83F315F8012F5B090A2A01F10104E8
:10191000F0D1002BEED18142A1EB000138441BDC59
:1019200002214046D9F800309847A64208D0204608
:10193000E2E7864204DD311AD9F80030384498478E
:10194000374417F8013CA3F10D03B3FA83F35B09A5
:1019500089F81430BDE8F087D9F800309847DFE700
:101960003846D9F800301146BDE8F047184700BFA7
:10197000A81D00102DE9F04782B00D469246994609
:101980000746FFF74DFD4FF0FF366FF000442F4A3A
:10199000821841F10003964274EB03013CBF3246CA
:1019A00023462B4800F064F96B1C804603D138466F
:1019B00000F030F90546274B274E1C68274BB9F13C
:1019C000000F18BF1E46B4B1BAF1000F1AD1DFF8EC
:1019D000909001E0246974B12368002BFAD0D9F803
:1019E00000300BB19C42F5D120462A463946B0471B
:1019F0002469002CF0D1B8F1000F1FD1284602B0A5
:101A0000BDE8F0874FF00A0ADFF8549002E024693D
:101A1000002CF0D02368002BF9D0D9F800300BB19E
:101A2000A342F4D12A4639462046B0470122204637
:101A30000DF107018DF807A0B047E8E7044800F072
:101A40001BF9284602B0BDE8F08700BF40420F00F6
:101A5000CC020020AC040020C1180010C9180010EE
:101A6000B004002000207047F0B583B006468DF822
:101A70000700FFF7D5FC4FF0FF356FF00044174A21
:101A8000821841F10003954274EB03013CBF2346E9
:101A90002A46134800F0ECF8124B07461C689CB12C
:101AA000114D01E024697CB12368002BFAD02B682A
:101AB0000BB19C42F6D1204601220DF10701FFF740
:101AC00003FF2469002CEFD117B9304603B0F0BDF5
:101AD000034800F0D1F8304603B0F0BD40420F009B
:101AE000CC020020AC040020B004002038B504462D
:101AF00000F090F8012305461A4620462946FFF7D4
:101B000039FF084B1C682CB163682BB198472469D6
:101B1000002CF9D1284638BD2469002CF4D1284680
:101B200038BD00BFAC040020844641EA000313F036
:101B3000030349D1403A23D30B6803604B684360E9
:101B40008B688360CB68C3600B6903614B69436139
:101B50008B698361CB69C3610B6A03624B6A436221
:101B60008B6A8362CB6AC3620B6B03634B6B436309
:101B70008B6B8363CB6BC36340304031403ADBD225
:101B800030320BD30B6803604B6843608B68836013
:101B9000CB68C36010301031103AF3D20C3205D349
:101BA00051F8043B40F8043B043AF9D2043208D01F
:101BB000D2071CBF11F8013B00F8013B01D30B8891
:101BC00003806046704700BF082A13D38B07B1D04B
:101BD00010F00303AED0C3F10403D21ADB071CBF1D
:101BE00011F8013B00F8013BA4D331F8023B20F887
:101BF000023B9FE7043AD9D3013A11F8013B00F8C0
:101C0000013BF9D20B7803704B7843708B7883706B
:101C10006046704720F0030110F00300C0F100009F
:101C200051F8043B00F1040C4FEACC0C6FF00002B9
:101C30001CBF22FA0CF213434FF0010C4CEA0C2C9F
:101C40004CEA0C4CA3EB0C0222EA030212EACC127F
:101C500004BF51F8043B0430F4D0C2F1000102EAA1
:101C60000102B2FA82F2C2F11F0200EBD200704709
:101C70005FF800F0A90100205FF800F015020020D5
:101C8000E91600105D16001091160010791700106B
:101C9000C9160010E115001011170010CD15001025
:101CA0006D0C001015170010091000102D160010F3
:101CB000FD160010AD1600100107001029070010D6
:101CC0000A2A2A2A2050414E4943202A2A2A0A0059
:101CD000486172647761726520616C61726D202564
:101CE0006420616C726561647920636C61696D6503
:101CF000640000004861726420617373657274004F
:101D000052656C6561736500626F6F74325F773224
:101D10003571303830000000302E3100322E332E35
:101D2000310000007069636F320000005345315F7D
:101D300050355F4571335F320000000053657020FD
:101D4000203720323032360006005250D3F0754230
:101D5000001D001006005250E182887F081D00100F
:101D6000060052503ABCA911181D0010060052502E
:101D7000ABB360531C1D001006005250BBFF3CB6B5
:101D8000241D001006005250861C03022C1D00105A
:101D9000060052505422A29D3C1D001005005250D6
:0C1DA000DE65F468AC1F00100D0A0000A6
:081DAC007CFDFF7F0100000037
:101DB400481D0010541D0010601D00106C1D001003
:101DC400781D0010841D0010901D00109C1D001033
:101DD4004FF050412DE9F0474FF00008044691467A
:101DE4009A461F4D1F4E0F682068EFF3108372B69A
:101DF400D0E8CF1F01220029FAD1C0E8412F0029E1
:101E0400F6D1BFF35F8F94F90420002A1EDB95F806
:101E140000C022685FFA8CFCC2E88F8F20BF83F376
:101E240010882B7863450AD0736A9A45DCD8B26A65
:101E34004A4501D29A45D7D00020BDE8F0874846EC
:101E4400514600F06DF80028CED0F5E70022216855
:101E54002771C1E88F2F83F310880120BDE8F08734
:101E6400E104002000000B4030B501460468EFF3A4
:101E7400108C72B6D4E8CFEF0125BEF1000FF9D172
:101E8400C4E84E5FBEF1000FF4D1BFF35F8F90F949
:101E94000440002C11DB00210568C5E88F1F8CF37A
:101EA40010884FF0504C9CF900C0A44501D108465D
:101EB40030BDBDE83040FFF78BBF4FF050400068A5
:101EC40000230A680871C2E88F3F8CF31088012050
:101ED40030BD00BF0368EFF3108172B6D3E8CFCFF3
:101EE4000122BCF1000FF9D1C3E84C2FBCF1000F63
:101EF400F4D1BFF35F8F4FF0FF0C074A80F804C0A2
:101F040013780133DBB2137000230268C2E88F3FF9
:101F140081F3108840BF7047E104002000000000F6
:101F24005FF800F021130010100000000000000012
:101F3400000001000000000000000000000002009A
:101F4400000000000000000000000300000000008A
:101F5400000000000000FF000000000001B5486818
:101F640001318E460047704609380149884701BD52
:101F7400A50B00100000000000000000000000009D
:101F84000000000000000000D80200200000000053
:041F94000000000049
:101F9800D3DEFFFFFE010000FF010000A0E1FFFF0C
:041FA800793512ABCA
:040000051000014D99
:00000001FF
