:020000041000EA
:10000000002008205B0100101B0100101D010010E2
:100010001101001011010010110100101101001058
:100020001901001019010010190100101F01001022
:10003000110100101901001021010010230100100E
:100040001101001011010010110100101101001028
:100050001101001011010010110100101101001018
:100060001101001011010010110100101101001008
:1000700011010010110100101101001011010010F8
:1000800011010010110100101101001011010010E8
:1000900011010010110100101101001011010010D8
:1000A00011010010110100101101001011010010C8
:1000B00011010010110100101101001011010010B8
:1000C00011010010110100101101001011010010A8
:1000D0001101001011010010110100101101001098
:1000E0001101001011010010110100101101001088
:1000F0001101001011010010110100101101001078
:100100001101001011010010110100101101001067
:10011000EFF30580103800BE00BE00BE00BE00BE7A
:1001200000BE00BEF2EB88717443001098430010CB
:100130009C01001090A31AE7D3DEFFFF42012110BB
:10014000FF01000034500000793512AB00201E4939
:10015000086006C881F3088810474FF050400068D7
:1001600008B10020F3E70DA40ECC002902D000F066
:1001700012F8F9E71549164A002000E001C1914242
:10018000FCD114498847144988471449884700BE60
:10019000FDE701C901C29A42FBD3704798430010A2
:1001A00010010020E40E00206C5100100000082017
:1001B000000008206C5100100010082000100820DA
:1001C000000000007047000008ED00E0E40E002091
:1001D0002C180020A5170010E10100109D17001039
:1001E00010B501F0DBFB0221002000F033F8022102
:1001F000012000F02FF84FF4E131154800F03AFFEC
:10020000002301220821124800F0B6FF0121104806
:1002100000F0EAFF0E4C002001F0C2FB821C10D15E
:10022000A369D906F7D4A369DA06FCD42068C0B262
:1002300001F0FCFBA369DB06EDD4A369DA06F2D476
:10024000F4E7A3699B06FCD4C0B22060E8E700BFD6
:100250000000074010B44FF480740C4B53F820207A
:1002600003EB8003C00082F0400200F1804003F500
:10027000805C02F0C00200F5203003F54053CCF85A
:10028000002041601C605DF8044B7047048003400F
:100290000FB400B583B0049C074801F009FC3CB1E1
:1002A00005A92046019101F05DFA044801F000FC27
:1002B000012001F06FFA00BF14400010F44000105C
:1002C00070B58646EFF3108572B6124CD4E8CF6F46
:1002D0000120002EFAD1C4E8460F002EF6D1BFF35C
:1002E0005F8F4FF0010CC80801F007030CFA03F30D
:1002F0001EF800C01CEA030608D14CEA030C0EF8F5
:1003000000C0C4E88F6F85F3108870BD1046FFF7FA
:10031000BFFF00BF1F120020F8B5EFF3108572B6C3
:10032000234CD4E8CF7F0126002FFAD1C4E8476FD1
:10033000002FF6D1BFF35F8F9A4227D80126D70846
:1003400010F807E002F0070C06FA0CFC1EEA0C0F8E
:1003500000EBD2070DD125E04FEAD20E10F80EE0E7
:1003600002F0070C06FA0CFC1EEA0C0F00EBD20799
:1003700018D001329342EFD24FF0FF300023C4E88F
:100380008F3F85F31088984207DBF8BD0023C4E84F
:100390008F3F85F310884FF0FF300029F5D0069885
:1003A000FFF776FF4EEA0C0E104687F800E0E5E70F
:1003B0001F120020044A1078431CDBB2182B28BF00
:1003C00010231370704700BF280E002010B5054C95
:1003D00082B001461F23182200940348FFF79CFFB8
:1003E00002B010BD24400010641300204FF0E02242
:1003F000936843F000539360704700BF0021044BA3
:1004000003F12002C3E88F1F01339342FAD17047F2
:10041000141200204FF0E0234FF08032C3F8002484
:10042000C3F80424C3F80824C3F80C24C3F8102428
:10043000C3F81424C3F81824C3F81C24C3F82024D8
:10044000C3F82424C3F82824C3F82C24C3F8302488
:1004500062B67047012300F01F029340400941B18A
:10046000800000F1604000F56140C0F88031036019
:100470007047024A203042F82030704700E100E027
:100480000123064A410952F8212000F01F00834051
:10049000134214BF01200020704700BF00E100E0BC
:1004A00001224309034900F01F008240403341F814
:1004B0002320704700E100E0054A10309268054BA8
:1004C00052F82000C01A47288CBF00200120704736
:1004D00000ED00E02C0E002010B5EFF3108C72B68A
:1004E000114BD3E8CF4F0122002CFAD1C3E8442F9F
:1004F000002CF6D1BFF35F8F0C4A103092680C4C81
:1005000052F82020A24201D091420BD1074A9268B2
:1005100042F82010BFF35F8F0022C3E88F2F8CF3C7
:10052000108810BD01F008F81D12002000ED00E059
:10053000110100102DE9F04F0B4683B0EFF3108A44
:1005400072B6DFF8AC91D9E8CF4F0121002CFAD177
:10055000C9E8441F002CF6D1BFF35F8F5D4991F9C4
:100560000080B8F1000FC0F2B2805B4C08EB480786
:1005700004EB8705AE7910300E7058494FEA4806F3
:100580008968009651F82010BF000E1B472E34D802
:1005900021F0010E9EF80760964209D871E00CEB3D
:1005A0004C0604EB860696F807B093454ED9B6463E
:1005B0009EF906C0BCF1000FF1DA4BF601560EF1C0
:1005C000040B043DA5EB0B05C5F34A056FEAC545D1
:1005D000009F6FEAD5454744BB468EF80680DFF89A
:1005E0000C8104EB8707AEF8045044F82B80BE80E2
:1005F00087F806C0FA71BB601AE0394EB14266D185
:10060000AB60384BEA71BA1C2244043B9B1AC3F31B
:100610004A036FEAC3434FF421426FEAD343E253E4
:100620006B80FF224BF60153AA71AB8045F00101AC
:100630002A4B9B6843F82010BFF35F8F0023C9E863
:100640008F3F8AF3108803B0BDE8F08FF3463BF884
:10065000046F76050FD4761502360BEB460601962D
:100660006FF00706F61B019F361B3E44C6F34A0691
:1006700046F46046A5E706F5FF1606F5FF561F3659
:10068000E9E7AB606FF00703EA714FF42142DB1B2F
:100690001B1B7344E253C3F34A02124B124E023740
:1006A0002744043B3243DB1BAA80C3F34A030F4AAF
:1006B00033436B804AF6AA2173461B1B5B415943A7
:1006C000090DA971CEF8002045F00101B0E700F056
:1006D00033FF00BF241800202C0E002000ED00E0A6
:1006E00011010010740E002000E0FFFF0148804758
:1006F0001D120020F0B5EFF30585EDB2EFF3108C7D
:1007000072B62C49D1E8CF2F0123002AFAD1C1E8D3
:10071000423F002AF6D1BFF35F8F274E40F0010E13
:10072000B4684AF6AA2354F82570244A0446A41A49
:10073000644163431B0D77455BB223D092F90640B9
:100740009C4224D092F912409C422BD092F91E4038
:100750009C4229D092F92A409C4227D092F93640F7
:100760009C4225D092F942409C4208BF05240FD0FC
:10077000134A0024157813708571C1E88F4F8CF3EC
:100780001088F0BDB2680F4C42F82540F0E7002415
:1007900004EB440402EB8402FF2494714BF60154F1
:1007A0009480E5E70124F3E70224F1E70324EFE76F
:1007B0000424EDE71D12002000ED00E02C0E0020C7
:1007C000241800201101001010B5074C82B001461A
:1007D0000523002200940548FFF79EFD0028A8BFCE
:1007E000C0F1330002B010BD4040001029180020B5
:1007F000014B0B44036070471412002070B5104C7D
:10080000104DAC420ED2FF26236863B1FFF7D2FD34
:1008100001462046FFF7ECFFA680BFF35F8F083448
:10082000AC42F1D370BDFFF7C5FD01462046FFF78E
:10083000DFFF2671BFF35F8F0834AC42E4D370BD95
:10084000DC0E0020E40E002010B50446FFF7B2FDD8
:1008500001462046FFF7CCFFFF232371BFF35F8FD4
:1008600010BD00BF10B504460120FFF7AFFD034BDC
:1008700003442360BFF35F8F10BD00BF141200203C
:10088000024B0B440360BFF35F8F704714120020CC
:1008900040BF0020002170472DE9F04F87B0EFF3F3
:1008A0000583DBB2103B9A0816BF8E498E490122A0
:1008B0000D460591012103F0030301FA03F8C34635
:1008C0008A4803EB820250F8224005F54152980015
:1008D000039004F1080AC2F804800194019BB3F963
:1008E0000860C5F83CB0002E76DA9B881B0400F146
:1008F0002881019C2369EFF3108272B6D3E8CF0FF1
:1009000001210028FAD1C3E8401F0028F6D1BFF327
:100910005F8F4FF6FF76A0880021236900B2A68082
:10092000C3E88F1F82F3108888422BDBA6466769D5
:10093000A8460446BEF9083004EB440607EBC6029D
:10094000002BD446D2E9025013DBF146029404E0B6
:1009500037F93E309446002B09DB03EB430E07EBDF
:10096000CE02D2E90241A54270EB0101F0DACE4697
:10097000029CACF8004037F9364027F83630002C9E
:10098000D8DA4546019BB3F90830002BC0F2D98074
:10099000019A03EB43035269A96A02EBC303039A6A
:1009A0009E68A8180269A6EB010C521A9445DF68EC
:1009B00003D32B6A13EA0B0F00D10661019B9B79CD
:1009C000002B4DD1284600F011FBB042B94185DA29
:1009D00040BF07B0BDE8F08FD3F8148006EB46099E
:1009E00008EBC907BB682846FC68029300F0FEFAD2
:1009F000029B9842A1412DDBD7E90431022B77D02D
:100A000001987A88B0F9080092B242EA004098470B
:100A100002460B4652EA030170D0002B80F2B080F0
:100A20000299B1EB020E64EB030C38F93930C7E9D7
:100A300002EC002B0EDB019A506903EB430200EB42
:100A4000C202D2E90271BE457CEB01044FEA4302C7
:100A500080F2A280019B9B8818047FF54AAF91E742
:100A60004FF0000E019880F806E0B0F90830D44647
:100A7000591CA7D0CDF808B0049502E05A1CAC462A
:100A80002CD0426903EB430102EBC105B5F80280AB
:100A90001C4618F4004F32F93130EFD00569ACF83C
:100AA0000030EFF3108872B6D5E8CFBF5FF00109D0
:100AB000BBF1000FF8D1C5E84B9FBBF1000FF3D19C
:100AC000BFF35F8FB0F80290056922F8319044803F
:100AD000C5E88FEF88F310885A1CD2D1DDF808B032
:100AE000049D6FE700800B4000000B40DC170020E6
:100AF00008460B6904919847002836D138F83930F8
:100B0000019C23812369EFF3108272B6D3E8CF0FE3
:100B100001210028FAD1C3E8401F0028F6D1BFF315
:100B20005F8F6388216928F8393000236680C1E827
:100B30008F3F82F31088019B9B8818047FF5D9AE04
:100B400020E7059DD846284600F050FA039CAB6A82
:100B50002C44216900F10040C91AC31A8B4208D203
:100B6000206140BF07B0BDE8F08F0499D1E90023B0
:100B700050E72B6A13EA080F7FF42AAF2061F0E7F1
:100B800028460493029200F031FA029A049B10EB7B
:100B9000020E43EB010C48E7019C029524F8083F44
:100BA00025460BE030F932302546002B0DDB03EBF8
:100BB000430200EBC202D2E902715A00BE451A4458
:100BC0007CEB010100EBC204ECDA2A4628F839304C
:100BD000019B16809B88029D18047FF58AAED1E6A2
:100BE0002DE9F84F324C25690DB1BDE8F88FDFF8DB
:100BF000D8800321404600F0E7F90326C4F80C80B2
:100C0000FFF7D8FB4FF0504C2A4B2670034423616A
:100C1000DCF800300F216370636961801D834FF041
:100C20000405A3F878504FF00505A3F890504FF055
:100C30000605A3F8A8504FF007050E214FF6FF72E6
:100C4000A3F8C05008274FF00A0E4FF00C0C4FF0DD
:100C500001090D204FF0020B4FF0090A4FF00B0570
:100C6000A3F868111449A280A3F808E1A3F838C1D9
:100C7000A3F85001A160A3F848B01A80A3F8F0A02F
:100C8000A3F82051A3F83090A3F86060A3F8D870BF
:100C90000A4B30460A49C8F82070DC60FFF71CFC9C
:100CA00049463046FFF7D6FB064B1F64BDE8F88F78
:100CB0008C0E002014120020FFFF1000DC17002013
:100CC0009908001000200B4000000B4000487047BE
:100CD0008C0E0020F8B59DF82070044616461D467F
:100CE00037B900F08BF9864265EB010100295CDB26
:100CF0002369EFF3108772B6D3E8CF1F01220029D2
:100D0000FAD1C3E8412F0029F6D1BFF35F8FB4F9C0
:100D100002C063690CEB4C01BCF1000F4FEAC10249
:100D200003EBC10138DB985A4FF0000E6080206958
:100D3000C0E88FEF87F310880698C1E90265086163
:100D40000798486148880130C0F30E00012838BF79
:100D50000120488040EA0C402169EFF3108572B60B
:100D6000D1E8CF7F0126002FFAD1C1E8476F002FCD
:100D7000F6D1BFF35F8FA1889952A4F804C023690C
:100D8000C3E88FEF85F310880122E368217803F52B
:100D900001538A405A60F8BD00232269C2E88F3FA0
:100DA00087F310884FF0FF30F8BD3846F8BD00BF1C
:100DB0000146F0B50069EFF3108772B6D0E8CF5F57
:100DC0000124002DFAD1C0E8454F002DF6D1BFF324
:100DD0005F8FB1F902E04C690EEB4E0CBEF1000FD3
:100DE0004FEACC0504EBCC0C3DDB605B0026488071
:100DF0000869C0E88F6F87F31088BCF80200CCE95F
:100E000002230130C0F30E00012838BF0120059BEA
:100E1000ACF80200CCF81030069B40EA0E40CCF84B
:100E200014300B69EFF3108272B6D3E8CFCF0127ED
:100E3000BCF1000FF9D1C3E84C7FBCF1000FF4D135
:100E4000BFF35F8F8B886353A1F804E00B69C3E89D
:100E50008F6F82F310880122CB68097803F5015364
:100E60008A405A60F0BD00230A69C2E88F3F87F3C9
:100E700010884FF0FF30F0BD03464089B0EB214FA2
:100E800037DD58690A1402EB420210B500EBC200CC
:100E90001C69EFF3108C72B6D4E8CFEF0122BEF1DB
:100EA000000FF9D1C4E84E2FBEF1000FF4D1BFF30B
:100EB0005F8F428889B292B28A4207D000221B69B2
:100EC000C3E88F2F8CF31088002010BD42F400423D
:100ED00042800121002218699971C0E88F2F8CF39C
:100EE00010881C78DA68084602F50153A140596061
:100EF00010BD0020704700BF407870472DE9F043D7
:100F000005460C4683B0EFF30586F6B266B12B4B6F
:100F1000586AA04225D39B6AAB422BD2001B18BF54
:100F2000012003B0BDE8F083254FD7F80C9097F867
:100F30000080484600F05AF808F1040859F82830B3
:100F40001B1A281A64EB0101984271F1000115DBAC
:100F50001A4B5A6AA24208D220BF184B586AA042C4
:100F6000D9D2002003B0BDE8F0839B6AAB4201D226
:100F7000A242F1D0012003B0BDE8F08300F03EF8BA
:100F8000854264EB01010029C1DB0E4B3846CDE9F7
:100F900000362A462346FFF70BFF011EB7DD074B3D
:100FA0005A6AA24204D39B6AAB4202D2A24200D147
:100FB00020BF0348FFF760FFA9E700BF00000B4018
:100FC0008C0E00209108001010B4054B054C064A09
:100FD000A04214BF1846581C5DF8044BFFF770B9C7
:100FE0006813002000800B405C4000100346416AFB
:100FF0000A46986A596A8A42FAD17047034B596A7D
:101000000A46986A596A9142FAD1704700000B402B
:1010100010B4174A536A9C46946A536A6345FAD1DE
:10102000001959414FF0000228BF01220346CAB1FE
:101030000F4B596A4B1C08BF0B4608D04FF0FF31CD
:101040000B460B48426A8A42FCD38A4207D1084ABF
:1010500002E0506A884202D1906A9842F9D35DF862
:10106000044B7047024A526A9142EAD8EDE700BF4A
:1010700000000B40F8B5054606200E4600F048F982
:10108000002842D0354A3648954214BF4FF080625E
:101090004FF00062334B344902601A608C6832EAC8
:1010A0000404FBD12D4B4FF48071EB1AB3FA83F398
:1010B0002E4A5B09062022F8131000F029F9C3001C
:1010C000B3FBF6F30133DA0920D14026012169622E
:1010D000AA622F6BFB0722D42B46002253F82C1F49
:1010E000062003F5805422602F6300F011F940F2CE
:1010F000013103228000B0FBF6F0EB6A83F070034D
:1011000003F07E0323602963AA64F8BD4FF6FE71E5
:101110008A421BD922464FF6FF71154ED7E740F29F
:10112000013205F540531A636B6AAC6A062004EB82
:10113000831400F0EDF80F4BA402A3FB0023DB0A9D
:101140000021B4FBF3F0FFF763FFC5E7C3F34503EA
:10115000114603EB82161A46B9E700BF008007402C
:101160000020024000300240000002400C18002025
:10117000C0FF3F00757B2B8F013A0539D200F8B5CF
:10118000054642EA411443B1A3F10103B3FA83F3E4
:101190005B0944EA830343F002042E6BF3070AD48D
:1011A0002B4653F82C2F624002F06E0203F5805359
:1011B0001A602E63F8BD40F2013205F540531A6300
:1011C0006B6AAF6A062007EB831700F0A1F8054BA6
:1011D000BF02A3FB0030C00A0021B7FBF0F0FFF70D
:1011E00017FFDDE7757B2B8FF8B5066B0546F30718
:1011F0004FEA01140AD42B4653F82C2F544004F024
:10120000100403F580531C602E63F8BD40F20132D8
:1012100000F540531A636B6AAF6A062007EB831729
:1012200000F076F8054BBF02A3FB0030C00A002196
:10123000B7FBF0F0FFF7ECFEDDE700BF757B2B8F0F
:1012400000EB400C4FEA8C0C0CF1804C0CF5803C10
:10125000F0B51646DCF80420051FB2F5803F38BF14
:101260004FF48032EDB238BFCCF80420012D2AD9DA
:101270004FF40067254C0CF54052176054F82020BD
:10128000B2B9DCF80020012D82EA461202F0E00239
:101290000CF5805632602AD94FF4006144F82030B2
:1012A0004FF480330CF500521160CCF80430F0BDDF
:1012B0006769B7FBF2FE0EF1010E0EEB4E0EBEF1AA
:1012C000030EFCD2DDE70129D2D103240CF54052F4
:1012D0001460DCF80820D207FBD5DCF800200B4CAA
:1012E00082EA461202F0E0020CF5805632600122DA
:1012F000DCF800504D4005F00305356002FA01F1BD
:10130000DCF808200A42FBD0C6E700BF6C130020BF
:10131000014B53F8200070476C13002070B4039DFC
:1013200004682D0345EA03451B4B002CB3FBF1F386
:10133000B2FBF3F61FDB194A194B904214BF4FF46E
:1013400080424FF40042174C1A6003F580531A6034
:10135000A36832EA0303FBD1212200F54053043392
:10136000016086601A600268002AFCDA0822C56003
:101370001A6070BC7047036803F03F038B42DAD1F8
:101380008368C3F30B03B342D5D1C36803F4EE23E0
:10139000AB42D0D1EDE700BF001BB7000080054095
:1013A000002002400000024030B44FF080441C4B4B
:1013B0001C60E0B11B4CA3F54053DC611A4C40F0BB
:1013C000010044401C62596298624FF080454FF022
:1013D000E061134B1548164C1D60846019604AB9D2
:1013E00030BC4FF00042A3F580531A607047114B98
:1013F000D861EAE74FF47A7303FB02F2B2F1807F1F
:101400002ABF6FF07F4313461A464FF080410A4CC3
:1014100008482360094B426030BC1960704700BF28
:1014200000B00D40D3C007B02D3FF84F00A00140E1
:10143000F3FFFF0100800D40CC17002000A00D40FD
:10144000012300EB4000800000F1804000F5841093
:1014500041600360704700BF002370B5DB8A04461B
:101460000D461646002242E800F2520254BF1021F7
:10147000042144F252209847864633462A462046A5
:10148000F446BDE870400A21604700BF0023DB8AB4
:10149000002242E800F2520201D410211847042130
:1014A000184700BF08B51346021E02DB5BB141F0CE
:1014B00030018B0603D50023DB7C022B06D04FF4D2
:1014C0008170FFF7C9FF41F02001F2E74FF49170FE
:1014D000FFF7C2FF034AD2F82838002BFBD0BFF336
:1014E0005F8F704700000E400021044B044ABFF399
:1014F0005F8F43F8041B9342F9D170470C080E40EC
:101500002C080E4010B44FF48D704FF42A64064A34
:10151000064B07491460D06019605368002BFCDA51
:101520005DF8044B704700BF0080044000A00440F9
:1015300000B0FA00704700BF08B50148FEF7A8FEEA
:101540008040001038B5054C054DAC4204D254F82B
:10155000043B9847AC42FAD338BD00BFD03F0010DF
:101560001040001010B40748074C084B084A0949BE
:1015700004601A608B6832EA0303FBD15DF8044B08
:10158000704700BF002002407F3BEFEF0030024079
:10159000F6FFF30300000240044BDB6CB3F5004F91
:1015A00003D14FF48022024BDA64704700001150DF
:1015B000002011504FF0E022044BD2F8881D0B435D
:1015C000C2F8883D10EE3004704700BF03033000BE
:1015D0006FF06041044B054A19609368DB4333F0B8
:1015E0006043FAD1704700BF003002400000024063
:1015F00010B545F25320FFF749FFBDE81040034600
:101600000420184710B545F25320FFF73FFFBDE80F
:101610001040034601201847FEF7F0BE38B51349C5
:10162000134C144D641AA408442C224628BF4422AB
:101630002846920002F004FC432C14D80E4AC4F150
:1016400044000ED005EB8403410803EBC101C3E95C
:10165000002208339942FAD1C30704D520F00100D3
:10166000044445F82420054B9D6038BD000000105F
:1016700010010010000000201101001000ED00E03A
:10168000002370B52B4C82B0C4F88430FFF73AFFCA
:101690000122294BDA63636C012BFCD10321264A1A
:1016A000244B11639C6B012CFCD10226052521469D
:1016B0000523224A22480096FFF730FE21462B469A
:1016C000204A21480095FFF729FE002204203146D8
:1016D0001E4BFFF7B5FD2146284600221C4BFFF7A5
:1016E000AFFD0022082011461A4BFFF7A9FD00228A
:1016F00009201146174BFFF7A3FD002206201146D3
:10170000134BFFF79DFD0022114B07201146FFF7F9
:1017100097FD0420FFF7FCFD00240F4BA3FB0035D1
:10172000AD0CE0B229460134FFF78AFE062CF8D151
:1017300002B070BD0000014000300140002F685928
:1017400000000540008C864700800540001BB70064
:1017500080D1F008006CDC0283DE1B4300B97047C7
:1017600000F064B910B5094B84B01C684CB1034655
:1017700000914FF0FF3203A90548A047012004B0B3
:1017800010BD00F095F9204604B010BDC817002028
:101790005D17001000BEFDE7704700BF08B5FFF7FA
:1017A000F9FF00BF38B5064C064DFFF7CBFEAC4243
:1017B00004D254F8043B9847AC42FAD338BD00BF7A
:1017C00010400010144000100368084611461847E6
:1017D000437D2DE9F04781460F461646002B43D046
:1017E000002A3BDD037D00204D1E014615F8012F28
:1017F000DFF884800A2A01F101040ED0A6421CD031
:101800002B782146A3F10D03B3FA83F315F8012FCA
:101810005B090A2A01F10104F0D1002BEED18142CB
:10182000A1EB000138441BDC02214046D9F800300E
:101830009847A64208D02046E2E7864204DD311AE6
:10184000D9F8003038449847374417F8013CA3F1E1
:101850000D03B3FA83F35B0989F81430BDE8F08710
:10186000D9F800309847DFE73846D9F800301146FC
:10187000BDE8F047184700BFD04100102DE9F04700
:1018800082B00D46924699460746FFF7B7FB4FF0E8
:10189000FF366FF000442F4A821841F10003964250
:1018A00074EB03013CBF324623462B4802F074FB25
:1018B0006B1C804603D1384602F038FB0546274BA7
:1018C000274E1C68274BB9F1000F18BF1E46B4B154
:1018D000BAF1000F1AD1DFF8909001E0246974B1D9
:1018E0002368002BFAD0D9F800300BB19C42F5D117
:1018F00020462A463946B0472469002CF0D1B8F179
:10190000000F1FD1284602B0BDE8F0874FF00A0A49
:10191000DFF8549002E02469002CF0D02368002BFB
:10192000F9D0D9F800300BB1A342F4D12A46394698
:101930002046B047012220460DF107018DF807A08F
:10194000B047E8E7044802F03FFB284602B0BDE894
:10195000F08700BF40420F00DC0E0020BC130020C7
:10196000C9170010D1170010C41300200A4A1368C9
:101970004BB1834202D109E0984207D003F1100233
:101980001B69002BF8D101B1106070470029FCD110
:101990000369136001617047BC13002000F042BA74
:1019A0002DE9F04182B00646FFF728FB4FF0FF32E9
:1019B0006FF00043361841F10007B24273EB0701A4
:1019C0003CBF16461F46DFF86080154DD8F8004032
:1019D00014B912E0246984B12B680BB19C42F9D18F
:1019E000A368002BF6D0012101A898470028F1DD5B
:1019F0009DF8040002B0BDE8F0810A4B5A6A974294
:101A000009D89B6AB34204D36FF0010002B0BDE86D
:101A1000F0819742F8D101200021FFF7F9FAD5E7CC
:101A2000C413002000000B40BC130020F0B583B0AD
:101A300006468DF80700FFF7E1FA4FF0FF356FF02B
:101A40000044174A821841F10003954274EB0301E8
:101A50003CBF23462A46134802F09EFA124B074623
:101A60001C689CB1114D01E024697CB12368002BF6
:101A7000FAD02B680BB19C42F6D1204601220DF121
:101A80000701FFF7A5FE2469002CEFD117B93046F6
:101A900003B0F0BD034802F097FA304603B0F0BD42
:101AA00040420F00DC0E0020BC130020C4130020B5
:101AB00038B5044602F03AFA012305461A46204694
:101AC0002946FFF7DBFE084B1C682CB163682BB17D
:101AD00098472469002CF9D1284638BD2469002C88
:101AE000F4D1284638BD00BFBC130020024A034B86
:101AF00010601960704700BF5C1300206013002065
:101B0000184B70B51A68002A28D0EFF3108172B60E
:101B1000D2E8CF4F0120002CFAD1C2E8440F002CAC
:101B2000F6D1BFF35F8F00220F4C18685960227006
:101B3000C0E88F2F81F31088002400250B4E3078E9
:101B4000FEF79EFC20B9002400252046294670BDE2
:101B50003078FEF7A5FC2046294670BD4FF47A7414
:101B60000025EBE7D41700202818002027180020B4
:101B7000014B1878FEF794BC2718002038B50446AE
:101B800000200D4601F062FBA8B3002001F074FBB9
:101B900088B3FFF733FA4FF0FF3E6FF0004C174A5F
:101BA000821841F1000396457CEB03013CBF72466D
:101BB0006346134802F0F0F9E8B1002001F046FB5B
:101BC00058B900214FF0FF3000F07EFD6FF00204A5
:101BD0000B4802F0F9F9204638BD002001F04CFB1B
:101BE0000028EED021462A46002001F051FB044691
:101BF0000028EDD1EAE76FF00204ECE740420F0065
:101C00000418002008B5FFF7F9F94FF0FF3E6FF018
:101C1000004C0F4A821841F1000396457CEB03010A
:101C20003CBF724663460B4802F0B6F970B14FF004
:101C3000FF30002100F048FD002001F06FFB00287C
:101C4000F5D1BDE80840034802F0BEB908BD00BFA9
:101C500040420F00041800202DE9F84307460E46C5
:101C6000FFF7CCF94FF0FF356FF00044334A82188C
:101C700041F10003954274EB03013CBF2A46234621
:101C80002F4802F089F908B9BDE8F883002001F077
:101C9000DDFA002848D0002E41DD0025DFF8A480C1
:101CA000DFF8A49013E02246002001F07DFB002124
:101CB00004464FF0FF3000F007FD002001F02EFB3E
:101CC000FFF79CF9C8E900012544AE4227DD00205A
:101CD00001F08CFB741B8442A8BF04467919002CC8
:101CE000E1D121464FF0FF3000F0EEFC204601F03C
:101CF00015FB204601F0AAFA88B1204601F076FBD8
:101D00000028E2D1FFF77AF9D8F80030D8F804209B
:101D100013EB090342F1000283428A41D5D20848FD
:101D2000BDE8F84302F050B900200021054BC3E99B
:101D30000001BDE8F843024802F046B940420F00F6
:101D4000041800203011002020A1070030B5002128
:101D500085B02E4802F028F9F0B92D4B1A68CAB1A7
:101D6000EFF3108172B6D2E8CF5F0124002DFAD1D3
:101D7000C2E8454F002DF6D1BFF35F8F254C1D689B
:101D800022785960D3B201222270C5E88F0F81F307
:101D90001088CBB105B030BD00214FF0FF3000F00E
:101DA00093FC002001F068FA0446184802F00CF990
:101DB000002CEFD0184B1B68002BEBD0174A106893
:101DC00005B0BDE830401847FEF780FF0446FFF736
:101DD00015F94FF0FF3C6FF0004510F57A7241F1B4
:101DE0000003944575EB030138BF2B464FF000010B
:101DF0004FF0010520460A4C38BF6246CDE9011577
:101E00000094FEF767FF05B030BD00BF0418002046
:101E1000D4170020281800205C1300206013002035
:101E2000011B00104FF0504330B585B01C68FEF721
:101E30004DFFFFF761F8A04202D0002005B030BD91
:101E400000212A4B08461B7801F08CFC28480368C7
:101E5000002B47D00120FEF7B7FC0346254C26494E
:101E6000C0B22370FEF738FB20780121FEF7F2FAAA
:101E70000E20FEF721FB40BB204B0125C3E90000EB
:101E8000FEF724FF0446FFF7B9F84FF0FF3E6FF06E
:101E9000004C10F57A7241F1000396457CEB03018A
:101EA0004FF000012046164C3CBF72466346CDE918
:101EB00001150094FEF70EFF0028BEDB012111483A
:101EC000FFF754FD012005B030BD0120FEF77EFA7A
:101ED00001460A48FEF7D4FC00220E200A49FEF70C
:101EE00029FBEBE7FEF7B0FCB4E700BF944300101A
:101EF00004180020271800204D1D0010D4170020C2
:101F0000011B0010A40E0020711B00100048704738
:101F10004C42001000487047F841001038B5184B8B
:101F200004461A780AB344B940F209424FF44173A7
:101F3000144D6A8013482B8038BD052C1AD8124BDB
:101F4000104D53F8241028460023013903E0132BC9
:101F500020F8022F10D011F8012F0133DBB2002A34
:101F6000F5D15B0043F44073E4E71121184600F01B
:101F700025F8D8E7002038BD4FF44A73DAE700BFF0
:101F80001018002094130020E041001000B545F225
:101F900047308BB0FFF77AFA01220346092101A8E6
:101FA0009847DDE90332044912BA1BBAC1E900239C
:101FB0000BB05DF804FB00BFFC170020012901F104
:101FC000FF3300F0B3805D490A784FEA121C9F2A64
:101FD0008CBF0CF1370C0CF1300C012B80F800C0D9
:101FE00000F0A78002F00F02092A8CBF373230328E
:101FF000022B427000F09D804A784FEA121C9F2A03
:102000008CBF0CF1370C0CF1300C032B80F802C0A4
:1020100000F08F8002F00F02092A8CBF3732303275
:10202000042BC27000F085808A784FEA121C9F2A28
:102030008CBF0CF1370C0CF1300C052B80F804C070
:1020400077D002F00F02092A8CBF37323032062BCC
:1020500042716ED0CA784FEA121C9F2A8CBF0CF1D5
:10206000370C0CF1300C072B80F806C061D002F061
:102070000F02092A8CBF37323032082BC27158D078
:102080000A794FEA121C9F2A8CBF0CF1370C0CF115
:10209000300C092B80F808C04BD002F00F02092A3F
:1020A0008CBF373230320A2B427242D04A794FEA23
:1020B000121C9F2A8CBF0CF1370C0CF1300C0B2B2F
:1020C00080F80AC035D002F00F02092A8CBF3732DF
:1020D00030320C2BC2722CD08A794FEA121C9F2A04
:1020E0008CBF0CF1370C0CF1300C0D2B80F80CC0B0
:1020F0001FD002F00F02092A8CBF373230320E2B6C
:10210000427316D0CA7911099F2A8CBF37313031FA
:102110000F2B81730DD002F00F02092A94BF3032C9
:102120003732102BC27318BF103002D00023037057
:102130007047184400230370704700BFFC1700204D
:10214000704700BF0022014B1A707047251800200D
:102150004B79FF2B0BD1887948B9CB79012B07D16B
:10216000082A05D9034B8A7809201A707047002085
:10217000704700BF2518002001207047012901D0B9
:102180000120704708B5104B91881B78994201D007
:10219000002008BD5378012B08D0022BF8D1002174
:1021A00064220846FFF700F9012008BD518811F4A8
:1021B00080721ABFC1F3C012480A4FF0FF3001F01D
:1021C0000301FFF76FF900BF251800200048704792
:1021D00008430010012907D15378012B02D19388BD
:1021E000072B03D000207047012070471146A6231B
:1021F000014A00F0FFBE00BF60420010034601220A
:1022000001481A70704700BF2C43001008B50B68D6
:10221000B3F5966F00D008BD00224FF0FF30114695
:10222000FFF740F970B500F02DF90C2340261B4C48
:10223000FF22A3670E201A49FEF77CF9194B32469C
:102240000021184601F0AAFD034600210125802047
:10225000154A58849A60843A5D701E831E875960BF
:10226000C2F88410C2F8801002F58072DA60DA6277
:10227000803A83F8211083F83B1059629A624FF03C
:10228000005601F085FE4FF480320849084B256462
:102290002846E664C4F89010DA6470BD000011505E
:1022A000DD030020C81300208400105010D001006E
:1022B0000020115001210E20FEF7CCB80022024868
:1022C000114600F0FFB800BFE8130020044B19705E
:1022D00021B14FF40032034BC3F89020704700BF88
:1022E00022180020002011500B785B0602D14B7899
:1022F000052B00D070474B88014ADBB21360704752
:1023000000001150CB782DE9F04103F0030EBEF12F
:10231000010FC3F3010059D0002791F802C0324CDD
:102320000CF07F035E00898806EBDC1204EB42129E
:102330004FEADC15D076C1F30A0185F00100507038
:1023400082F802C01183D77018B2DA006DBB27483B
:10235000043204EB831C02EB0008CCF80880175011
:102360006BB3234ADB001A44CCF80420214A3F31E6
:10237000136821F03F01BEF1020F08BF49001E485B
:1023800019442E4404EB461481421160E36028D8BE
:1023900083F0A04383F48013626843EA8E6343F0C2
:1023A000004313600120BDE8F081DFF840C004EB7A
:1023B00083186244C8F828204CF830704BB90023C9
:1023C0000E4A04EB4514E2606360EBE70020BDE8D1
:1023D000F081DB0003F1A04303F58013C8F824303B
:1023E000C4E7FFF7A9F800BFC81300208000105011
:1023F00004001050D0170020FF0F105000011050A3
:1024000001F0C6BD8C4608B5114607481A460CF0C7
:102410007F034FEADC1C0CEB430C00EB4C1000F08C
:1024200051F8012008BD00BFC8130020CB0911F0EE
:102430007F0103D1064AC3F102009066054803EB11
:1024400041034FF40062002100EB431001F09CBDFA
:1024500000201150C813002011F07F0300D17047F5
:10246000002210B4C809064C00EB430004EB4013F3
:102470006FF4006118465DF8044BDA7001F084BD1A
:10248000C81300204FF0805209480A4908B50A4B8A
:1024900002600A609968C94311F08051FAD14FF483
:1024A0008052064801F07AFC0922054B5A6708BDA4
:1024B00000200240003002400000024000001050A6
:1024C0000000115000234FF0010C10B580F81AC025
:1024D0008282C3820161044601F072FD20B14FF493
:1024E0000032074BC3F89020204601F065FD10B183
:1024F0000123237710BD2046BDE8104001F050BDF8
:10250000002011502DE9F0414FF000081C4D044609
:1025100042462B781B4F1C4E0DE0336813EB4213E1
:1025200025D0DB682046984708F101082B785FFA30
:1025300088F2934206D39342A2EB0303EDD807EB54
:102540004313EEE7114C54220021204601F026FCF3
:102550004FF0FF33251D6360C5E90133EB6004F1E3
:1025600014002022BDE8F041FF2101F017BC4FF01C
:10257000E023D3F8F03DDB0700D500BEBDE8F081D5
:10258000211800204C430010381100204012002078
:10259000704700BF704700BF0020704700207047A1
:1025A000704700BF704700BF704700BF704700BF53
:1025B000024B5878003818BF0120704740120020A5
:1025C000024B1878C0F38000704700BF4012002013
:1025D0002DE9F047DFF8E89099F80030FF2B02D0A2
:1025E0000120BDE8F0870D4600293DD0002154228E
:1025F0000646294801F0D2FB0022284C284B2046F1
:102600001A70FEF721F9274B27481C60274CFEF76C
:1026100029F9204601F088FB254A264B1460264CF8
:102620005BB32046FFF7EAFD244B227818604FF099
:10263000000ADFF890805346204F0DE03A6812EB15
:10264000431311D05B687BB198470AF1010A2278E5
:102650005FFA8AF39A4212D39342EFD39B1A08EBA4
:1026600043135B68002BEFD14FF0E023D3F8F03D2C
:10267000DB0700D500BE0020B3E72278D7E7294664
:10268000304689F80060FFF7CDFD0028ECD03046D9
:10269000FFF710FEA4E700BF401200203812002010
:1026A0002318002094120020D00E0020BC0E002021
:1026B00098120020FD210010211800203811002060
:1026C000D80E00204C4300102DE9F04FDFF8B092F7
:1026D0008BB099F80030FF2B00F0ED80A24CA34D99
:1026E000DFF898A2DFF89CB226687369EFF31082D6
:1026F00072B6D3E8CF0F01210028FAD1C3E8401FFA
:102700000028F6D1BFF35F8FB261304607A901F010
:1027100059F900237269C2E88F3FB36983F31088C7
:10272000002800F0C8809DF81D30013B072B00F207
:102730006B83DFE803F0A5AF939B8C350A04089BFD
:10274000002BD1D009989847CEE79DF8201001F0D2
:102750007F0605EB460000EBD11090F8343023F0F3
:10276000010380F8343090F8343023F0040380F80B
:102770003430002E00F0A280027D9AF800309A4298
:1027800080F091807A4B1B6813EB421300F08C8031
:102790009E699DF82120099B9DF81C00B047A3E786
:1027A0009BF80030002B7FD09BF80030013BDBB260
:1027B0008BF800309BF8003003F0FF00002B93D122
:1027C0006A4F9DF81C803B7843F001033B7097F8FB
:1027D000343060F3000387F8343097F8343060F316
:1027E000820387F8343097F8353060F3000387F8B8
:1027F000353097F8353060F3820387F8353000F0D4
:1028000059FC9DF8203003F06002602A66D0402A0F
:1028100076D003F01F03012B00F0B680022B7BD093
:10282000002B5BD1202A00F0DB81002A56D19DF8D5
:102830002130092B52D8DFE813F0A2019401510096
:10284000B301510087015D0151005201E5002B7871
:10285000D9077FF549AFFFF7A9FE45E7EB78DA071F
:102860007FF542AF0898FFF795FE3DE72B78D80734
:102870007FF53AAF2878C0F3C000FFF795FE33E745
:102880009DF81C00FFF73EFE00F00AFC9DF820308A
:10289000AB7029E79DF81C00FFF734FE00F000FC48
:1028A000FFF780FE20E711D04FF0E023D3F8F03D92
:1028B000DC0700D500BE0BB0BDE8F08F099B9DF88A
:1028C00021209DF81C0000F009FC0DE7294B5FE773
:1028D000FFF720FB0246002840F079814FF0E0230B
:1028E000D3F8F03DDE0700D500BE9DF81C000021A6
:1028F000FFF79CFD80219DF81C00FFF797FDF3E694
:102900001D4800F0D7FB0121404608AAFFF762FCF2
:1029100000287FF4E9AEE8E79DF8241011F0700F6D
:10292000DCD101F07F0607EB4600144B00EBD11021
:102930001B78007D7600019698424FEAD1160096EA
:102940004FD340F05F810B4E002A00F05F81706929
:1029500000F0B0FB01214046736908AA984700289F
:102960007FF4C2AEC1E700BF9812002040120020E1
:10297000381100204C430010D521001021180020F0
:10298000D80E0020231800209DF824300F2BACD83F
:10299000AA4A3B441B79127893422DD3A5D1A84E65
:1029A000706900F087FB01214046736908AA9847C7
:1029B00000287FF499AE9DF8203013F0600694D182
:1029C0009DF821300A3B012B8FD800F073FB9DF856
:1029D00021300A2B00F0F181404608A900F0F0FAFE
:1029E00082E6984B1B6803EB4016002A00F00E812C
:1029F000002E3FF47AAFAAE7924A166816EB431608
:102A0000CED172E77B789DF822609E4200F04C8127
:102A10007B78002B40F0BD817E70002E00F042815B
:102A2000701EC0B2FFF776FA0346002800F05E8100
:102A30004278022A40F05A81C17903F10906C1F3B4
:102A400040121201C1F3801142EA41123146387836
:102A500020F0300002433A705A88CDF808809A1866
:102A60000092009B8B4240F2A3814B780B2B00F02D
:102A7000AE814FF0010C042B40F038810023009A06
:102A80001E46521A92B201926C4ACDF80CC01278CE
:102A90001DE06C4A126812EB461800F02781019A7B
:102AA00005930298D8F8103004919847059B0828A0
:102AB0000246049903F1010303D90198904280F082
:102AC000F8805E4ADEB21278B242C0F00F81B242A4
:102AD000A6EB0202DDD85A4800EB4218DFE77B780C
:102AE00040468DF81A300DF11A02012308A900F0B2
:102AF00081FAF9E5BDF82200030A013B020AC0B2DF
:102B00000E2B3FF6F2AE01A151F823F01D2D00105F
:102B1000BD2B0010592D0010EB280010EB280010E1
:102B20003B2D0010BD2B0010EB280010EB280010EF
:102B3000EB280010EB280010EB280010EB28001009
:102B4000EB2800100F2D001008A800F0B9FA40463D
:102B50009DF82210FFF7B2FB3B7843F002033B7075
:102B6000C2E5BDF82230012B7FF4BFAE3B78404672
:102B700023F0080308A93B7000F022FAB4E54046B0
:102B80003B789A0802F00202C3F340131343ADF8F6
:102B90001A300DF11A02022308A900F02BFAA3E55E
:102BA000BDF82230012B7FF4A0AE3B78404643F0C5
:102BB000080308A93B7000F003FA95E5022A3FF4E8
:102BC00087AEFFF7EBFC024600283FF48EAE40468E
:102BD000538808A900F00EFA00287FF485AD84E63A
:102BE0009DF824300F2B3FF680AE144A3B441B79EE
:102BF000127893421DD2134A166816EB43167FF4DF
:102C0000A6AE72E6002A7FF470AE00269DF8212061
:102C100002F0FD03012B17D0002A7FF45FAE019B69
:102C2000009A3B44134493F834304046C3F34003C6
:102C3000ADE77FF45AAE024E89E600BF21180020AE
:102C40004C43001038110020BDF82230B3B9012ADE
:102C500099F8000000F08880FFF7E8FB019B009ADC
:102C60003B44134493F8342042F0020283F83420AA
:102C700093F8342042F0010283F83420002E3FF410
:102C800033AD706900F016FA7369012108AA404655
:102C90009847002000F00EFA97F83530DF073FF52F
:102CA00023AD99E6FFF77EFC404608A900F088F9BD
:102CB0001AE5DDF80CC0BCF1010F00F09D80BCF1FD
:102CC000000F00F08A80002391F8028004E0067172
:102CD000D8B2844540F2818008EB030057FA80F0B7
:102CE00090F804E00133BEF1FF0FF0D04FF0E02385
:102CF000D3F8F03DDA0700D500BE4FF0E023D3F85B
:102D0000F03DDB0700D500BE00237B70EDE5FFF74B
:102D10005DFA024600287FF45AAFE6E5FFF7F6F8C1
:102D2000024600283FF4DAAD4046122308A900F01D
:102D300061F900287FF4D8ACD7E5FFF72DFC0246F7
:102D400000283FF4D2AD4046137808A900F052F9AC
:102D500000287FF4C9ACC8E5BDF82410FFF7DEF801
:102D600002460028EFD1C0E50293FFF775FB019AF8
:102D7000009B3A441A4492F83410029B63F34101D9
:102D800082F8341092F8341063F3000182F83410A2
:102D900074E700214046FFF799FA4046FFF730FB01
:102DA000BB7840460093FFF7ADFB009BBB7033E65A
:102DB000DDF80880FFF7F4FB76E74046012308A919
:102DC0000DF11A028DF81A6000F014F98CE40B78FA
:102DD00091F803C019444B784DE633460F480392EF
:102DE000019100F067FD0E4B01991B78039AB342E5
:102DF0001144BFF436AE79E7D8F81000094B984279
:102E000008BF4FF0020C5EE74FF0E023D3F8F03D2F
:102E1000DB077FF569AC00BE66E400BF54120020FA
:102E200021180020ED3400102DE9F84FDDF828803E
:102E3000002A3FD00C461E4615464FF0000B1F4F90
:102E4000DFF87C9017E0204699F8021000F000FDB2
:102E5000F8B121465046FFF755FA08B3A3780BF1B5
:102E6000010BDA0916BF0B9A88F80030137023782B
:102E7000AB451C441ED06378052B11D1E17801F0DD
:102E80000301B1420CD1A37897F800A013F0700FA2
:102E9000D9D04FF0E023D3F8F03DDA0700D500BEDB
:102EA0004FF0E023D3F8F03DDB0700D500BE002053
:102EB000BDE8F88F0120BDE8F88F00BFD80E0020D4
:102EC0004012002038B50E4B1D788B7813F0700F30
:102ED00008D04FF0E023D3F8F03DDB0700D500BE6B
:102EE000002038BD074B0C460846997800F0B0FC2E
:102EF0000028EED021462846BDE83840FFF702BA48
:102F0000D80E0020401200200B46064A06481168E1
:102F1000DA09343203F07F0302EB4303184400F074
:102F200051BC00BF94120020401200200B46064AFC
:102F300006481168DA09343203F07F0302EB4303D9
:102F4000184400F069BC00BF941200204012002019
:102F500010B5194C01F07F0E04EB4E0404EBD114B4
:102F600094F834C015481CF0010F04F130040078C7
:102F700008D04FF0E023D3F8F03DDA0700D500BECB
:102F8000002010BD94F804C04CF0010C84F804C07B
:102F9000FFF738FA0028F4D14FF0E021227960F3EE
:102FA00000022271227960F382022271D1F8F03D91
:102FB000DB07E5D5E3E700BF40120020D80E002074
:102FC00030B50B4C8C46A646054608684968002378
:102FD000AEE803009CF800102846C943C4E9023358
:102FE000BDE830401A4601F08001FFF7B1BF00BFD5
:102FF000001200202DE9F041274F4FF00008BE4697
:103000008C46064608684968BA60AEE80300A7F82F
:103010000E801546BCF80620934228BF1346BB819C
:103020009AB11C462BB3DDB197F90030402C28BF74
:103030004024002B28DB414623463046174AFFF741
:1030400087FF68B10120BDE8F0819CF800101346AD
:10305000C943304601F08001FFF77AFF0028F1D123
:103060004FF0E023D3F8F03DDB0700D500BE002091
:10307000E9E71A46397801F0800123463046FFF728
:1030800067FF0028DED1EBE722462946034800F01F
:10309000D7FE8021014AF0E700120020C011002075
:1030A0000022034BC3E90022C3E902221A617047E0
:1030B00000120020014B1861704700BF0012002071
:1030C00030B40246044C0025234600685168C4E928
:1030D000025530BC03C370470012002070B53C4C51
:1030E000C90922780646B1EBD21F1D4682B017D01F
:1030F00053B14FF0E023D3F8F03DDB0702D40020BA
:1031000002B070BD00BEFAE72146FFF7EDF8236973
:103110001BB12246032130469847012002B070BD02
:1031200094F90030A068002B05DB0028E7D02A4680
:10313000284900F085FEE089A168E388284480B230
:1031400029448342E081A16016D03F2D14D9A28981
:1031500094F90040131A9BB2402B28BF4023002C47
:1031600026DB90424FF0000130D01A4A3046FFF77C
:10317000EFFE0028D1D1BCE7236923B102213046FC
:10318000134A984758B121780023C94330461A465C
:1031900001F08001FFF7DCFE0028BED1A9E701465F
:1031A0003046FFF743F980213046FFF73FF9B4E797
:1031B000904208D01A460748019300F041FE802152
:1031C000044A019BD2E780210022CFE70A46CDE7DF
:1031D00000120020C01100202DE9F0410446FFF745
:1031E000E7F908B9BDE8F081FFF7EAF907460028DA
:1031F000F8D1C822134B02FB0436F1780029F1D034
:1032000006F11005284600F0CBFB3F28EAD93846E6
:10321000F178FFF779FE0028E4D0284600F0C0FBE3
:103220003F2809D9084A3846F17802EBC4124023F6
:10323000BDE8F041FFF78CBE3846F178BDE8F041BB
:10324000FFF774BEE80E00203C11002010B50446C4
:10325000FFF7AEF908B9002010BDFFF7B1F900285B
:10326000F9D1C822034B02FB0433187900F00100A6
:1032700010BD00BFE80E0020C82108B5102301FBD7
:103280000030024A104400F071FB08BDE80E002037
:103290002DE9F8434FF6FF734FF0C80810249A4207
:1032A00028BF1A4618FB00441A4F06463C442046E5
:1032B00092B200F0D1FB0546FFF77AF910B9284623
:1032C000BDE8F883FFF77CF981460028F7D108FBB9
:1032D0000677FB78002BF2D0204600F061FB3F28F8
:1032E000EDD94846F978FFF70FFE0028E7D02046D1
:1032F00000F056FB3F2808D9074A48464023F97892
:1033000002EBC612FFF724FED9E74846F978FFF72B
:103310000DFED4E7E80E00203C1100202DE9F0411D
:103320000546FFF745F910B90020BDE8F081FFF729
:1033300047F906460028F7D14FF0C808242418FBA7
:103340000544174F3C44204600F010FB0028EBD00A
:1033500008FB05773046B978FFF7D6FD0028E3D0A3
:103360004022104B204602EBC5141C44214600F0BD
:1033700073FB054680B1034622463046B978FFF715
:10338000E7FD38B94FF0E023D3F8F03DDB07CBD5AC
:1033900000BEC9E72846C8E7B978FFF7C7FDC3E70D
:1033A000E80E00203C11002038B54FF6FF734FF0B7
:1033B000240CC8249A4228BF1A4614FB00C40A4BA6
:1033C00092B21C440546204600F002FC034620460B
:1033D0001C4600F0CBFA3F2801D8204638BD2846CD
:1033E000FFF79CFF204638BDE80E0020C82108B535
:1033F000242301FB0030024A104400F0D1FA08BD3A
:10340000E80E0020F0B5194C83B0C82200212046F8
:1034100000F0C4FC0025FF234FF4E13108221448DA
:1034200004F1B8070570009504F110006371A16004
:10343000A27304F138010123402200F067FA01234E
:10344000402204F17801009304F1240000F05EFAB8
:1034500004F1C0063846FDF7F7F93046FDF7F4F9F8
:10346000C4E90757C4E90C6503B0F0BDE80E0020BD
:10347000BC110020094B196B49B11A6A12B1002224
:10348000C3E907220022C3E90C22012070471A6A0F
:10349000002AFAD00120C3E907117047E80E002086
:1034A000002210B50E4C0F48237802600271DA0733
:1034B00007D59B070BD5BDE8104001210A4800F055
:1034C0004FBC103000F030FC23789B07F3D4064843
:1034D00000F02AFCBDE810400121034800F040BC88
:1034E000BC110020E80E00200C0F0020F0B54B7935
:1034F00083B0022B03D00025284603B0F0BD8B79A2
:10350000022BF8D1264FBB783BB14FF0E023D3F824
:10351000F03DDB07EFD500BEEDE78B7806463B704C
:103520000B780925CC18617824290BD1082A02D8F8
:103530000FE0AA420DD323781C4461782B44242940
:103540009DB2F6D005290AD0042902D163790A2B4D
:1035500013D00020FFF740FE284603B0F0BD2146FF
:103560003046FFF7AFFC0028CFD0A3787B702378DC
:103570001C442B4461789DB2E6E70A4B27780193FF
:1035800001330093022330461A46E119FFF74CFC41
:103590000028BAD00E3517FA85F5ADB2D9E700BFCD
:1035A000E80E0020EA0E0020137803F06003202BC1
:1035B00008D170B5264C938894F800C09C4503D080
:1035C000002070BD002070475378203B032BF7D8B4
:1035D000DFE803F027230D0201292ED003291ED195
:1035E0001C4BE3B100205188AFF3008017E00129A4
:1035F00023D0032913D15588174805F0010686F01A
:103600000101257100F0ACFB144B43B131460020A1
:10361000C5F34002AFF3008001E0012911D0012081
:1036200070BD01290DD00329F9D10D4B002BF6D027
:1036300000200C49FEF7EAFDF1E71146FFF7C0FC58
:10364000EDE711460723074AFFF7D4FCE7E700BF81
:10365000E80E0020000000000C0F00200000000019
:103660000D220010F00E00202DE9F047364F0C46D9
:10367000FA7806468A421D4697F802C03CD08C452F
:1036800013D04FF0E023D3F8F03DDB0700D500BEA8
:103690000020BDE8F0872D4B23B12D4800F076F9CE
:1036A00000284ED00020FFF797FDBB78A34202D040
:1036B0000120BDE8F087274B13B10020AFF3008055
:1036C0000020FFF72BFE0028F2D1234800F04EF92E
:1036D0000028EDD1002DEBD015F03F05E8D13046A4
:1036E000B978FFF711FC0028E2D02B462A46304675
:1036F000B978FFF72DFCDBE7DFF864809AB241462A
:1037000007F1100000F064FA144B002BC3D07B7952
:10371000FF2BC0D0002DBED007F1100908EB050A21
:1037200002E0C245B7D07B7918F8012B9A42F8D154
:10373000484600F02BF90028F3D17979AFF30080E7
:10374000EFE7AFF30080ADE7E80E002000000000D7
:10375000F80E0020000000000C0F00200000000008
:103760003C11002010B582B0B9B101280CD80B78FB
:1037700053B1134C012B235402D0012002B010BDD1
:10378000FEF726FF0028F8D14FF0E023D3F8F03DF4
:10379000DB0700D500BE0020F0E70124084601A9A0
:1037A000ADF80440FEF714FF38B94FF0E023D3F82A
:1037B000F03DDA07E2D500BEE0E7014B1C70DDE723
:1037C00034120020F8B5037813F001041AD10378FD
:1037D00005465A07C3F3800701D52046F8BD0E46BB
:1037E0004FF0FF31304600F0E3FB2B7813F001047B
:1037F0000BD12B785B0709D42B78012443F0040309
:103800002B7003E000242046F8BD3C46304600F013
:10381000DBFB2046F8BD00BF70B50C4605464FF0F7
:10382000FF31204600F0C4FB2B78C3F380065B0712
:1038300008D52B7813F0010311BF00262A7863F313
:1038400082022A70204600F0BFFB304670BD00BFE8
:10385000C378828803F003000228C2F30A021FD053
:10386000032803D001280AD000207047022914BF82
:1038700040234FF48063934209D30120704702290B
:1038800040F2FF3308BF4FF480639342F6D24FF00B
:10389000E023D3F8F03DDB07E6D500BE00207047FB
:1038A000022902D0402AE8D9F1E7B2F5007FE4D03E
:1038B000EDE700BF0A44914226D291F801C0BCF165
:1038C000050F05D091F800C061448A42F5D87047D1
:1038D00000B591F802C00CF07F0E00EB4E0E4FEADF
:1038E000DC1C0EF80C3091F800C061448A4209D902
:1038F00091F801C0BCF1050FEBD091F800C0614414
:103900008A42F5D85DF804FB704700BF2DE9F0410D
:10391000B2F5004F9DF8188024D80446C0681746B9
:103920000E461D4618B14FF0FF3100F041FB2069F3
:1039300018B14FF0FF3100F03BFB0022C5F30E033E
:10394000E06843EAC83362812660A780E380228171
:1039500008B100F039FB206908B100F035FB012007
:10396000BDE8F0810020BDE8F08100BF03894289F5
:103970009BB292B28088934236BFC2EB40029B1A40
:103980009B189BB2984228BF18467047028943890A
:1039900090B29BB2C01AB0FA80F04009704700BFE5
:1039A000038942899BB2808892B2934236BFC2EBB0
:1039B00040029B1A9B189BB2984286BFC01A80B2E5
:1039C0000020704738B5044600690D4618B14FF025
:1039D000FF3100F0EDFA2189638989B29BB2A28898
:1039E000994236BFC3EB4200C81A401880B250B3A8
:1039F000824209D291422CBF891A89188BB29A420D
:103A0000638103D89B1A9BB29A42FBD9E288216852
:103A1000C2F30E0202FB0311284600F011FA61897D
:103A2000012589B24B1C9BB29942A2880ED9002372
:103A300002FA05F15B1A9BB22069638108B100F0BC
:103A4000C3FA284638BD054663899BB2B3EB420FE3
:103A50004FEA4201F0DBEDE72DE9F0470646006949
:103A60008846914618B14FF0FF3100F0A1FA338932
:103A700074899BB2A4B2B588A34236BFC4EB450794
:103A80001F1BFF18BFB2002F4AD0BD4240D3B9451B
:103A900028BFB946A5421FFA89F703D8641BA4B210
:103AA000A542FBD9B6F806A02B1B31689BB2CAF31E
:103AB0000E029F42924602FB041123D913FB02F32C
:103AC0001FFA83F94A4640467D1B00F0B9F9621996
:103AD00012FB0AF2316808EB090092B200F0B0F96B
:103AE0007289B58892B2D3199BB29A421AD96A00E8
:103AF0009B1A9BB23069738108B100F065FA3846B1
:103B0000BDE8F087404607FB02F200F099F9E7E7CD
:103B1000AB422CBF5B1B5B199CB22F467481B6E78E
:103B200073899BB2B3EB450F4FEA4502E2DBDFE757
:103B3000F8B50446C0680E4618B14FF0FF3100F0EA
:103B400037FA2589238961899BB289B2A2888B4281
:103B500036BFC1EB42015B1A5B189BB29A42ADB211
:103B600008D8E779FF0905D1E06808B100F02CFA20
:103B70003846F8BD954219D32B469B1A9BB2934207
:103B8000FBD2E2882068C2F30E0202FB030031463A
:103B900000F056F96B1C9BB29D42A28812D90023FB
:103BA00051005B1A9BB201272381DDE7E288206880
:103BB000C2F30E0205FB0200314600F041F9013567
:103BC000A288ABB2B3EB420F4FEA4201EBDBE8E76E
:103BD0002DE9F04F164683B0002A4CD00546C06848
:103BE000884618B14FF0FF3100F0E2F9EA792F89E9
:103BF0006989D209AB88BFB289B240D18F4236BF42
:103C0000C1EB4301791AC91989B2994241D2591AB3
:103C100089B28E4228BF0E46B5F806A007EB06090A
:103C2000A6EB030BCAF30E0A1FFA89F91FFA8BFBE6
:103C30009F423C4603D3E41AA4B29C42FBD21B1B16
:103C400028689BB2B3420AFB04004BD341460AFBEF
:103C500006F200F0F5F8AA884F454FEA420302D871
:103C6000B9EB420F03DBA9EB03031FFA83F9E86802
:103C7000A5F8089088B9304603B0BDE8F08FB5F8D4
:103C800006A09E42CAF30E0A0DD3002B3FD11E465A
:103C900000E00026E8680028EDD000F095F93046F5
:103CA00003B0BDE8F08F8F4236BFC1EB43027A1AF2
:103CB000D21992B258003244A6EB030B82421FFA8B
:103CC0008BFB0ADB01EB03091FFA89F9A9EB060755
:103CD000BFB2B94218D9381A87B206EB07091FFAE2
:103CE00089F9A5E713FB0AF35C4414FB0AF49AB2C2
:103CF0004146019200F0A4F8019A286808EB0201FD
:103D0000A2B200F09DF8A6E7B84291DCE3E7F61A0C
:103D100001EB03090AFB06880F461E464FF0000B15
:103D20001FFA89F984E700BF10B50446C06818B1CE
:103D30004FF0FF3100F03CF9206918B14FF0FF312E
:103D400000F036F90023E0686381238108B100F0B8
:103D50003BF9206908B100F037F9012010BD00BF20
:103D600038B50446C0680D4618B14FF0FF3100F079
:103D70001FF9206918B14FF0FF3100F019F9E3790C
:103D8000E06865F3C713E37108B100F01DF920691D
:103D900008B100F019F9012038BD00BF70B58607E1
:103DA00047D0541E002A3ED0CAB2034601E0013C6F
:103DB00039D303F8012B9D07F9D1032C2CD9CDB2AF
:103DC0000F2C05EB052505EB054535D9A4F1100CA5
:103DD00003F1100E1A462CF00F064FEA1C1CB644D5
:103DE000C2E90055C2E9025510327245F8D10CF112
:103DF000010214F00C0F04F00F0C03EB021213D0AD
:103E0000ACF1040323F003030433134442F8045BCE
:103E10009342FBD10CF003042CB1C9B21C4403F84B
:103E2000011BA342FBD170BD64461346002CF4D1A4
:103E3000F9E703461446C0E71A46A446E0E700BF88
:103E4000844641EA000313F0030349D1403A23D3E7
:103E50000B6803604B6843608B688360CB68C3600A
:103E60000B6903614B6943618B698361CB69C361F2
:103E70000B6A03624B6A43628B6A8362CB6AC362DA
:103E80000B6B03634B6B43638B6B8363CB6BC363C2
:103E900040304031403ADBD230320BD30B68036004
:103EA0004B6843608B688360CB68C360103010310F
:103EB000103AF3D20C3205D351F8043B40F8043BDE
:103EC000043AF9D2043208D0D2071CBF11F8013BE2
:103ED00000F8013B01D30B8803806046704700BFA8
:103EE000082A13D38B07B1D010F00303AED0C3F16F
:103EF0000403D21ADB071CBF11F8013B00F8013B99
:103F0000A4D331F8023B20F8023B9FE7043AD9D30F
:103F1000013A11F8013B00F8013BF9D20B7803702C
:103F20004B7843708B7883706046704720F00301B4
:103F300010F00300C0F1000051F8043B00F1040C44
:103F40004FEACC0C6FF000021CBF22FA0CF21343B4
:103F50004FF0010C4CEA0C2C4CEA0C4CA3EB0C027D
:103F600022EA030212EACC1204BF51F8043B0430E7
:103F7000F4D0C2F1000102EA0102B2FA82F2C2F107
:103F80001F0200EBD20070475FF800F0FD0A00202E
:103F90005FF800F0E50200205FF800F0F901002072
:103FA0005FF800F0410B00205FF800F011010020E5
:103FB0005FF800F0650200205FF800F0C90A0020F9
:103FC0005FF800F0A10A00205FF800F09D020020D9
:103FD000F1150010651500109915001081160010DC
:103FE000D1150010E914001019160010D514001096
:103FF000FD0700101D160010E10B00103515001014
:1040000005160010B5150010ED0300101504001082
:044010008D1F0010F0
:104014000A2A2A2A2050414E4943202A2A2A0A00E1
:104024004E6F207370696E6C6F636B732061726581
:1040340020617661696C61626C6500004E6F207569
:1040440073657220495251732061726520617661F3
:10405400696C61626C6500004861726477617265C5
:1040640020616C61726D20256420616C72656164ED
:104074007920636C61696D65640000004861726455
:10408400206173736572740052656C6561736500B9
:10409400626F6F74325F77323571303830000000F0
:1040A400302E3100322E332E310000007069636FE0
:1040B400320000005345315F50365F4551335F4451
:1040C4004F530000536570203136203230323600B1
:1040D40055534220737464696E202F207374646F87
:1040E4007574000052617370626572727920506950
:1040F400000000005069636F00000000426F6172AD
:10410400642043444300000052657365740000005A
:10411400556E68616E646C65642049525120307834
:1041240025780A0065702025303258207761732085
:10413400616C726561647920617661696C61626C3D
:104144006500000043616E277420636F6E74696EAE
:1041540075652078666572206F6E20696E61637480
:10416400697665206570202530325800060052506B
:10417400D3F075428C40001006005250E182887FD3
:1041840094400010060052503ABCA911A4400010FB
:1041940006005250ABB36053A840001006005250C2
:1041A400BBFF3CB6B040001006005250861C030210
:1041B400B8400010060052505422A29DC84000107E
:1041C40005005250DE65F468805100100D0A0000AD
:1041D4000600525053B4F4A1D44000100000000073
:1041E400E8400010F84000101018002000410010B2
:1041F4000C41001009025400030100807D080B00EB
:104204000202020000090400000102020004052465
:1042140000200105240100010424020605240600EF
:10422400010705810308001009040100020A0000C7
:104234000007050202400000070582024000000951
:1042440004020000FF00010512011002EF02014008
:104254008A2E090000010102030100000A00000087
:1042640000000306A6000800020002009C001400DF
:10427400030057494E55534200000000000000005F
:10428400000080000400010028004400650076005E
:1042940069006300650049006E00740065007200E7
:1042A4006600610063006500470055004900440052
:1042B40000004E007B0062006300370033003900C9
:1042C4003800630031002D003700330063006400C0
:1042D4002D0034006300620037002D0039003800DF
:1042E400620038002D0039003100330061003800CD
:1042F40066006300610037006200660036007D00DE
:1043040000000000050F2100011C100500DF60DD26
:10431400D88945C74C9CD2659D9E648A9F00000342
:1043240006A600010000000000000000412100106A
:104334000000000045210010512100107D210010D3
:104344007921001000000000000000000534001076
:1043540075340010A1340010ED340010A93500109C
:084364006936001000000000A2
:08436C00D4FAFF7F01000000FC
:10437400704100107C4100108841001094410010ED
:10438400A0410010AC410010B8410010C44100101D
:04439400D441001000
:10439800034600B50268EFF3108C72B6D2E8CFEF8F
:1043A8000120BEF1000FF9D1C2E84E0FBEF1000F97
:1043B800F4D1BFF35F8F93F90420002A0ADB01B11F
:1043C8000A60002000221B68C3E88F2F8CF3108836
:1043D8005DF804FB4FF05042126801201A71F1E7B2
:1043E8004FF050412DE9F0474FF000080446914640
:1043F8009A461F4D1F4E0F682068EFF3108372B660
:10440800D0E8CF1F01220029FAD1C0E8412F0029A6
:10441800F6D1BFF35F8F94F90420002A1EDB95F8CC
:1044280000C022685FFA8CFCC2E88F8F20BF83F33C
:1044380010882B7863450AD0736A9A45DCD8B26A2B
:104448004A4501D29A45D7D00020BDE8F0874846B2
:10445800514600F019FE0028CED0F5E70022216869
:104468002771C1E88F2F83F310880120BDE8F087FA
:104478002618002000000B4030B501460468EFF311
:10448800108C72B6D4E8CFEF0125BEF1000FF9D138
:10449800C4E84E5FBEF1000FF4D1BFF35F8F90F90F
:1044A8000440002C11DB00210568C5E88F1F8CF340
:1044B80010884FF0504C9CF900C0A44501D1084623
:1044C80030BDBDE83040FFF78BBF4FF0504000686B
:1044D80000230A680871C2E88F3F8CF31088012016
:1044E80030BD00BF70B505460C4600F0D1FD024650
:1044F8000B464FF47A704FF0FF3E6FF0004CE4FB30
:10450800002396457CEB030138BF72462846BDE878
:10451800704038BF6346FFF763BF00BF0368EFF31F
:10452800108172B6D3E8CFCF0122BCF1000FF9D1C8
:10453800C3E84C2FBCF1000FF4D1BFF35F8F4FF0ED
:10454800FF0C074A80F804C013780133DBB21370FC
:1045580000230268C2E88F3F81F3108840BF70478C
:1045680026180020002108B5134B4FF4707299608B
:104578001248D960196159619961D9611962596202
:104588009962D962196359639963D9631964596443
:104598009964D964196559659965D9651966596623
:1045A8009966D966196759679967D96700F068FDF0
:1045B800034B044A1A6008BD00001050081400207C
:1045C800D0170020800110502DE9F04F204B85B006
:1045D8009E6D0EB3002401251E4F01E0202C1BD038
:1045E80006EA0503621C2146AA46D4B26D00002BD8
:1045F800F4D0022304F001084FEA510913FB098B98
:10460800154B07EB4B1B5846C3F858A000F00AFCA3
:1046180028B936EA0A06E1D105B0BDE8F08F4FF4B3
:10462800E062ADF80420002208EB490307EB4313CE
:104638008DF809209A78DB8A01A801218DF80820D5
:10464800039300F00DFC584600F092FBE1E700BF31
:1046580000001150C813002000301150F0B5B24BC3
:1046680085B0D3F8985015F4003674D0AF4BB04CE1
:10467800996A94F83B30AF4A022B116000F0F98038
:10468800002694F87B30022B00F0D48194F8BB30DC
:10469800022B00F0C58194F8FB30022B00F0B681A4
:1046A80094F83B31022B00F0A68194F87B31022B61
:1046B80000F0968194F8BB31022B00F0868194F8C3
:1046C800FB31022B00F0768194F83B32022B00F08C
:1046D800658194F87B32022B00F0548194F8BB3248
:1046E800022B00F0438194F8FB32022B00F0328158
:1046F80094F83B33022B00F00A8194F87B33022BA9
:1047080000F0C98094F8BB33022B00F0EC8094F8D9
:10471800FB33022B00F0D6803EB9874B1B7823B9B8
:104728004FF40032854BC3F890204FF440727E4B13
:1047380001219B6C01A8C3F30A03ADF8042002937E
:1047480000F08EFBEA064FF400367D4C07D5FFF7E4
:104758003BFF264603E0EA064FF01004F7D4EB03CC
:1047680032D5734C46F48036A37E9BB10221754B3B
:104778006D4A1966536E9F07FCD54FF440520021CD
:104788006B4800F0FBFA6A4800F0F2FA02226B4B21
:104798005A661A66012394F83A20E370FAB901239D
:1047A8004FF4C061684A84F82330ADF8041092E8E9
:1047B800030004AA02E90300194601A800F050FB0F
:1047C8004FF400325D4B1A65E9041DD46A0432D4F3
:1047D8002B043FD4AE4240F0A58105B0F0BD594A44
:1047E8001366A2F50052536ED807FCD54FF4405219
:1047F8000021564800F0C2FA544800F0B9FA0122E4
:104808004E4B5A661A66CAE70024474B46F4805650
:104818001C60FFF7A7FE4FF48073012101A8ADF8D3
:1048280004308DF8084000F01BFB4FF40022434B86
:104838001A656A04CCD54FF48063012101A8ADF84C
:10484800043000F00DFB10223C4B46F480461A65FC
:104858002B04BFD54FF4A063012101A8ADF80430A3
:1048680000F0FEFA4FF40062344B46F400461A6535
:10487800B0E794F83A60002E3FF403AF94F83C3068
:10488800002B3FF4FEAE002304F1200084F83C30F6
:1048980000F096FAF5E694F87A73002F3FF432AFF9
:1048A80094F87C33002B40F0368194F8BB33022B0C
:1048B80023D194F8BA33DBB994F8FB33022B7FF495
:1048C80034AF3E4694F8FA33002B3FF425AF94F802
:1048D800FC33002B3FF429AF00231D4884F8FC3338
:1048E80000F06EFA21E794F8BA33002B3FF40FAFCB
:1048F80094F8BC33002B40F0A78094F8FB33022BCC
:104908007FF413AF94F8FA33002BE0D10DE794F855
:104918003A73002F3FF4F1AE94F83C33002B40F08B
:10492800F2803E46E9E600BF0000115000000B404F
:10493800C8130020C0130020221800200030115096
:10494800100002000020115000001050E813002051
:10495800A817002094F8FA72002F3FF4C9AE94F813
:10496800FC32002B40F0C7803E46C1E694F8BA728C
:10497800002F3FF4B8AE94F8BC32002B40F0B3805F
:104988003E46B0E694F87A72002F3FF4A7AE94F84A
:104998007C32002B40F09F803E469FE694F83A72A6
:1049A800002F3FF496AE94F83C32002B40F08B80F9
:1049B8003E468EE694F8FA71002F3FF485AE94F8DF
:1049C800FC31002B77D13E467EE694F8BA71002F71
:1049D8003FF475AE94F8BC31002B64D13E466EE6C8
:1049E80094F87A71002F3FF465AE94F87C31002B6F
:1049F80051D13E465EE694F83A71002F3FF455AE29
:104A080094F83C31002B3ED13E464EE694F8FA70BD
:104A1800002F3FF445AE94F8FC3063BB3E463FE6BA
:104A280094F8BA70002F3FF436AE94F8BC30D3B97E
:104A38003E4630E694F87A70002F3FF427AE94F89B
:104A48007C3043B93E4621E60023394884F8BC331C
:104A580000F0B6F951E70023364884F87C303E462A
:104A680000F0AEF912E60023334884F8BC303E4625
:104A780000F0A6F90FE60023304884F8FC303E46E3
:104A880000F09EF90CE600232D4884F83C313E46A0
:104A980000F096F909E600232A4884F87C313E465E
:104AA80000F08EF906E60023274884F8BC313E461C
:104AB80000F086F903E60023244884F8FC313E46DA
:104AC80000F07EF900E60023214884F83C323E4697
:104AD80000F076F9FDE500231E4884F87C323E4656
:104AE80000F06EF9FAE500231B4884F8BC323E4614
:104AF80000F066F9F7E50023184884F8FC323E46D2
:104B080000F05EF9F4E50023154884F83C333E468E
:104B180000F056F9F1E50023124884F87C3300F0E0
:104B28004FF9C2E6104886EA050100F0A5FA00BF71
:104B3800681700202814002068140020A8140020FA
:104B4800E81400202815002068150020A81500206A
:104B5800E81500202816002068160020A816002056
:104B6800E816002028170020144100102DE9F04312
:104B7800828A048B03469442C07828BF1446051ED7
:104B880018BF012580F00100121B5E78D87092B220
:104B980044F480609A8240EA453006BBDD6804F13F
:104BA800FF3805EB811C1D69ACB1B8F1050F05F1A3
:104BB800010203D9ACEB0207022F17D80CF1FF3C16
:104BC800254400E0013212F8016CAA420CF8016F8A
:104BD800F8D11D699A8A25441D6140F400400AB93C
:104BE80040F4804001B10004BDE8F0832F46E6465A
:104BF8003246261FB608013657F8049B0132964202
:104C08004EF8049BF8D8B4EB860FA8EB860205EBA8
:104C1800860E0CEB8607DCD015F826500CF82650CB
:104C2800002AD6D09EF80150012A7D70D1D09EF876
:104C38000220BA701D699A8ACDE700BF83680246D0
:104C4800186801B1000C5378C0F3090013B3F0B52C
:104C5800D2E903548F0105EB8113461E78B1052E66
:104C680004D901373D44651B022D1CD8611E1D184F
:104C780013F8014B9D4201F8014FF9D11469D38A09
:104C880004440344D382138B1461834284BF0023FA
:104C98009382F0BDD38A0344D382138B834284BFAB
:104CA8000023938270479E4625460021A0F1040CFC
:104CB8004FEA9C0C0CF1010C5EF8047B0131614554
:104CC80045F8047BF8D3B0EB8C0FA6EB8C0603EB0E
:104CD8008C0504EB8C01D1D013F82C3004F82C305F
:104CE800002ECBD06B78012E4B70C7D0AB788B7071
:104CF8001469C4E710B50446836800211B68FFF7F0
:104D08009DFF63681B685B0002D5238B834200D03C
:104D180010BD2046BDE810400121FFF78FBF00BF3E
:104D2800084B1B6C13F0020302D18278D20901D11F
:104D380000207047C07EA0F10200B0FA80F0400960
:104D4800704700BF0000115008B5FFF7E9FF50B1E8
:104D5800054A064B906A1B68A0F54870C01AC62819
:104D68008CBF0020012008BD00000B40C0130020AC
:104D78000023C0E904338376704700BF10B5836809
:104D880009B11C68214082B1114352050DD51A683A
:104D980054050CD4084A21F480641C60126C9207F4
:104DA80003D40C23033BFDD28368196010BD8178BE
:104DB800024800F061F900BF0000115028410010BE
:104DC80030B54368002183B004461D68FFF7CEFE66
:104DD800134B40F480521B6C13F0020FA3780ED0D3
:104DE8005B060ED025F0A04545F000550021204671
:104DF80063681D6003B0BDE83040FFF7BFBFDB0943
:104E0800F0D0A38A002BEDD0012120460192FFF7B4
:104E1800ADFE019A25F00055024345F0A045E5E7AF
:104E28000000115038B5857E044695B1FFF762FF42
:104E3800A38A0BB9284638BD2046FFF785FF20B165
:104E4800012323770025284638BD2046FFF7B8FF01
:104E5800F8E78178014800F00FF900BF48410010D9
:104E68002DE9F04343780446023B0D4685B0042BF8
:104E780013D8DFE803F00348677042000021784B3D
:104E88001A7822F001021A701A7822F002021A70B7
:104E980059701A7861F382021A70724B1E6873692E
:104EA800EFF3108272B6D3E8CF0F01210028FAD1B0
:104EB800C3E8401F0028F6D1BFF35F8FB2612146D7
:104EC800304600F0EDF800237269C2E88F3FB369FD
:104ED80083F3108848B94FF0E023D3F8F03DDB079F
:104EE80008D500BE05B0BDE8F0832A466178207871
:104EF80000F0D2F805B0BDE8F0835B4A13780133BF
:104F0800DBB21370C9E74FF00009584E4B463178B1
:104F1800DFF86081564F0FE03A6812EB431305D073
:104F2800DB691BB1616820789847317809F101097C
:104F38005FFA89F38B4217D89942EDD85B1A08EBD0
:104F48004313EDE7464B1A78D707D3D51A7842F0C2
:104F580004021A70A1E7424B1A78D607CAD51A7804
:104F680022F004021A7098E73D4E3378580737D478
:104F7800F378DA07BED5032300273A4A2178166862
:104F880062688DF804108DF805307369CDF80670E5
:104F9800CDF80A70ADF80E700292EFF3108272B677
:104FA800D3E8CF0F01210028FAD1C3E8401F002819
:104FB800F6D1BFF35F8F3046B26101A900F070F8F7
:104FC8007369C3E88F7FB36983F31088002882D0A0
:104FD8002A469DF805109DF8040000F05DF889E761
:104FE80033784FF0000823F00403337005231D4A7B
:104FF8008DF8053017682278ADF80E808DF80420FA
:105008007B69CDF80680CDF80A80EFF3108272B67E
:10501800D3E8CF0F01210028FAD1C3E8401F0028A8
:10502800F6D1BFF35F8F3846BA6101A900F038F8AE
:105038007B69C3E88F8FBB6983F3108838B94FF059
:10504800E023D3F8F03DD90792D500BE90E72A4671
:105058009DF805109DF8040000F01EF888E700BFD1
:105068004012002098120020231800202118002048
:10507800381100204C4300105FF800F09102001036
:105088005FF800F09D3D00105FF800F0FD0E001085
:105098005FF800F0FD0F00105FF800F09125001098
:1050A8005FF800F0313B0010100000000000000025
:1050B80000000100000000000000000000000200E5
:1050C80000000000000000000000030000000000D5
:1050D80000000000000004000000000000000000C4
:1050E8000000050000000000000000000000FF00B4
:1050F8000000000001B5486801318E46004770463F
:1051080009380149884701BDF50600100000000074
:105118000000000000000000000000000000000087
:10512800B00F0020591C0010051C00107D1B00103A
:10513800ED1A001000000000000100009C12002081
:1051480010000C000000000000000000000000003B
:105158000000000000000000FF0000000000000048
:045168000000000043
:10516C00D3DEFFFFFE010000FF010000CCAFFFFF0C
:04517C00793512ABC4
:040000051000014D99
:00000001FF
