:020000041000EA
:10000000002008205B0100101B0100101D010010E2
:100010001101001011010010110100101101001058
:100020001901001019010010190100101F01001022
:10003000110100101901001021010010230100100E
:100040001101001011010010110100101101001028
:100050001101001011010010110100101101001018
:100060001101001011010010110100101101001008
:1000700011010010110100101101001011010010F8
:1000800011010010110100101101001011010010E8
:1000900011010010110100101101001011010010D8
:1000A00011010010110100101101001011010010C8
:1000B00011010010110100101101001011010010B8
:1000C00011010010110100101101001011010010A8
:1000D0001101001011010010110100101101001098
:1000E0001101001011010010110100101101001088
:1000F0001101001011010010110100101101001078
:100100001101001011010010110100101101001067
:10011000EFF30580103800BE00BE00BE00BE00BE7A
:1001200000BE00BEF2EB8871241C0010441C0010BD
:100130009C01001090A31AE7D3DEFFFF42012110BB
:10014000FF010000DC1D0000793512AB00201E49C4
:10015000086006C881F3088810474FF050400068D7
:1001600008B10020F3E70DA40ECC002902D000F066
:1001700012F8F9E71549164A002000E001C1914242
:10018000FCD114498847144988471449884700BE60
:10019000FDE701C901C29A42FBD37047441C00101D
:1001A00010010020E0030020141F001000000820B0
:1001B00000000820141F0010001008200010082064
:1001C000000000007047000008ED00E0E0030020A0
:1001D000F0050020ED1700101D020010E5170010BB
:1001E0000F2800D070474A07FCD538B50E240125EA
:1001F00045EC40400022042100F092F94FF080408D
:100200000449054AC1F834024FF00003157043EC6D
:10021000404038BD00800240EC0500202DE9F84345
:1002200001F0C8FB0E2000F00DFA4FF001040E2380
:1002300044EC44304FF0000545EC4030102000F015
:1002400001FA102344EC443045EC40300F2000F01C
:10025000F9F90F2445EC444000222046012100F02A
:100260004BF901222046364B042100F07FF94FF074
:100270005043344C5A68237844F62066324D02F4D9
:10028000004203B14AB14FF050435A68237802F458
:100290000042002BF7D0002AF5D1227001F068F857
:1002A0004FF0504380460F465B6803F4004333B180
:1002B00000224FF080432270C5F83432E3E701F0AA
:1002C00057F8B0EB080061EB0701B04271F1000193
:1002D00005DA4FF050435B6803F40043E7E74FF45F
:1002E000803320EE10304FF05048D8F804301B0413
:1002F000FBD501F03DF8D8F80430074603F400437D
:100300008946002BF1D001F033F8C01B61EB0901E5
:10031000B04271F1000106DAD8F8043003F400436A
:10032000002BE2D0EFE700274FF080432770012237
:1003300004210F20C5F8343200F0F2F8A3E700BF23
:10034000E1010010EC050020008002404FF0504118
:100350002DE9F84F644AD1F800A0644B52F82A7096
:100360000AEBCA0203EBC2084FB30026DFF880B1E4
:10037000DFF88091F3080C3358F8234035460836EF
:10038000CCB114F00F0110D05BF82A2005F0070360
:10039000EA40E8089B00D20701FA03F300F18C0C55
:1003A00003D4284649F82C30B847240905F1010543
:1003B00001D0B542E5D3202EDCD1BDE8F88F4C4802
:1003C000F90801F10C0358F823303A460837002B9E
:1003D00071D013F00F0508D050F82A40D440E4073C
:1003E00003D4444C8C3144F82150190963D011F0E6
:1003F0000F010BD050F82A40551CEC40E60705D4FD
:10040000EC083C4D09018C3445F82410190A52D0EF
:1004100011F00F010BD050F82A40951CEC40E40776
:1004200005D4EC08334D09028C3445F82410190B1F
:1004300041D011F00F0105D050F82A40D51CEC40F6
:10044000E6073CD5190C36D011F00F0106D0284C28
:1004500054F82A50141DE540ED0737D5190D2AD060
:1004600011F00F0106D0224C54F82A50541DE540DB
:10047000EE0732D5190E1ED011F00F010CD01C4C16
:1004800054F82A50941DE540ED0705D4194DE408B1
:1004900009068C3445F824101B0F02F107020AD01C
:1004A00050F82A10D140C90705D41249D2081B07B9
:1004B0008C3241F82230202F82D1BDE8F88FEC0831
:1004C0000C4D09038C3445F82410BBE7094DE408B2
:1004D00009048C3445F82410C0E7064DE4080905EA
:1004E0008C3445F82410C5E780050020488202407E
:1004F000E00500200080024010B4084CC90041EA29
:10050000820154F8202004EB8003514003F580530E
:1005100001F00C015DF8044B196070470480034042
:1005200030B44FF050444FEAD00C246800F007007C
:10053000800081400B4D4FEA8C000B4B04EBC40450
:1005400000EBC4000CF18C0C034445F82C1022B1D4
:1005500030BC03F500531960704703F54053196030
:1005600030BC704700800240488202402DE9F047CD
:100570004FF050481F4600F00703C4089B00D8F80E
:10058000005001FA03F64FEA8409B2B9284B294911
:1005900005EBC5058C3409EBC50941F8246043F827
:1005A0000960D8F80040DFF898A05AF8243003B367
:1005B000A7B34AF82470BDE8F087DFF884A05AF8A2
:1005C000252002B37FB34FF050434AF825701D68D1
:1005D000194B05EBC50509EBC505164A8C342B44B0
:1005E00042F8246001211E601520BDE8F04700F0AC
:1005F000D1B8002FDFD04AF824701520BDE8F047AD
:100600000E4900F00BB9002FE2D015200B494AF833
:10061000257000F003F9D8F80050D9E715200749F4
:1006200000F0DCF9C5E71520044900F0D7F9CAE766
:1006300048B202400080024048A202404D03001030
:100640008005002030B44FF0000343EC440043EC3D
:10065000400005254FF480740B4BC20053F8201066
:1006600003EB800081F0400102F1804303F5203369
:1006700001F0C00200F5805100F540500A605D6055
:10068000046030BC704700BF048003400FB400B565
:1006900083B0049C074801F0D1F93CB105A920467C
:1006A000019101F083F8044801F0C8F9012001F03C
:1006B00095F800BF301B0010401B001070B5864637
:1006C000EFF3108572B6124CD4E8CF6F0120002EE4
:1006D000FAD1C4E8460F002EF6D1BFF35F8F4FF07A
:1006E000010CC80801F007030CFA03F31EF800C060
:1006F0001CEA030608D14CEA030C0EF800C0C4E85B
:100700008F6F85F3108870BD1046FFF7BFFF00BFE5
:100710006B050020044A1078431CDBB2182B28BF5D
:1007200010231370704700BF680300204FF0E022D1
:10073000936843F000539360704700BF0021044B5F
:1007400003F12002C3E88F1F01339342FAD17047AF
:10075000600500204FF0E0234FF08032C3F8002402
:10076000C3F80424C3F80824C3F80C24C3F81024E5
:10077000C3F81424C3F81824C3F81C24C3F8202495
:10078000C3F82424C3F82824C3F82C24C3F8302445
:1007900062B67047012300F01F029340400941B147
:1007A000800000F1604000F56140C0F880310360D6
:1007B0007047024A203042F82030704700E100E0E4
:1007C00010B5EFF3108C72B6114BD3E8CF4F012266
:1007D000002CFAD1C3E8442F002CF6D1BFF35F8F71
:1007E0000C4A103092680C4C52F82020A24201D0E2
:1007F00091420BD1074A926842F82010BFF35F8FF5
:100800000022C3E88F2F8CF3108810BD00F0B8FED3
:100810006905002000ED00E0110100102DE9F04F06
:100820000B4683B0EFF3108A72B6DFF8AC91D9E8CB
:10083000CF4F0121002CFAD1C9E8441F002CF6D17A
:10084000BFF35F8F5D4991F90080B8F1000FC0F2EE
:10085000B2805B4C08EB480704EB8705AE7910309B
:100860000E7058494FEA48068968009651F82010E2
:10087000BF000E1B2F2E34D821F0010E9EF807600A
:10088000964209D871E00CEB4C0604EB860696F80C
:1008900007B093454ED9B6469EF906C0BCF1000F8D
:1008A000F1DA4BF601560EF1040B043DA5EB0B05F6
:1008B000C5F34A056FEAC545009F6FEAD545474431
:1008C000BB468EF80680DFF80C8104EB8707AEF894
:1008D000045044F82B80BE8087F806C0FA71BB60D4
:1008E0001AE0394EB14266D1AB60384BEA71BA1C9E
:1008F0002244043B9B1AC3F34A036FEAC3434FF4F9
:1009000021426FEAD343E2536B80FF224BF601533F
:10091000AA71AB8045F001012A4B9B6843F8201077
:10092000BFF35F8F0023C9E88F3F8AF3108803B0BD
:10093000BDE8F08FF3463BF8046F76050FD47615CB
:1009400002360BEB460601966FF00706F61B019F79
:10095000361B3E44C6F34A0646F46046A5E706F554
:10096000FF1606F5FF561F36E9E7AB606FF0070389
:10097000EA714FF42142DB1B1B1B7344E253C3F3A8
:100980004A02124B124E02372744043B3243DB1B10
:10099000AA80C3F34A030F4A33436B804AF6AA2165
:1009A00073461B1B5B415943090DA971CEF800200A
:1009B00045F00101B0E700F0E3FD00BFED050020C8
:1009C0006C03002000ED00E0110100109C030020EA
:1009D00000E0FFFF01488047690500202DE9F84F3E
:1009E000EFF3108772B6734CD4E8CF2F0123002A9F
:1009F000FAD1C4E8423F002AF6D1BFF35F8F6E4BB5
:100A000000F1100E9B68DFF8C0B153F82E205A4554
:100A10003CD08A4247D0694D531B2F2B36D84FF01C
:100A2000010C4609B60006F1604606F5614600F085
:100A30001F030CFA03F03368C6F8800000EA0308CD
:100A4000BFF35F8FEFF30583DBB299466BB39E452F
:100A500040F0AD8022F0010CDCF808A0514509D12E
:100A60008FE003EB430305EB8303D3F808A0514564
:100A70002CD09C469CF90630002BF2DA514563D00D
:100A8000B8F1000F1FD0C6F8800130604A4B9B6858
:100A900043F82E20BFF35F8F0023C4E88F3F87F316
:100AA0001088BDE8F88F5A46F0E722F0010CDCF818
:100AB00008A05145DED19CF906A06346BAF1000FAB
:100AC00009DA5A464BE0C6F88000DFE793F906A042
:100AD000BAF1000F39DB0AEB4A0905EB8909D9F8AD
:100AE00008104FEA4A0C996099F80710D97199F9E2
:100AF00006100029997141DBB9F80410490504D5A5
:100B000001F5FF1101F5FF511F31491501F10209EE
:100B10004FF0040B0C2111FB0AB101EB49016FF0FE
:100B200007092944A9EB03094944C1F34A0141F4E7
:100B300060419980224BD444197805EB8C0C83F8E2
:100B400000A08CF806109BE76346B9F1000F1ED198
:100B5000FF218CF806104BF60151ACF80410DFF8B9
:100B600060904AF6AA2199F800A083F806A05B1BC2
:100B70005B415943090D89F8001081E74BF601519B
:100B8000D7E79CF906A06346BAF1000FA3DA0D4936
:100B9000DFF838C0C91A0839C1F30A356FEA0555BC
:100BA0006FEA15554CEA5101D9809D8068E700F045
:100BB000E7FC00BF6905002000ED00E06C030020A9
:100BC000ED050020A60300201101001000F8FFFF32
:100BD000F0B5EFF30585EDB2EFF3108C72B6264950
:100BE000D1E8CF2F0123002AFAD1C1E8423F002AE1
:100BF000F6D1BFF35F8F214E40F0010EB4684AF684
:100C0000AA2354F825701E4A0446A41A644163437B
:100C10001B0D77455BB21BD092F906409C421CD05D
:100C200092F912409C4223D092F91E409C4221D05E
:100C300092F92A409C4208BF03240FD0114A002495
:100C4000157813708571C1E88F4F8CF31088F0BD53
:100C5000B2680D4C42F82540F0E7002404EB440450
:100C600002EB8402FF2494714BF601549480E5E773
:100C70000124F3E70224F1E76905002000ED00E01C
:100C80006C030020ED05002011010010014B0B4406
:100C9000036070476005002070B5104C104DAC42E9
:100CA0000ED2FF26236863B1FFF734FD01462046CC
:100CB000FFF7ECFFA680BFF35F8F0834AC42F1D39F
:100CC00070BDFFF727FD01462046FFF7DFFF2671C5
:100CD000BFF35F8F0834AC42E4D370BDD80300206B
:100CE000E003002010490B68EFF3108072B6D3E8E0
:100CF000CFCF0122BCF1000FF9D1C3E84C2FBCF1DA
:100D0000000FF4D1BFF35F8F084A4FF0000C137847
:100D100009680133DBB21370C1E88FCF80F310880C
:100D200040BF002000217047E8050020EE050020AC
:100D30002DE9F04F2DED028B85B0EFF30583DBB28B
:100D4000103B9A0818BF01224FF0010103F0030085
:100D500018BFAF4DAF4B08BFAF4D00EB820253F849
:100D6000226001FA00FB05F541539FEDA78B01902E
:100D7000C3F804B02EE0B388180440F19280B37930
:100D8000002B40F0DC80B6F908100029C0F21D816C
:100D9000736901EB410103EBC103D3E90247B7F1EA
:100DA000FF3F08BFB4F1FF3F0DD0019B05EB83016E
:100DB000AB6A0A69D21AE31A934203D32B6A13EA85
:100DC0000B0F00D10C61284600F0CAFAA042B941CD
:100DD000C0F2FB80B6F90830C5F83CB0002B009398
:100DE000C9DBD6F8149003EB430A284609EBCA077F
:100DF000D7E9024800F0B4FAA04271EB0801BADB6F
:100E0000B8F1000FC0F2C380D7E90431834A93429E
:100E100000F0ED807A88B6F9080092B242EA00400C
:100E2000984702460B4652EA030100F0B080002BBF
:100E300080F2D180B4EB020E68EB030839F93A3046
:100E4000C7E902E8002B96DB716903EB430201EB73
:100E5000C202D2E90270BE4578EB000C4FEA4302B1
:100E600089DBB4462CF8083F0BE031F93230A44658
:100E7000002B0DDB03EB430001EBC0005A00D0E96F
:100E80000270BE451A4478EB000001EBC204ECDAB4
:100E900029F83A30009BACF80030B38818043FF5CD
:100EA0006EAF3369EFF3108272B6D3E8CF0F012132
:100EB0000028FAD1C3E8401F0028F6D1BFF35F8FA6
:100EC0004FF6FF74B0880023316900B2B480C1E8E6
:100ED0008F3F82F310889842FFF651AF0746A9462C
:100EE000746906F1080807EB470E04EBCE03D3E95B
:100EF0000250B6F90830C446002B13DBB246009707
:100F000004E034F936309446002B09DB03EB43064A
:100F100004EBC602D2E90271BD4270EB0101F0DAC6
:100F20005646009FACF8007034F93E7024F83E300D
:100F3000002FD8DAB3794D46002B3FF424AF0023BD
:100F4000B371B6F9083006F10808591C3DD01946AE
:100F5000776903E080465A1C3FF417AF03EB430266
:100F600007EBC200B0F802C01C461CF4004F9E46BE
:100F700037F93230EED08C4280ED028B05D0A8F8E4
:100F80000030318927F8321034817146E3E739F8AF
:100F90003A3033813369EFF3108272B6D3E8CF0F62
:100FA00001210028FAD1C3E8401F0028F6D1BFF381
:100FB0005F8F7388316929F83A30009B7380002372
:100FC000C1E88F3F82F31088D5E640BF05B0BDEC85
:100FD000028BBDE8F08F2846CDE9022300F0C0F96E
:100FE000029A039B10EB020E43EB010826E708462A
:100FF0000B69029198470028C9D00299D1E90023D2
:1010000011E700BFAFF30080FFFFFFFFFFFFFFFF0F
:1010100000800B40C005002000000B40310D001087
:101020002DE9F84F364C25692DB1BDE8F84F0A215E
:101030003448FFF72BBEDFF8E4800321404600F080
:101040007DF90326C4F80C80FFF764FB4FF0504C89
:101050002D4B267003442361DCF800300F216370B0
:10106000636961801D834FF00405A3F878504FF049
:101070000505A3F890504FF00605A3F8A8504FF0CF
:1010800007050E214FF6FF7208274FF00A0EA3F84E
:10109000C0504FF001094FF00C0C4FF0020B4FF015
:1010A000090A0D204FF00B05A3F868111749A2801B
:1010B000A3F808E1A160A3F848B0A3F8F0A0A3F852
:1010C0002051A3F838C1A3F85001A3F83090A3F839
:1010D0006060A3F8D8701A800D4B3046C8F82070B5
:1010E0000C49DC60FFF76CFB49463046FFF752FBCA
:1010F000094B0A211F640348BDE8F84FFFF7C6BD3E
:10110000C0030020E805002060050020FFFF10005C
:10111000C0050020310D001000200B4000000B40E6
:101120000146F0B50069EFF3108772B6D0E8CF5FE3
:101130000124002DFAD1C0E8454F002DF6D1BFF3B0
:101140005F8FB1F902E04C690EEB4E0CBEF1000F5F
:101150004FEACC0504EBCC0C3DDB605B00264880FD
:101160000869C0E88F6F87F31088BCF80200CCE9EB
:1011700002230130C0F30E00012838BF0120059B77
:10118000ACF80200CCF81030069B40EA0E40CCF8D8
:1011900014300B69EFF3108272B6D3E8CFCF01277A
:1011A000BCF1000FF9D1C3E84C7FBCF1000FF4D1C2
:1011B000BFF35F8F8B886353A1F804E00B69C3E82A
:1011C0008F6F82F310880122CB68097803F50153F1
:1011D0008A405A60F0BD00230A69C2E88F3F87F356
:1011E00010884FF0FF30F0BD03464089B0EB214F2F
:1011F00037DD58690A1402EB420210B500EBC20059
:101200001C69EFF3108C72B6D4E8CFEF0122BEF167
:10121000000FF9D1C4E84E2FBEF1000FF4D1BFF397
:101220005F8F428889B292B28A4207D000221B693E
:10123000C3E88F2F8CF31088002010BD42F40042C9
:1012400042800121002218699971C0E88F2F8CF328
:1012500010881C78DA68084602F50153A1405960ED
:1012600010BD0020704700BF2DE9F04705460C4631
:1012700082B0EFF30587FFB2002F38D12B4ED6E9AD
:1012800000238B4208BF824239D0DFF8AC80D8F807
:101290000CA098F80090504600F062F809F104099B
:1012A0005AF829301B1A281A64EB0101984271F18F
:1012B000000124DA00F05CF8854264EB01010029AA
:1012C00015DB1B4B404600932A4623460197FFF748
:1012D00027FF011E0BDD174BC6E900545A6AA242D4
:1012E00021D39B6AAB421CD31348FFF77DFF114B00
:1012F000586AA04208D2002002B0BDE8F08720BFA3
:101300000C4B586AA042F6D39B6AAB4203D3012030
:1013100002B0BDE8F087001B18BF012002B0BDE895
:10132000F087A242E0D120BFDEE700BFB803002073
:10133000E50C001000000B40C003002010B4054B6A
:10134000054C064AA04214BF1846581C5DF8044BD1
:10135000FFF7B4B98805002000800B40441B001043
:101360000346416A0A46986A596A8A42FAD1704726
:10137000034B596A0A46986A596A9142FAD17047F2
:1013800000000B4000EB400C4FEA8C0C0CF1804C41
:101390000CF5803CF0B51646DCF80420051FB2F5CC
:1013A000803F38BF4FF48032EDB238BFCCF8042014
:1013B000012D2AD94FF40067254C0CF540521760D7
:1013C00054F82020B2B9DCF80020012D82EA461240
:1013D00002F0E0020CF5805632602AD94FF4006129
:1013E00044F820304FF480330CF500521160CCF8F3
:1013F0000430F0BD6769B7FBF2FE0EF1010E0EEB93
:101400004E0EBEF1030EFCD2DDE70129D2D103243A
:101410000CF540521460DCF80820D207FBD5DCF84C
:1014200000200B4C82EA461202F0E0020CF58056D6
:1014300032600122DCF800504D4005F003053560B4
:1014400002FA01F1DCF808200A42FBD0C6E700BF2F
:101450008C050020014B53F8200070478C050020BC
:1014600070B4039D04682D0345EA03451B4B002C13
:10147000B3FBF1F3B2FBF3F61FDB194A194B9042B1
:1014800014BF4FF480424FF40042174C1A6003F52A
:1014900080531A60A36832EA0303FBD1212200F5CE
:1014A00040530433016086601A600268002AFCDA47
:1014B0000822C5601A6070BC7047036803F03F03E0
:1014C0008B42DAD18368C3F30B03B342D5D1C3682F
:1014D00003F4EE23AB42D0D1EDE700BF001BB70011
:1014E000008005400020024000000240012300EB84
:1014F0004000800000F1804000F5841041600360EE
:10150000704700BF0023DB8A002242E800F252024B
:1015100001D4102118470421184700BF034AD2F80C
:101520002838002BFBD0BFF35F8F704700000E40C0
:101530000021044B044ABFF35F8F43F8041B93421E
:10154000F9D170470C080E402C080E4010B44FF42F
:101550008D704FF42A64064A064B07491460D06028
:1015600019605368002BFCDA5DF8044B704700BF2C
:101570000080044000A0044000B0FA00704700BFA3
:1015800008B50148FFF782F8681B001038B5054C14
:10159000054DAC4204D254F8043B9847AC42FAD310
:1015A00038BD00BFF01A0010301B001010B40748FF
:1015B000074C084B084A094904601A608B6832EAF4
:1015C0000303FBD15DF8044B704700BF00200240CD
:1015D0007F3BEFEF00300240F6FFF30300000240D4
:1015E000044BDB6CB3F5004F03D14FF48022024B68
:1015F000DA64704700001150002011504FF0E022D3
:10160000044BD2F8881D0B43C2F8883D10EE30041D
:10161000704700BF030330006FF06041044B054A80
:1016200019609368DB4333F06043FAD1704700BF21
:10163000003002400000024010B545F25320FFF791
:1016400061FFBDE8104003460420184710B545F27D
:101650005320FFF757FFBDE810400346012018470D
:10166000FFF76CB838B51349134C144D641AA4082D
:10167000442C224628BF44222846920000F02CFA2F
:10168000432C14D80E4AC4F144000ED005EB840359
:10169000410803EBC101C3E9002208339942FAD1A2
:1016A000C30704D520F00100044445F82420054B6D
:1016B0009D6038BD000000101001001000000020E7
:1016C0001101001000ED00E0002370B52B4C82B03A
:1016D000C4F88430FFF73AFF0122294BDA63636CC8
:1016E000012BFCD10321264A244B11639C6B012C56
:1016F000FCD10226052521460523224A22480096D0
:10170000FFF7AEFE21462B46204A21480095FFF701
:10171000A7FE0022042031461E4BFFF733FE214670
:10172000284600221C4BFFF72DFE00220820114600
:101730001A4BFFF727FE002209201146174BFFF72F
:1017400021FE002206201146134BFFF71BFE00224C
:10175000114B07201146FFF715FE0420FFF77AFE14
:1017600000240F4BA3FB0035AD0CE0B22946013439
:10177000FFF7BCFE062CF8D102B070BD000001409E
:1017800000300140002F685900000540008C86475A
:1017900000800540001BB70080D1F008006CDC021F
:1017A00083DE1B4300B9704700F006B910B5094B42
:1017B00084B01C684CB1034600914FF0FF3203A97E
:1017C0000548A047012004B010BD00F037F92046BD
:1017D00004B010BDBC050020A517001000BEFDE739
:1017E000704700BF08B5FFF7F9FF00BF38B5064CDA
:1017F000064DFFF7CBFEAC4204D254F8043B9847A9
:10180000AC42FAD338BD00BF301B0010301B0010B3
:101810000368084611461847437D2DE9F047814685
:101820000F461646002B43D0002A3BDD037D0020E7
:101830004D1E014615F8012FDFF884800A2A01F1B8
:1018400001040ED0A6421CD02B782146A3F10D0333
:10185000B3FA83F315F8012F5B090A2A01F1010499
:10186000F0D1002BEED18142A1EB000138441BDC0A
:1018700002214046D9F800309847A64208D02046B9
:10188000E2E7864204DD311AD9F80030384498473F
:10189000374417F8013CA3F10D03B3FA83F35B0956
:1018A00089F81430BDE8F087D9F800309847DFE7B1
:1018B0003846D9F800301146BDE8F047184700BF58
:1018C000181C00102DE9F04782B00D46924699464B
:1018D0000746FFF74DFD4FF0FF366FF000442F4AEB
:1018E000821841F10003964274EB03013CBF32467B
:1018F00023462B4800F0F4F86B1C804603D1384691
:1019000000F0BAF80546274B274E1C68274BB9F163
:10191000000F18BF1E46B4B1BAF1000F1AD1DFF89C
:10192000909001E0246974B12368002BFAD0D9F8B3
:1019300000300BB19C42F5D120462A463946B047CB
:101940002469002CF0D1B8F1000F1FD1284602B055
:10195000BDE8F0874FF00A0ADFF8549002E02469EE
:10196000002CF0D02368002BF9D0D9F800300BB14F
:10197000A342F4D12A4639462046B04701222046E8
:101980000DF107018DF807A0B047E8E7044800F023
:10199000ABF8284602B0BDE8F08700BF40420F0018
:1019A000D8030020B40500201118001019180010E9
:1019B000B805002000207047F0B583B006468DF8CA
:1019C0000700FFF7D5FC4FF0FF356FF00044174AD2
:1019D000821841F10003954274EB03013CBF23469A
:1019E0002A46134800F07CF8124B07461C689CB14D
:1019F000114D01E024697CB12368002BFAD02B68DB
:101A00000BB19C42F6D1204601220DF10701FFF7F0
:101A100003FF2469002CEFD117B9304603B0F0BDA5
:101A2000034800F061F8304603B0F0BD40420F00BB
:101A3000D8030020B4050020B805002038B50446BE
:101A400000F01AF8012305461A4620462946FFF7FA
:101A500039FF084B1C682CB163682BB19847246987
:101A6000002CF9D1284638BD2469002CF4D1284631
:101A700038BD00BFB405002020F0030110F00300C2
:101A8000C0F1000051F8043B00F1040C4FEACC0C0B
:101A90006FF000021CBF22FA0CF213434FF0010C4E
:101AA0004CEA0C2C4CEA0C4CA3EB0C0222EA03028D
:101AB00012EACC1204BF51F8043B0430F4D0C2F156
:101AC000000102EA0102B2FA82F2C2F11F0200EB47
:101AD000D2007047000000005FF800F0750200209F
:101AE0005FF800F0F50100205FF800F02D02002003
:101AF00039160010AD150010E1150010C9160010C0
:101B00001916001031150010611600101D15001077
:101B1000990C001065160010211000107D150010A2
:101B20004D160010FD1500102D0700105507001070
:101B30000A2A2A2A2050414E4943202A2A2A0A00EA
:101B400000000000486172647761726520616C6119
:101B5000726D20256420616C726561647920636C0C
:101B600061696D656400000048617264206173738F
:101B70006572740052656C6561736500626F6F74A5
:101B8000325F77323571303830000000302E31004E
:101B9000322E332E300000007069636F3200000077
:101BA0005345315F50345F45513300005365702019
:101BB000203220323032360006005250D3F07542C7
:101BC000741B001006005250E182887F7C1B0010BD
:101BD000060052503ABCA9118C1B0010060052504E
:101BE000ABB36053901B001006005250BBFF3CB6D5
:101BF000981B001006005250861C0302A01B001008
:101C0000060052505422A29DAC1B001005005250F9
:0C1C1000DE65F468281F00100D0A0000BB
:081C1C0058E6FF0F0100000073
:101C2400B81B0010C41B0010D01B0010DC1B0010DC
:101C3400E81B0010F41B0010001C00100C1C00100A
:101C4400034600B50268EFF3108C72B6D2E8CFEF0A
:101C54000120BEF1000FF9D1C2E84E0FBEF1000F12
:101C6400F4D1BFF35F8F93F90420002A0ADB01B19A
:101C74000A60002000221B68C3E88F2F8CF31088B1
:101C84005DF804FB4FF05042126801201A71F1E72D
:101C94004FF050412DE9F8430027044616461D46EF
:101CA400DFF87C90D1F800802168EFF3108272B6DF
:101CB400D1E8CF0F01230028FAD1C1E8403F002822
:101CC400F6D1BFF35F8F94F90430002B1DDB99F834
:101CD40000C023685FFA8CFCC3E88F7F82F310880E
:101CE40099F80030634508D03046294600F0D0F812
:101CF4000028D9D00020BDE8F88320BF304629460B
:101D040000F0C6F80028CFD0F4E70023216884F857
:101D14000480C1E88F3F82F310880120BDE8F88376
:101D2400EE05002070B582B001A9064615461C4692
:101D3400FFF786FF38B94FF050439DF9042093F91B
:101D440000309A4201D102B070BD2A462346304683
:101D540002B0BDE87040FFF79BBF00BF0368EFF31C
:101D6400108172B6D3E8CFCF0122BCF1000FF9D1B4
:101D7400C3E84C2FBCF1000FF4D1BFF35F8F4FF0D9
:101D8400FF0C074A80F804C013780133DBB21370E8
:101D940000230268C2E88F3F81F3108840BF704778
:101DA400EE050020844641EA000313F0030349D101
:101DB400403A23D30B6803604B6843608B688360AD
:101DC400CB68C3600B6903614B6943618B698361B1
:101DD400CB69C3610B6A03624B6A43628B6A836299
:101DE400CB6AC3620B6B03634B6B43638B6B836381
:101DF400CB6BC36340304031403ADBD230320BD33B
:101E04000B6803604B6843608B688360CB68C36076
:101E140010301031103AF3D20C3205D351F8043B90
:101E240040F8043B043AF9D2043208D0D2071CBF6C
:101E340011F8013B00F8013B01D30B880380604695
:101E4400704700BF082A13D38B07B1D010F00303E7
:101E5400AED0C3F10403D21ADB071CBF11F8013B57
:101E640000F8013BA4D331F8023B20F8023B9FE782
:101E7400043AD9D3013A11F8013B00F8013BF9D2F5
:101E84000B7803704B7843708B788370604670478F
:101E94005FF800F06912001010000000000000005C
:101EA400000001000000000000000000000002002B
:101EB400000000000000000000000300000000001B
:101EC400000000000000FF000000000001B54868A9
:101ED40001318E460047704609380149884701BDE3
:101EE400D10B001000000000FFFFFFFFFFFFFF7F8A
:101EF40000000000000000000000000000000000DE
:101F040000000000E00300200000000000000000CA
:101F1400D3DEFFFFFE010000FF01000024E2FFFF0B
:041F2400793512AB4E
:040000051000014D99
:00000001FF
